{
  "_format": "hh-sol-artifact-1",
  "contractName": "LoanOrigination",
  "sourceName": "contracts/loan/LoanOrigination.sol",
  "abi": [
    {
      "inputs": [
        {
          "internalType": "address",
          "name": "_riskEngine",
          "type": "address"
        },
        {
          "internalType": "address",
          "name": "_morphoAdapter",
          "type": "address"
        },
        {
          "internalType": "address",
          "name": "_tokenRegistry",
          "type": "address"
        }
      ],
      "stateMutability": "nonpayable",
      "type": "constructor"
    },
    {
      "anonymous": false,
      "inputs": [
        {
          "indexed": true,
          "internalType": "address",
          "name": "borrower",
          "type": "address"
        },
        {
          "indexed": true,
          "internalType": "address",
          "name": "token",
          "type": "address"
        },
        {
          "indexed": false,
          "internalType": "uint256",
          "name": "tokenId",
          "type": "uint256"
        }
      ],
      "name": "CollateralApproved",
      "type": "event"
    },
    {
      "anonymous": false,
      "inputs": [
        {
          "indexed": true,
          "internalType": "uint256",
          "name": "loanId",
          "type": "uint256"
        },
        {
          "indexed": true,
          "internalType": "address",
          "name": "borrower",
          "type": "address"
        },
        {
          "indexed": false,
          "internalType": "uint256",
          "name": "collateralTokenId",
          "type": "uint256"
        },
        {
          "indexed": false,
          "internalType": "uint256",
          "name": "principal",
          "type": "uint256"
        }
      ],
      "name": "LoanActivated",
      "type": "event"
    },
    {
      "anonymous": false,
      "inputs": [
        {
          "indexed": true,
          "internalType": "uint256",
          "name": "loanId",
          "type": "uint256"
        },
        {
          "indexed": true,
          "internalType": "address",
          "name": "borrower",
          "type": "address"
        },
        {
          "indexed": true,
          "internalType": "address",
          "name": "lender",
          "type": "address"
        },
        {
          "indexed": false,
          "internalType": "uint256",
          "name": "amount",
          "type": "uint256"
        },
        {
          "indexed": false,
          "internalType": "uint256",
          "name": "duration",
          "type": "uint256"
        }
      ],
      "name": "LoanCreated",
      "type": "event"
    },
    {
      "anonymous": false,
      "inputs": [
        {
          "indexed": true,
          "internalType": "uint256",
          "name": "loanId",
          "type": "uint256"
        }
      ],
      "name": "LoanDefaulted",
      "type": "event"
    },
    {
      "anonymous": false,
      "inputs": [
        {
          "indexed": true,
          "internalType": "uint256",
          "name": "loanId",
          "type": "uint256"
        },
        {
          "indexed": true,
          "internalType": "address",
          "name": "borrower",
          "type": "address"
        },
        {
          "indexed": false,
          "internalType": "uint256",
          "name": "collateralTokenId",
          "type": "uint256"
        }
      ],
      "name": "LoanLiquidated",
      "type": "event"
    },
    {
      "anonymous": false,
      "inputs": [
        {
          "indexed": true,
          "internalType": "uint256",
          "name": "loanId",
          "type": "uint256"
        }
      ],
      "name": "LoanLiquidated",
      "type": "event"
    },
    {
      "anonymous": false,
      "inputs": [
        {
          "indexed": true,
          "internalType": "uint256",
          "name": "loanId",
          "type": "uint256"
        },
        {
          "indexed": true,
          "internalType": "address",
          "name": "borrower",
          "type": "address"
        },
        {
          "indexed": false,
          "internalType": "uint256",
          "name": "amountRepaid",
          "type": "uint256"
        }
      ],
      "name": "LoanRepaid",
      "type": "event"
    },
    {
      "anonymous": false,
      "inputs": [
        {
          "indexed": true,
          "internalType": "uint256",
          "name": "loanId",
          "type": "uint256"
        }
      ],
      "name": "LoanRepaid",
      "type": "event"
    },
    {
      "anonymous": false,
      "inputs": [
        {
          "indexed": true,
          "internalType": "uint256",
          "name": "loanId",
          "type": "uint256"
        },
        {
          "indexed": true,
          "internalType": "address",
          "name": "borrower",
          "type": "address"
        },
        {
          "indexed": false,
          "internalType": "uint256",
          "name": "collateralTokenId",
          "type": "uint256"
        },
        {
          "indexed": false,
          "internalType": "uint256",
          "name": "principal",
          "type": "uint256"
        }
      ],
      "name": "LoanRequested",
      "type": "event"
    },
    {
      "anonymous": false,
      "inputs": [
        {
          "indexed": true,
          "internalType": "address",
          "name": "oldAdapter",
          "type": "address"
        },
        {
          "indexed": true,
          "internalType": "address",
          "name": "newAdapter",
          "type": "address"
        }
      ],
      "name": "MorphoAdapterUpdated",
      "type": "event"
    },
    {
      "anonymous": false,
      "inputs": [
        {
          "indexed": true,
          "internalType": "uint256",
          "name": "loanId",
          "type": "uint256"
        },
        {
          "indexed": false,
          "internalType": "string",
          "name": "policyNumber",
          "type": "string"
        },
        {
          "indexed": false,
          "internalType": "bytes32",
          "name": "requestId",
          "type": "bytes32"
        }
      ],
      "name": "PolicyDefaultNotified",
      "type": "event"
    },
    {
      "anonymous": false,
      "inputs": [
        {
          "indexed": true,
          "internalType": "bytes32",
          "name": "role",
          "type": "bytes32"
        },
        {
          "indexed": true,
          "internalType": "bytes32",
          "name": "previousAdminRole",
          "type": "bytes32"
        },
        {
          "indexed": true,
          "internalType": "bytes32",
          "name": "newAdminRole",
          "type": "bytes32"
        }
      ],
      "name": "RoleAdminChanged",
      "type": "event"
    },
    {
      "anonymous": false,
      "inputs": [
        {
          "indexed": true,
          "internalType": "bytes32",
          "name": "role",
          "type": "bytes32"
        },
        {
          "indexed": true,
          "internalType": "address",
          "name": "account",
          "type": "address"
        },
        {
          "indexed": true,
          "internalType": "address",
          "name": "sender",
          "type": "address"
        }
      ],
      "name": "RoleGranted",
      "type": "event"
    },
    {
      "anonymous": false,
      "inputs": [
        {
          "indexed": true,
          "internalType": "bytes32",
          "name": "role",
          "type": "bytes32"
        },
        {
          "indexed": true,
          "internalType": "address",
          "name": "account",
          "type": "address"
        },
        {
          "indexed": true,
          "internalType": "address",
          "name": "sender",
          "type": "address"
        }
      ],
      "name": "RoleRevoked",
      "type": "event"
    },
    {
      "anonymous": false,
      "inputs": [
        {
          "indexed": true,
          "internalType": "address",
          "name": "oldRegistry",
          "type": "address"
        },
        {
          "indexed": true,
          "internalType": "address",
          "name": "newRegistry",
          "type": "address"
        }
      ],
      "name": "TokenRegistryUpdated",
      "type": "event"
    },
    {
      "inputs": [],
      "name": "ADMIN_ROLE",
      "outputs": [
        {
          "internalType": "bytes32",
          "name": "",
          "type": "bytes32"
        }
      ],
      "stateMutability": "view",
      "type": "function"
    },
    {
      "inputs": [],
      "name": "DEFAULT_ADMIN_ROLE",
      "outputs": [
        {
          "internalType": "bytes32",
          "name": "",
          "type": "bytes32"
        }
      ],
      "stateMutability": "view",
      "type": "function"
    },
    {
      "inputs": [],
      "name": "LIQUIDATOR_ROLE",
      "outputs": [
        {
          "internalType": "bytes32",
          "name": "",
          "type": "bytes32"
        }
      ],
      "stateMutability": "view",
      "type": "function"
    },
    {
      "inputs": [],
      "name": "LOAN_MANAGER_ROLE",
      "outputs": [
        {
          "internalType": "bytes32",
          "name": "",
          "type": "bytes32"
        }
      ],
      "stateMutability": "view",
      "type": "function"
    },
    {
      "inputs": [
        {
          "internalType": "uint256",
          "name": "loanId",
          "type": "uint256"
        }
      ],
      "name": "activateLoan",
      "outputs": [],
      "stateMutability": "nonpayable",
      "type": "function"
    },
    {
      "inputs": [
        {
          "internalType": "address",
          "name": "borrower",
          "type": "address"
        }
      ],
      "name": "getBorrowerLoans",
      "outputs": [
        {
          "internalType": "uint256[]",
          "name": "",
          "type": "uint256[]"
        }
      ],
      "stateMutability": "view",
      "type": "function"
    },
    {
      "inputs": [
        {
          "internalType": "uint256",
          "name": "loanId",
          "type": "uint256"
        }
      ],
      "name": "getLoan",
      "outputs": [
        {
          "components": [
            {
              "internalType": "uint256",
              "name": "id",
              "type": "uint256"
            },
            {
              "internalType": "address",
              "name": "borrower",
              "type": "address"
            },
            {
              "internalType": "uint256",
              "name": "collateralTokenId",
              "type": "uint256"
            },
            {
              "internalType": "address",
              "name": "collateralToken",
              "type": "address"
            },
            {
              "internalType": "uint256",
              "name": "principal",
              "type": "uint256"
            },
            {
              "internalType": "uint256",
              "name": "interestRate",
              "type": "uint256"
            },
            {
              "internalType": "uint256",
              "name": "startTime",
              "type": "uint256"
            },
            {
              "internalType": "uint256",
              "name": "duration",
              "type": "uint256"
            },
            {
              "internalType": "uint256",
              "name": "endTime",
              "type": "uint256"
            },
            {
              "internalType": "enum ILoanOrigination.LoanStatus",
              "name": "status",
              "type": "uint8"
            },
            {
              "internalType": "address",
              "name": "stablecoin",
              "type": "address"
            }
          ],
          "internalType": "struct ILoanOrigination.Loan",
          "name": "",
          "type": "tuple"
        }
      ],
      "stateMutability": "view",
      "type": "function"
    },
    {
      "inputs": [
        {
          "internalType": "bytes32",
          "name": "role",
          "type": "bytes32"
        }
      ],
      "name": "getRoleAdmin",
      "outputs": [
        {
          "internalType": "bytes32",
          "name": "",
          "type": "bytes32"
        }
      ],
      "stateMutability": "view",
      "type": "function"
    },
    {
      "inputs": [
        {
          "internalType": "bytes32",
          "name": "role",
          "type": "bytes32"
        },
        {
          "internalType": "address",
          "name": "account",
          "type": "address"
        }
      ],
      "name": "grantRole",
      "outputs": [],
      "stateMutability": "nonpayable",
      "type": "function"
    },
    {
      "inputs": [
        {
          "internalType": "bytes32",
          "name": "role",
          "type": "bytes32"
        },
        {
          "internalType": "address",
          "name": "account",
          "type": "address"
        }
      ],
      "name": "hasRole",
      "outputs": [
        {
          "internalType": "bool",
          "name": "",
          "type": "bool"
        }
      ],
      "stateMutability": "view",
      "type": "function"
    },
    {
      "inputs": [
        {
          "internalType": "uint256",
          "name": "loanId",
          "type": "uint256"
        }
      ],
      "name": "liquidateLoan",
      "outputs": [],
      "stateMutability": "nonpayable",
      "type": "function"
    },
    {
      "inputs": [],
      "name": "morphoAdapter",
      "outputs": [
        {
          "internalType": "address",
          "name": "",
          "type": "address"
        }
      ],
      "stateMutability": "view",
      "type": "function"
    },
    {
      "inputs": [
        {
          "internalType": "bytes32",
          "name": "role",
          "type": "bytes32"
        },
        {
          "internalType": "address",
          "name": "account",
          "type": "address"
        }
      ],
      "name": "renounceRole",
      "outputs": [],
      "stateMutability": "nonpayable",
      "type": "function"
    },
    {
      "inputs": [
        {
          "internalType": "uint256",
          "name": "loanId",
          "type": "uint256"
        },
        {
          "internalType": "uint256",
          "name": "amount",
          "type": "uint256"
        }
      ],
      "name": "repayLoan",
      "outputs": [],
      "stateMutability": "nonpayable",
      "type": "function"
    },
    {
      "inputs": [
        {
          "internalType": "address",
          "name": "collateralToken",
          "type": "address"
        },
        {
          "internalType": "uint256",
          "name": "collateralTokenId",
          "type": "uint256"
        },
        {
          "internalType": "uint256",
          "name": "principal",
          "type": "uint256"
        },
        {
          "internalType": "uint256",
          "name": "duration",
          "type": "uint256"
        },
        {
          "internalType": "address",
          "name": "stablecoin",
          "type": "address"
        }
      ],
      "name": "requestLoan",
      "outputs": [
        {
          "internalType": "uint256",
          "name": "",
          "type": "uint256"
        }
      ],
      "stateMutability": "nonpayable",
      "type": "function"
    },
    {
      "inputs": [
        {
          "internalType": "bytes32",
          "name": "role",
          "type": "bytes32"
        },
        {
          "internalType": "address",
          "name": "account",
          "type": "address"
        }
      ],
      "name": "revokeRole",
      "outputs": [],
      "stateMutability": "nonpayable",
      "type": "function"
    },
    {
      "inputs": [],
      "name": "riskEngine",
      "outputs": [
        {
          "internalType": "address",
          "name": "",
          "type": "address"
        }
      ],
      "stateMutability": "view",
      "type": "function"
    },
    {
      "inputs": [
        {
          "internalType": "bytes4",
          "name": "interfaceId",
          "type": "bytes4"
        }
      ],
      "name": "supportsInterface",
      "outputs": [
        {
          "internalType": "bool",
          "name": "",
          "type": "bool"
        }
      ],
      "stateMutability": "view",
      "type": "function"
    },
    {
      "inputs": [],
      "name": "tokenRegistry",
      "outputs": [
        {
          "internalType": "address",
          "name": "",
          "type": "address"
        }
      ],
      "stateMutability": "view",
      "type": "function"
    },
    {
      "inputs": [
        {
          "internalType": "address",
          "name": "newAdapter",
          "type": "address"
        }
      ],
      "name": "updateMorphoAdapter",
      "outputs": [],
      "stateMutability": "nonpayable",
      "type": "function"
    },
    {
      "inputs": [
        {
          "internalType": "address",
          "name": "newRegistry",
          "type": "address"
        }
      ],
      "name": "updateTokenRegistry",
      "outputs": [],
      "stateMutability": "nonpayable",
      "type": "function"
    }
  ],
  "bytecode": "0x60a034620003d857601f6200309038819003918201601f191683019291906001600160401b03841183851017620003dd578160609284926040968752833981010312620003d8576200005181620003f3565b906020916200006f8462000067858501620003f3565b9301620003f3565b6001808055926001600160a01b0390838216156200036e5781169182156200030457169182156200029a5760805260018060a01b0319908160035416176003556004541617600455600090818052818352838220338352835260ff84832054161562000263575b7fa49807205ce4d355092ef5a8a18f56e8913cf4a201fbe287825b095693c21775808352828452848320338452845260ff8584205416156200022a575b507f5e17fc5225d4a099df75359ce1f405503ca79498a8dc46a7d583235a0ee45c16808352828452848320338452845260ff858420541615620001f1575b507fa03a3445a42c88c4c71fab3b69391367d1386136663ed015f42f4322182d454792838352828152848320338452815260ff858420541615620001b6575b8451612c6790816200040982396080518181816102fd0152818161084301526112e00152f35b83835282815284832090338452528382209060ff19825416179055339160008051602062003070833981519152339280a43880808062000190565b80835282845284832033845284528483208260ff1982541617905533903390600080516020620030708339815191528580a43862000151565b80835282845284832033845284528483208260ff1982541617905533903390600080516020620030708339815191528580a43862000113565b81805281835283822033835283528382208160ff19825416179055333383600080516020620030708339815191528180a4620000d6565b855162461bcd60e51b815260048101869052603660248201527f4c6f616e4f726967696e6174696f6e3a20546f6b656e2072656769737472792060448201527f63616e6e6f74206265207a65726f2061646472657373000000000000000000006064820152608490fd5b865162461bcd60e51b815260048101879052603660248201527f4c6f616e4f726967696e6174696f6e3a204d6f7270686f20616461707465722060448201527f63616e6e6f74206265207a65726f2061646472657373000000000000000000006064820152608490fd5b865162461bcd60e51b815260048101879052603360248201527f4c6f616e4f726967696e6174696f6e3a205269736b20656e67696e652063616e60448201527f6e6f74206265207a65726f2061646472657373000000000000000000000000006064820152608490fd5b600080fd5b634e487b7160e01b600052604160045260246000fd5b51906001600160a01b0382168203620003d85756fe608080604052600436101561001357600080fd5b600090813560e01c90816301ffc9a71461223f5750806316d8887a146122045780631fa915a4146120fc578063248a9ca3146120d05780632f2ff15d1461202257806336568abe14611f8f5780634644004d14611b6d578063504006ca14611a58578063525b9fde14611a1d5780636aceb2f21461191457806375b238fc146118d95780638a700b531461135a57806391d148541461130f57806392b888ae146112ca5780639d23c4c7146112a1578063a217fddf14611285578063b7b536c31461125c578063c0710370146105ee578063ccdd9f5d146101fc578063d547741f146101bc5763eee8b7ff1461010857600080fd5b346101b9576020806003193601126101b5576001600160a01b0361012a612294565b168252600681526040822060405192838383549182815201908193835284832090835b8181106101a1575050508461016391038561234b565b60405193838594850191818652518092526040850193925b82811061018a57505050500390f35b83518552869550938101939281019260010161017b565b82548452928601926001928301920161014d565b5080fd5b80fd5b50346101b95760403660031901126101b9576101f96004356101dc6122aa565b90808452836020526101f460016040862001546125a7565b6128de565b80f35b50346101b9576020806003193601126101b5576004359061021b612952565b7f5e17fc5225d4a099df75359ce1f405503ca79498a8dc46a7d583235a0ee45c1683528281526040832033600052815260ff6040600020541680156105da575b15610577578183526005815260408320600981019182549260ff8416600681101561056357600261028c9114612449565b60088301546001600160a01b03949042116102a68561239d565b606081019087825116866040830151602460405180948193633bd18a3b60e01b835260048301525afa9283156105255789918c94610530575b50516040516382f01c8560e01b8152911660048201526060816024817f00000000000000000000000000000000000000000000000000000000000000008d165afa908115610525578b916104eb575b506103459061033f612710936129bb565b936129a8565b041081156104e3575b501561048b576003546040516379b2e89f60e01b81526004810188905260089290921c86166001600160a01b03166024830152839082908716818a816044810103925af180156104805761044c575b50907fa0ca3c92221834fb58956a56e59697d21f6e9e1cffe51ca18bd62d6ad62ba5079361043e9392600560ff19825416179055600183015416857f0256bdf47e9aff5784070d6cab332d79f81fc6b8c8ed875565982a423a389e3a836002860154604051908152a361042961042461041e336104198661239d565b612a1e565b9361239d565b612ad6565b91604051938493604085526040850190612582565b918301520390a26001805580f35b9180919392813d8311610479575b610464818361234b565b810103126104745790913861039d565b600080fd5b503d61045a565b6040513d89823e3d90fd5b60405162461bcd60e51b815260048101849052602a60248201527f4c6f616e4f726967696e6174696f6e3a204c6f616e2063616e6e6f74206265206044820152691b1a5c5d5a59185d195960b21b6064820152608490fd5b90503861034e565b90506060813d60601161051d575b816105066060938361234b565b810103126105195786015161271061032e565b8a80fd5b3d91506104f9565b6040513d8d823e3d90fd5b88809295508193503d831161055c575b61054a818361234b565b810103126104745788905192386102df565b503d610540565b634e487b7160e01b87526021600452602487fd5b6084906040519062461bcd60e51b82526004820152603660248201527f4c6f616e4f726967696e6174696f6e3a2043616c6c6572206973206e6f742061604482015275103634b8bab4b230ba37b91037b91030b230b83a32b960511b6064820152fd5b506003546001600160a01b0316331461025b565b50346101b95760a03660031901126101b957610608612294565b608435906001600160a01b038216820361047457610624612952565b6001600160a01b038116156111f1576044351561118f576064351561112e576001600160a01b038216156110ce57600480546040516375151b6360e01b81526001600160a01b0385811693820193909352911690602081602481855afa9081156110c3578591611089575b501561103257604051631f69565f60e01b81526001600160a01b038416600482015290608090829060249082905afa908115610bbe578491610faf575b50604081015160443510610f59576060015160443511610f03576040516331a9108f60e11b81526024803560048301526020908290816001600160a01b0386165afa908115610bbe578491610ec9575b50336001600160a01b0390911603610e665760405163020604bf60e21b81526024803560048301526020908290816001600160a01b0386165afa908115610bbe578491610e2c575b506001600160a01b031630148015610dae575b15610d4b57604051630cc0380160e41b815260248035600483015284908290816001600160a01b0386165afa8015610bbe5784918591610d21575b50421015610cd15715610c6657604051633bd18a3b60e01b81526024803560048301526020908290816001600160a01b0386165afa908115610bbe578491610c34575b5015610bc95760405191636e84245560e11b835233600484015260018060a01b0382166024840152602435604484015260443560648401526064356084840152838360a48160018060a01b037f0000000000000000000000000000000000000000000000000000000000000000165afa928315610bbe578493610ade575b50825115610a7f57600254926001840160025560606108946064354261237a565b910151604051936108a48561232e565b858552336020860152602435604086015260018060a01b03166060850152604435608085015260a08401524260c084015260643560e0840152610100830152600161012083015260018060a01b03166101408201528183526005602052600960408420825181556001810160018060a01b03602085015116906001600160601b0360a01b918282541617905560408401516002830155600382019060018060a01b03606086015116908254161790556080830151600482015560a0830151600582015560c0830151600682015560e0830151600782015561010083015160088201550190610120810151906006821015610a6b5760ff835491610140610100600160a81b0391015160081b169216906affffffffffffffffffffff60a81b161717905533825260066020526040822080549068010000000000000000821015610a575760018201808255821015610a4357906020848493829652200155604051602435815260443583820152817f68595dbe887ae7f496f2c88735019a8918919a1decfdee6bdb460480ab87decb60403393a360018055604051908152f35b634e487b7160e01b84526032600452602484fd5b634e487b7160e01b84526041600452602484fd5b634e487b7160e01b85526021600452602485fd5b60405162461bcd60e51b815260206004820152603160248201527f4c6f616e4f726967696e6174696f6e3a204c6f616e206e6f7420617070726f766044820152706564206279207269736b20656e67696e6560781b6064820152608490fd5b9092503d8085833e610af0818361234b565b6020828281010312610bba5781519167ffffffffffffffff8311610bb65760a08382018383010312610bb657604051928360a081011067ffffffffffffffff60a086011117610ba05760a08401604052610b4b81830161236d565b8452818101602081810151908601526040808201519086015260608082015190860152608001519067ffffffffffffffff8211610b9c57610b909383019201016124f4565b60808201529138610873565b8780fd5b634e487b7160e01b600052604160045260246000fd5b8580fd5b8480fd5b6040513d86823e3d90fd5b60405162461bcd60e51b815260206004820152603b60248201527f4c6f616e4f726967696e6174696f6e3a204f7261636c652076616c756174696f60448201527f6e206d7573742062652067726561746572207468616e207a65726f00000000006064820152608490fd5b90506020813d602011610c5e575b81610c4f6020938361234b565b810103126104745751386107f5565b3d9150610c42565b60405162461bcd60e51b815260206004820152603b60248201527f4c6f616e4f726967696e6174696f6e3a20506f6c6963792076616c756174696f60448201527f6e206d7573742062652067726561746572207468616e207a65726f00000000006064820152608490fd5b60405162461bcd60e51b815260206004820152602260248201527f4c6f616e4f726967696e6174696f6e3a20506f6c696379206973206578706972604482015261195960f21b6064820152608490fd5b9050610d3f91503d8086833e610d37818361234b565b810190612539565b509250905090386107b2565b60405162461bcd60e51b815260206004820152603560248201527f4c6f616e4f726967696e6174696f6e3a20436f6c6c61746572616c206e6f742060448201527430b8383937bb32b2103337b9103a3930b739b332b960591b6064820152608490fd5b5060405163e985e9c560e01b81523360048201523060248201526020816044816001600160a01b0386165afa908115610bbe578491610dee575b50610777565b90506020813d602011610e24575b81610e096020938361234b565b81010312610e2057610e1a9061236d565b38610de8565b8380fd5b3d9150610dfc565b90506020813d602011610e5e575b81610e476020938361234b565b81010312610e2057610e58906124a1565b38610764565b3d9150610e3a565b60405162461bcd60e51b815260206004820152603560248201527f4c6f616e4f726967696e6174696f6e3a20426f72726f77657220646f6573206e6044820152741bdd081bdddb881d1a194818dbdb1b185d195c985b605a1b6064820152608490fd5b90506020813d602011610efb575b81610ee46020938361234b565b81010312610e2057610ef5906124a1565b3861071c565b3d9150610ed7565b60405162461bcd60e51b815260206004820152602860248201527f4c6f616e4f726967696e6174696f6e3a205072696e636970616c2061626f7665604482015267206d6178696d756d60c01b6064820152608490fd5b60405162461bcd60e51b815260206004820152602860248201527f4c6f616e4f726967696e6174696f6e3a205072696e636970616c2062656c6f77604482015267206d696e696d756d60c01b6064820152608490fd5b90506080813d60801161102a575b81610fca6080938361234b565b81010312610e2057604051906080820182811067ffffffffffffffff821117610ba057604052610ff98161236d565b825260208101519060ff82168203610bb65760609160208401526040810151604084015201516060820152386106cc565b3d9150610fbd565b60405162461bcd60e51b815260206004820152602960248201527f4c6f616e4f726967696e6174696f6e3a20537461626c65636f696e206e6f74206044820152681cdd5c1c1bdc9d195960ba1b6064820152608490fd5b90506020813d6020116110bb575b816110a46020938361234b565b81010312610bba576110b59061236d565b3861068f565b3d9150611097565b6040513d87823e3d90fd5b60405162461bcd60e51b815260206004820152603260248201527f4c6f616e4f726967696e6174696f6e3a20537461626c65636f696e2063616e6e6044820152716f74206265207a65726f206164647265737360701b6064820152608490fd5b60405162461bcd60e51b815260206004820152603360248201527f4c6f616e4f726967696e6174696f6e3a204475726174696f6e206d7573742062604482015272652067726561746572207468616e207a65726f60681b6064820152608490fd5b60405162461bcd60e51b815260206004820152603460248201527f4c6f616e4f726967696e6174696f6e3a205072696e636970616c206d7573742060448201527362652067726561746572207468616e207a65726f60601b6064820152608490fd5b60405162461bcd60e51b815260206004820152603860248201527f4c6f616e4f726967696e6174696f6e3a20436f6c6c61746572616c20746f6b6560448201527f6e2063616e6e6f74206265207a65726f206164647265737300000000000000006064820152608490fd5b50346101b957806003193601126101b9576003546040516001600160a01b039091168152602090f35b50346101b957806003193601126101b957602090604051908152f35b50346101b957806003193601126101b9576004546040516001600160a01b039091168152602090f35b50346101b957806003193601126101b9576040517f00000000000000000000000000000000000000000000000000000000000000006001600160a01b03168152602090f35b50346101b95760403660031901126101b957604061132b6122aa565b91600435815280602052209060018060a01b0316600052602052602060ff604060002054166040519015158152f35b50346101b95760403660031901126101b95760043560249081359161137d612952565b81845260209060058252604085206009810180549260ff841660068110156118c65760026113ab9114612449565b8615611869576001600160a01b039360081c84166113d06113cb8561239d565b6129bb565b9081891161180d57604080516323b872dd60e01b898201908152338683019081523060208201528084018d905282900392830182529091611414906060018361234b565b604051916040830183811067ffffffffffffffff8211176117f8578d611498949381937f5361666545524332303a206c6f772d6c6576656c2063616c6c206661696c65648e8495604052808852870152519082885af13d156117ef573d61147a816124b5565b90611488604051928361234b565b815280928c3d92013e5b84612b98565b80518881159182156117d0575b50509050156117795760035460405163095ea7b360e01b81529087166001600160a01b03166004820152602481018a90529087826044818e855af180156105255788918b9161173e575b600354604051633375216b60e01b8152600481018d90526001600160a01b0390921660248301526044820192909252925082908816818d81606481015b03925af1908115611733578a916116fa575b50156116a8578714611584575b50506001015460405194855216927f512d3e65b3e58c2187bb1872aa435dba5bd09c1c03823ba56ab70aac411e4a219190a36001805580f35b600354600184015460405163532c6b3760e01b8152600481018990529086166001600160a01b0316602482015290869082908716818c816044810103925af190811561169d578991611664575b501561160b5750805460ff1916600317905560017f512d3e65b3e58c2187bb1872aa435dba5bd09c1c03823ba56ab70aac411e4a2161154b565b84602d6084926040519262461bcd60e51b845260048401528201527f4c6f616e4f726967696e6174696f6e3a204661696c656420746f2072656c656160448201526c1cd94818dbdb1b185d195c985b609a1b6064820152fd5b90508581813d8311611696575b61167b818361234b565b810103126116925761168c9061236d565b386115d1565b8880fd5b503d611671565b6040513d8b823e3d90fd5b60405162461bcd60e51b8152600481018790526025818401527f4c6f616e4f726967696e6174696f6e3a204661696c656420746f207265706179604482015264103637b0b760d91b6064820152608490fd5b90508681813d831161172c575b611711818361234b565b81010312611728576117229061236d565b3861153e565b8980fd5b503d611707565b6040513d8c823e3d90fd5b91905082813d8311611772575b611755818361234b565b810103126105195789889161176c61152c9461236d565b506114ef565b503d61174b565b60405162461bcd60e51b815260048101889052602a818501527f5361666545524332303a204552433230206f7065726174696f6e20646964206e6044820152691bdd081cdd58d8d9595960b21b6064820152608490fd5b838092935001031261051957876117e7910161236d565b8088386114a5565b60609150611492565b86634e487b7160e01b60005260416004526000fd5b60405162461bcd60e51b815260048101889052602f818501527f4c6f616e4f726967696e6174696f6e3a20416d6f756e7420657863656564732060448201526e1d1bdd185b081c995c185e5b595b9d608a1b6064820152608490fd5b8460316084926040519262461bcd60e51b845260048401528201527f4c6f616e4f726967696e6174696f6e3a20416d6f756e74206d7573742062652060448201527067726561746572207468616e207a65726f60781b6064820152fd5b50634e487b7160e01b8852602160045287fd5b50346101b957806003193601126101b95760206040517fa49807205ce4d355092ef5a8a18f56e8913cf4a201fbe287825b095693c217758152f35b50346101b95760203660031901126101b95761192e612294565b7fa49807205ce4d355092ef5a8a18f56e8913cf4a201fbe287825b095693c21775825281602052604082203360005260205261197160ff604060002054166122c0565b6001600160a01b039081169081156119c057600354826001600160601b0360a01b821617600355167f0c52982d36f66f951b3e3d62c375db268a077483f19ab7bd3e89cf5cb9facdc38380a380f35b60405162461bcd60e51b815260206004820152602f60248201527f4c6f616e4f726967696e6174696f6e3a20416461707465722063616e6e6f742060448201526e6265207a65726f206164647265737360881b6064820152608490fd5b50346101b957806003193601126101b95760206040517fa03a3445a42c88c4c71fab3b69391367d1386136663ed015f42f4322182d45478152f35b50346101b95760203660031901126101b957604051611a768161232e565b8181528160208201528160408201528160608201528160808201528160a08201528160c08201528160e0820152610100908282820152610120918383830152836101408093015260043584526005602052611ad36040852061239d565b93604051938551855260208601519260018060a01b038094166020870152604087015160408701528360608801511660608701526080870151608087015260a087015160a087015260c087015160c087015260e087015160e0870152808701519086015280860151916006831015611b5957509483916101609686015201511690820152f35b634e487b7160e01b81526021600452602490fd5b50346101b9576020806003193601126101b557600435611b8b612952565b8083526005825260408320916009830160ff8154166006811015611f7b57600103611f2a5760018401546001600160a01b03949085163303611edb57600381019185835416928760028401948554813b15611ec4576040516323b872dd60e01b8152336004820152306024820152604481019190915291908290606490829084905af1801561169d57611ec8575b50868154168888600354168654833b15611ec45760405163095ea7b360e01b81526001600160a01b0392909216600483015260248201529181908390604490829084905af1918215611eb7578792611ea0575b505060035491548554604051633afa946d60e21b8152600481018a9052918a166001600160a01b0316602483015260448201529182908916818b816064810103925af1908115611e05578891611e6b575b5015611e10578560035416958482546084888b600488019b8c54604051978896879563309ac50160e11b8752600487015260081c16602485015260448401523360648401525af1908115611e05578891611dd0575b5015611d7657600260ff198254161790554260068201556008611d3960078301544261237a565b910155549254906040519384528301527f7f0df743c9210b42ae37b0f5b87964e1565ca405ecd9ef9a51084db08daad77b60403393a36001805580f35b60405162461bcd60e51b815260048101859052602c60248201527f4c6f616e4f726967696e6174696f6e3a204661696c656420746f20626f72726f60448201526b3b9039ba30b13632b1b7b4b760a11b6064820152608490fd5b90508481813d8311611dfe575b611de7818361234b565b81010312610b9c57611df89061236d565b38611d12565b503d611ddd565b6040513d8a823e3d90fd5b60405162461bcd60e51b815260048101859052602d60248201527f4c6f616e4f726967696e6174696f6e3a204661696c656420746f206465706f7360448201526c1a5d0818dbdb1b185d195c985b609a1b6064820152608490fd5b90508481813d8311611e99575b611e82818361234b565b81010312610b9c57611e939061236d565b38611cbd565b503d611e78565b611eab91925061231a565b610b9c57848838611c6c565b50604051903d90823e3d90fd5b8280fd5b611ed49098919861231a565b9638611c19565b60405162461bcd60e51b815260048101849052602160248201527f4c6f616e4f726967696e6174696f6e3a204e6f742074686520626f72726f77656044820152603960f91b6064820152608490fd5b60405162461bcd60e51b8152600481018390526024808201527f4c6f616e4f726967696e6174696f6e3a204c6f616e206973206e6f742070656e60448201526364696e6760e01b6064820152608490fd5b634e487b7160e01b86526021600452602486fd5b50346101b95760403660031901126101b957611fa96122aa565b336001600160a01b03821603611fc5576101f9906004356128de565b60405162461bcd60e51b815260206004820152602f60248201527f416363657373436f6e74726f6c3a2063616e206f6e6c792072656e6f756e636560448201526e103937b632b9903337b91039b2b63360891b6064820152608490fd5b50346101b95760403660031901126101b95760043561203f6122aa565b8183528260205261205660016040852001546125a7565b818352602083815260408085206001600160a01b039093168086529290915283205460ff1615612084578280f35b818352826020526040832081845260205260408320600160ff1982541617905533917f2f8788117e7eff1d82e926ec794901d17c78024a50270940304540a733656f0d8480a438808280f35b50346101b95760203660031901126101b957600160406020926004358152808452200154604051908152f35b50346101b95760203660031901126101b957612116612294565b7fa49807205ce4d355092ef5a8a18f56e8913cf4a201fbe287825b095693c217758252816020526040822033835260205261215760ff6040842054166122c0565b6001600160a01b039081169081156121a657600454826001600160601b0360a01b821617600455167f0e1e01d3a1bc108c283427a72564fa03f7400b162008588a168ac82e403456e58380a380f35b60405162461bcd60e51b815260206004820152603060248201527f4c6f616e4f726967696e6174696f6e3a2052656769737472792063616e6e6f7460448201526f206265207a65726f206164647265737360801b6064820152608490fd5b50346101b957806003193601126101b95760206040517f5e17fc5225d4a099df75359ce1f405503ca79498a8dc46a7d583235a0ee45c168152f35b9050346101b55760203660031901126101b55760043563ffffffff60e01b8116809103611ec45760209250637965db0b60e01b8114908115612283575b5015158152f35b6301ffc9a760e01b1490503861227c565b600435906001600160a01b038216820361047457565b602435906001600160a01b038216820361047457565b156122c757565b60405162461bcd60e51b815260206004820152602560248201527f4c6f616e4f726967696e6174696f6e3a204d75737420686176652061646d696e60448201526420726f6c6560d81b6064820152608490fd5b67ffffffffffffffff8111610ba057604052565b610160810190811067ffffffffffffffff821117610ba057604052565b90601f8019910116810190811067ffffffffffffffff821117610ba057604052565b5190811515820361047457565b9190820180921161238757565b634e487b7160e01b600052601160045260246000fd5b906040516123aa8161232e565b809280548252600960018060a01b03918260018201541660208501526002810154604085015282600382015416606085015260048101546080850152600581015460a0850152600681015460c0850152600781015460e0850152600881015461010085015201549060ff8216916006831015612433576101409261012085015260081c16910152565b634e487b7160e01b600052602160045260246000fd5b1561245057565b60405162461bcd60e51b815260206004820152602360248201527f4c6f616e4f726967696e6174696f6e3a204c6f616e206973206e6f742061637460448201526269766560e81b6064820152608490fd5b51906001600160a01b038216820361047457565b67ffffffffffffffff8111610ba057601f01601f191660200190565b60005b8381106124e45750506000910152565b81810151838201526020016124d4565b81601f8201121561047457805161250a816124b5565b92612518604051948561234b565b818452602082840101116104745761253691602080850191016124d1565b90565b9060a0828203126104745781519067ffffffffffffffff8211610474576125619183016124f4565b9161256e602083016124a1565b916040810151916080606083015192015190565b9060209161259b815180928185528580860191016124d1565b601f01601f1916010190565b600090808252602090828252604092838120338252835260ff8482205416156125d05750505050565b83519167ffffffffffffffff903360608501838111868210176128ca578752602a855285850191873684378551156128b65760308353855191600192600110156128a2576078602188015360295b83811161283857506127f657908751936080850190858210908211176127e2578852604284528684019460603687378451156127ce57603086538451600110156127ce5790607860218601536041915b8183116127605750505061271e5761271a9386936126fe936126ef6048946126c69a519a8b957f416363657373436f6e74726f6c3a206163636f756e74200000000000000000008c88015251809260378801906124d1565b8401917001034b99036b4b9b9b4b733903937b6329607d1b6037840152518093868401906124d1565b0103602881018752018561234b565b5192839262461bcd60e51b845260048401526024830190612582565b0390fd5b60648587519062461bcd60e51b825280600483015260248201527f537472696e67733a20686578206c656e67746820696e73756666696369656e746044820152fd5b909192600f811660108110156127ba576f181899199a1a9b1b9c1cb0b131b232b360811b901a6127908588612b71565b5360041c9280156127a65760001901919061266e565b634e487b7160e01b82526011600452602482fd5b634e487b7160e01b83526032600452602483fd5b634e487b7160e01b81526032600452602490fd5b634e487b7160e01b86526041600452602486fd5b60648789519062461bcd60e51b825280600483015260248201527f537472696e67733a20686578206c656e67746820696e73756666696369656e746044820152fd5b90600f8116601081101561288e576f181899199a1a9b1b9c1cb0b131b232b360811b901a612866838a612b71565b5360041c90801561287a576000190161261e565b634e487b7160e01b87526011600452602487fd5b634e487b7160e01b88526032600452602488fd5b634e487b7160e01b86526032600452602486fd5b634e487b7160e01b85526032600452602485fd5b634e487b7160e01b85526041600452602485fd5b9060009180835282602052604083209160018060a01b03169182845260205260ff60408420541661290e57505050565b80835282602052604083208284526020526040832060ff1981541690557ff6391f5c32d9c69d2a47ea670b442974b53935d1edc7fd64eb21e047a839171b339380a4565b600260015414612963576002600155565b60405162461bcd60e51b815260206004820152601f60248201527f5265656e7472616e637947756172643a207265656e7472616e742063616c6c006044820152606490fd5b8181029291811591840414171561238757565b6101008101514211156129fd578064496cebb8006129f560e06125369401515b6129f0608060a08601519501948551906129a8565b6129a8565b04905161237a565b60c08101514203904282116123875764496cebb8006129f5612536936129db565b9060209060a460018060a01b0393600060408660608401511692015191604051968795869463e72bc20760e01b8652600486015216602484015260606044840152601d60648401527f4c6f616e2064656661756c74656420616e64206c69717569646174656400000060848401525af160009181612aa2575b506125365750600090565b9091506020813d602011612ace575b81612abe6020938361234b565b8101031261047457519038612a97565b3d9150612ab1565b604060018060a01b03606083015116910151604051918291630cc0380160e41b8352600483015281602460009485935afa829181612b51575b50612b4c5750604051906020820182811067ffffffffffffffff821117612b3857604052815290565b634e487b7160e01b82526041600452602482fd5b905090565b612b669192503d8085833e610d37818361234b565b505050509038612b0f565b908151811015612b82570160200190565b634e487b7160e01b600052603260045260246000fd5b91929015612bfa5750815115612bac575090565b3b15612bb55790565b60405162461bcd60e51b815260206004820152601d60248201527f416464726573733a2063616c6c20746f206e6f6e2d636f6e74726163740000006044820152606490fd5b825190915015612c0d5750805190602001fd5b60405162461bcd60e51b81526020600482015290819061271a90602483019061258256fea26469706673582212208bc90bdeb9b9924cefa81194f70b1a3e6c8a631bfdc6649c4863825c4fabafb964736f6c634300081800332f8788117e7eff1d82e926ec794901d17c78024a50270940304540a733656f0d",
  "linkReferences": {},
  "deployedLinkReferences": {}
}