{
  "_format": "hh-sol-artifact-1",
  "contractName": "LoanOrigination",
  "sourceName": "contracts/loan/LoanOrigination.sol",
  "abi": [
    {
      "inputs": [
        {
          "internalType": "address",
          "name": "_riskEngine",
          "type": "address"
        },
        {
          "internalType": "address",
          "name": "_morphoAdapter",
          "type": "address"
        },
        {
          "internalType": "address",
          "name": "_tokenRegistry",
          "type": "address"
        }
      ],
      "stateMutability": "nonpayable",
      "type": "constructor"
    },
    {
      "anonymous": false,
      "inputs": [
        {
          "indexed": true,
          "internalType": "address",
          "name": "borrower",
          "type": "address"
        },
        {
          "indexed": true,
          "internalType": "address",
          "name": "token",
          "type": "address"
        },
        {
          "indexed": false,
          "internalType": "uint256",
          "name": "tokenId",
          "type": "uint256"
        }
      ],
      "name": "CollateralApproved",
      "type": "event"
    },
    {
      "anonymous": false,
      "inputs": [
        {
          "indexed": true,
          "internalType": "uint256",
          "name": "loanId",
          "type": "uint256"
        },
        {
          "indexed": true,
          "internalType": "address",
          "name": "borrower",
          "type": "address"
        },
        {
          "indexed": false,
          "internalType": "uint256",
          "name": "collateralTokenId",
          "type": "uint256"
        },
        {
          "indexed": false,
          "internalType": "uint256",
          "name": "principal",
          "type": "uint256"
        }
      ],
      "name": "LoanActivated",
      "type": "event"
    },
    {
      "anonymous": false,
      "inputs": [
        {
          "indexed": true,
          "internalType": "uint256",
          "name": "loanId",
          "type": "uint256"
        },
        {
          "indexed": true,
          "internalType": "address",
          "name": "borrower",
          "type": "address"
        },
        {
          "indexed": true,
          "internalType": "address",
          "name": "lender",
          "type": "address"
        },
        {
          "indexed": false,
          "internalType": "uint256",
          "name": "amount",
          "type": "uint256"
        },
        {
          "indexed": false,
          "internalType": "uint256",
          "name": "duration",
          "type": "uint256"
        }
      ],
      "name": "LoanCreated",
      "type": "event"
    },
    {
      "anonymous": false,
      "inputs": [
        {
          "indexed": true,
          "internalType": "uint256",
          "name": "loanId",
          "type": "uint256"
        }
      ],
      "name": "LoanDefaulted",
      "type": "event"
    },
    {
      "anonymous": false,
      "inputs": [
        {
          "indexed": true,
          "internalType": "uint256",
          "name": "loanId",
          "type": "uint256"
        },
        {
          "indexed": true,
          "internalType": "address",
          "name": "borrower",
          "type": "address"
        },
        {
          "indexed": false,
          "internalType": "uint256",
          "name": "collateralTokenId",
          "type": "uint256"
        }
      ],
      "name": "LoanLiquidated",
      "type": "event"
    },
    {
      "anonymous": false,
      "inputs": [
        {
          "indexed": true,
          "internalType": "uint256",
          "name": "loanId",
          "type": "uint256"
        },
        {
          "indexed": true,
          "internalType": "address",
          "name": "borrower",
          "type": "address"
        },
        {
          "indexed": false,
          "internalType": "uint256",
          "name": "amountRepaid",
          "type": "uint256"
        }
      ],
      "name": "LoanRepaid",
      "type": "event"
    },
    {
      "anonymous": false,
      "inputs": [
        {
          "indexed": true,
          "internalType": "uint256",
          "name": "loanId",
          "type": "uint256"
        },
        {
          "indexed": true,
          "internalType": "address",
          "name": "borrower",
          "type": "address"
        },
        {
          "indexed": false,
          "internalType": "uint256",
          "name": "collateralTokenId",
          "type": "uint256"
        },
        {
          "indexed": false,
          "internalType": "uint256",
          "name": "principal",
          "type": "uint256"
        }
      ],
      "name": "LoanRequested",
      "type": "event"
    },
    {
      "anonymous": false,
      "inputs": [
        {
          "indexed": true,
          "internalType": "address",
          "name": "oldAdapter",
          "type": "address"
        },
        {
          "indexed": true,
          "internalType": "address",
          "name": "newAdapter",
          "type": "address"
        }
      ],
      "name": "MorphoAdapterUpdated",
      "type": "event"
    },
    {
      "anonymous": false,
      "inputs": [
        {
          "indexed": true,
          "internalType": "uint256",
          "name": "loanId",
          "type": "uint256"
        },
        {
          "indexed": false,
          "internalType": "string",
          "name": "policyNumber",
          "type": "string"
        },
        {
          "indexed": false,
          "internalType": "bytes32",
          "name": "requestId",
          "type": "bytes32"
        }
      ],
      "name": "PolicyDefaultNotified",
      "type": "event"
    },
    {
      "anonymous": false,
      "inputs": [
        {
          "indexed": true,
          "internalType": "bytes32",
          "name": "role",
          "type": "bytes32"
        },
        {
          "indexed": true,
          "internalType": "bytes32",
          "name": "previousAdminRole",
          "type": "bytes32"
        },
        {
          "indexed": true,
          "internalType": "bytes32",
          "name": "newAdminRole",
          "type": "bytes32"
        }
      ],
      "name": "RoleAdminChanged",
      "type": "event"
    },
    {
      "anonymous": false,
      "inputs": [
        {
          "indexed": true,
          "internalType": "bytes32",
          "name": "role",
          "type": "bytes32"
        },
        {
          "indexed": true,
          "internalType": "address",
          "name": "account",
          "type": "address"
        },
        {
          "indexed": true,
          "internalType": "address",
          "name": "sender",
          "type": "address"
        }
      ],
      "name": "RoleGranted",
      "type": "event"
    },
    {
      "anonymous": false,
      "inputs": [
        {
          "indexed": true,
          "internalType": "bytes32",
          "name": "role",
          "type": "bytes32"
        },
        {
          "indexed": true,
          "internalType": "address",
          "name": "account",
          "type": "address"
        },
        {
          "indexed": true,
          "internalType": "address",
          "name": "sender",
          "type": "address"
        }
      ],
      "name": "RoleRevoked",
      "type": "event"
    },
    {
      "anonymous": false,
      "inputs": [
        {
          "indexed": true,
          "internalType": "address",
          "name": "oldRegistry",
          "type": "address"
        },
        {
          "indexed": true,
          "internalType": "address",
          "name": "newRegistry",
          "type": "address"
        }
      ],
      "name": "TokenRegistryUpdated",
      "type": "event"
    },
    {
      "inputs": [],
      "name": "ADMIN_ROLE",
      "outputs": [
        {
          "internalType": "bytes32",
          "name": "",
          "type": "bytes32"
        }
      ],
      "stateMutability": "view",
      "type": "function"
    },
    {
      "inputs": [],
      "name": "DEFAULT_ADMIN_ROLE",
      "outputs": [
        {
          "internalType": "bytes32",
          "name": "",
          "type": "bytes32"
        }
      ],
      "stateMutability": "view",
      "type": "function"
    },
    {
      "inputs": [],
      "name": "LIQUIDATOR_ROLE",
      "outputs": [
        {
          "internalType": "bytes32",
          "name": "",
          "type": "bytes32"
        }
      ],
      "stateMutability": "view",
      "type": "function"
    },
    {
      "inputs": [],
      "name": "LOAN_MANAGER_ROLE",
      "outputs": [
        {
          "internalType": "bytes32",
          "name": "",
          "type": "bytes32"
        }
      ],
      "stateMutability": "view",
      "type": "function"
    },
    {
      "inputs": [
        {
          "internalType": "uint256",
          "name": "loanId",
          "type": "uint256"
        }
      ],
      "name": "activateLoan",
      "outputs": [],
      "stateMutability": "nonpayable",
      "type": "function"
    },
    {
      "inputs": [
        {
          "internalType": "address",
          "name": "borrower",
          "type": "address"
        }
      ],
      "name": "getBorrowerLoans",
      "outputs": [
        {
          "internalType": "uint256[]",
          "name": "",
          "type": "uint256[]"
        }
      ],
      "stateMutability": "view",
      "type": "function"
    },
    {
      "inputs": [
        {
          "internalType": "uint256",
          "name": "loanId",
          "type": "uint256"
        }
      ],
      "name": "getLoan",
      "outputs": [
        {
          "components": [
            {
              "internalType": "uint256",
              "name": "id",
              "type": "uint256"
            },
            {
              "internalType": "address",
              "name": "borrower",
              "type": "address"
            },
            {
              "internalType": "uint256",
              "name": "collateralTokenId",
              "type": "uint256"
            },
            {
              "internalType": "address",
              "name": "collateralToken",
              "type": "address"
            },
            {
              "internalType": "uint256",
              "name": "principal",
              "type": "uint256"
            },
            {
              "internalType": "uint256",
              "name": "interestRate",
              "type": "uint256"
            },
            {
              "internalType": "uint256",
              "name": "startTime",
              "type": "uint256"
            },
            {
              "internalType": "uint256",
              "name": "duration",
              "type": "uint256"
            },
            {
              "internalType": "uint256",
              "name": "endTime",
              "type": "uint256"
            },
            {
              "internalType": "enum ILoanOrigination.LoanStatus",
              "name": "status",
              "type": "uint8"
            },
            {
              "internalType": "address",
              "name": "stablecoin",
              "type": "address"
            },
            {
              "internalType": "uint256",
              "name": "repaidAmount",
              "type": "uint256"
            }
          ],
          "internalType": "struct ILoanOrigination.Loan",
          "name": "",
          "type": "tuple"
        }
      ],
      "stateMutability": "view",
      "type": "function"
    },
    {
      "inputs": [
        {
          "internalType": "uint256",
          "name": "loanId",
          "type": "uint256"
        }
      ],
      "name": "getRemainingRepayment",
      "outputs": [
        {
          "internalType": "uint256",
          "name": "",
          "type": "uint256"
        }
      ],
      "stateMutability": "view",
      "type": "function"
    },
    {
      "inputs": [
        {
          "internalType": "bytes32",
          "name": "role",
          "type": "bytes32"
        }
      ],
      "name": "getRoleAdmin",
      "outputs": [
        {
          "internalType": "bytes32",
          "name": "",
          "type": "bytes32"
        }
      ],
      "stateMutability": "view",
      "type": "function"
    },
    {
      "inputs": [
        {
          "internalType": "uint256",
          "name": "loanId",
          "type": "uint256"
        }
      ],
      "name": "getTotalRepaymentAmount",
      "outputs": [
        {
          "internalType": "uint256",
          "name": "",
          "type": "uint256"
        }
      ],
      "stateMutability": "view",
      "type": "function"
    },
    {
      "inputs": [
        {
          "internalType": "bytes32",
          "name": "role",
          "type": "bytes32"
        },
        {
          "internalType": "address",
          "name": "account",
          "type": "address"
        }
      ],
      "name": "grantRole",
      "outputs": [],
      "stateMutability": "nonpayable",
      "type": "function"
    },
    {
      "inputs": [
        {
          "internalType": "bytes32",
          "name": "role",
          "type": "bytes32"
        },
        {
          "internalType": "address",
          "name": "account",
          "type": "address"
        }
      ],
      "name": "hasRole",
      "outputs": [
        {
          "internalType": "bool",
          "name": "",
          "type": "bool"
        }
      ],
      "stateMutability": "view",
      "type": "function"
    },
    {
      "inputs": [
        {
          "internalType": "uint256",
          "name": "loanId",
          "type": "uint256"
        }
      ],
      "name": "liquidateLoan",
      "outputs": [],
      "stateMutability": "nonpayable",
      "type": "function"
    },
    {
      "inputs": [],
      "name": "morphoAdapter",
      "outputs": [
        {
          "internalType": "address",
          "name": "",
          "type": "address"
        }
      ],
      "stateMutability": "view",
      "type": "function"
    },
    {
      "inputs": [
        {
          "internalType": "bytes32",
          "name": "role",
          "type": "bytes32"
        },
        {
          "internalType": "address",
          "name": "account",
          "type": "address"
        }
      ],
      "name": "renounceRole",
      "outputs": [],
      "stateMutability": "nonpayable",
      "type": "function"
    },
    {
      "inputs": [
        {
          "internalType": "uint256",
          "name": "loanId",
          "type": "uint256"
        },
        {
          "internalType": "uint256",
          "name": "amount",
          "type": "uint256"
        }
      ],
      "name": "repayLoan",
      "outputs": [],
      "stateMutability": "nonpayable",
      "type": "function"
    },
    {
      "inputs": [
        {
          "internalType": "address",
          "name": "collateralToken",
          "type": "address"
        },
        {
          "internalType": "uint256",
          "name": "collateralTokenId",
          "type": "uint256"
        },
        {
          "internalType": "uint256",
          "name": "principal",
          "type": "uint256"
        },
        {
          "internalType": "uint256",
          "name": "duration",
          "type": "uint256"
        },
        {
          "internalType": "address",
          "name": "stablecoin",
          "type": "address"
        }
      ],
      "name": "requestLoan",
      "outputs": [
        {
          "internalType": "uint256",
          "name": "",
          "type": "uint256"
        }
      ],
      "stateMutability": "nonpayable",
      "type": "function"
    },
    {
      "inputs": [
        {
          "internalType": "bytes32",
          "name": "role",
          "type": "bytes32"
        },
        {
          "internalType": "address",
          "name": "account",
          "type": "address"
        }
      ],
      "name": "revokeRole",
      "outputs": [],
      "stateMutability": "nonpayable",
      "type": "function"
    },
    {
      "inputs": [],
      "name": "riskEngine",
      "outputs": [
        {
          "internalType": "address",
          "name": "",
          "type": "address"
        }
      ],
      "stateMutability": "view",
      "type": "function"
    },
    {
      "inputs": [
        {
          "internalType": "bytes4",
          "name": "interfaceId",
          "type": "bytes4"
        }
      ],
      "name": "supportsInterface",
      "outputs": [
        {
          "internalType": "bool",
          "name": "",
          "type": "bool"
        }
      ],
      "stateMutability": "view",
      "type": "function"
    },
    {
      "inputs": [],
      "name": "tokenRegistry",
      "outputs": [
        {
          "internalType": "address",
          "name": "",
          "type": "address"
        }
      ],
      "stateMutability": "view",
      "type": "function"
    },
    {
      "inputs": [
        {
          "internalType": "address",
          "name": "newAdapter",
          "type": "address"
        }
      ],
      "name": "updateMorphoAdapter",
      "outputs": [],
      "stateMutability": "nonpayable",
      "type": "function"
    },
    {
      "inputs": [
        {
          "internalType": "address",
          "name": "newRegistry",
          "type": "address"
        }
      ],
      "name": "updateTokenRegistry",
      "outputs": [],
      "stateMutability": "nonpayable",
      "type": "function"
    }
  ],
  "bytecode": "0x60a034620003d857601f620031f938819003918201601f191683019291906001600160401b03841183851017620003dd578160609284926040968752833981010312620003d8576200005181620003f3565b906020916200006f8462000067858501620003f3565b9301620003f3565b6001808055926001600160a01b0390838216156200036e5781169182156200030457169182156200029a5760805260018060a01b0319908160035416176003556004541617600455600090818052818352838220338352835260ff84832054161562000263575b7fa49807205ce4d355092ef5a8a18f56e8913cf4a201fbe287825b095693c21775808352828452848320338452845260ff8584205416156200022a575b507f5e17fc5225d4a099df75359ce1f405503ca79498a8dc46a7d583235a0ee45c16808352828452848320338452845260ff858420541615620001f1575b507fa03a3445a42c88c4c71fab3b69391367d1386136663ed015f42f4322182d454792838352828152848320338452815260ff858420541615620001b6575b8451612dd0908162000409823960805181818161031301528181610859015261130f0152f35b83835282815284832090338452528382209060ff198254161790553391600080516020620031d9833981519152339280a43880808062000190565b80835282845284832033845284528483208260ff1982541617905533903390600080516020620031d98339815191528580a43862000151565b80835282845284832033845284528483208260ff1982541617905533903390600080516020620031d98339815191528580a43862000113565b81805281835283822033835283528382208160ff19825416179055333383600080516020620031d98339815191528180a4620000d6565b855162461bcd60e51b815260048101869052603660248201527f4c6f616e4f726967696e6174696f6e3a20546f6b656e2072656769737472792060448201527f63616e6e6f74206265207a65726f2061646472657373000000000000000000006064820152608490fd5b865162461bcd60e51b815260048101879052603660248201527f4c6f616e4f726967696e6174696f6e3a204d6f7270686f20616461707465722060448201527f63616e6e6f74206265207a65726f2061646472657373000000000000000000006064820152608490fd5b865162461bcd60e51b815260048101879052603360248201527f4c6f616e4f726967696e6174696f6e3a205269736b20656e67696e652063616e60448201527f6e6f74206265207a65726f2061646472657373000000000000000000000000006064820152608490fd5b600080fd5b634e487b7160e01b600052604160045260246000fd5b51906001600160a01b0382168203620003d85756fe608080604052600436101561001357600080fd5b600090813560e01c90816301ffc9a7146122ed5750806316d8887a146122b25780631fa915a4146121aa578063248a9ca31461217e5780632f2ff15d146120d057806336568abe1461203d5780634644004d14611c2f578063504006ca14611b07578063525b9fde14611acc5780635ac14a7014611aa05780636aceb2f21461199757806375b238fc1461195c5780638a700b53146113b05780638e8f39401461138957806391d148541461133e57806392b888ae146112f95780639d23c4c7146112d0578063a217fddf146112b4578063b7b536c31461128b578063c071037014610604578063ccdd9f5d14610212578063d547741f146101d25763eee8b7ff1461011e57600080fd5b346101cf576020806003193601126101cb576001600160a01b03610140612342565b168252600681526040822060405192838383549182815201908193835284832090835b8181106101b757505050846101799103856123f9565b60405193838594850191818652518092526040850193925b8281106101a057505050500390f35b835185528695509381019392810192600101610191565b825484529286019260019283019201610163565b5080fd5b80fd5b50346101cf5760403660031901126101cf5761020f6004356101f2612358565b908084528360205261020a60016040862001546126db565b612a12565b80f35b50346101cf576020806003193601126101cb5760043590610231612a86565b7f5e17fc5225d4a099df75359ce1f405503ca79498a8dc46a7d583235a0ee45c1683528281526040832033600052815260ff6040600020541680156105f0575b1561058d578183526005815260408320600981019182549260ff841660068110156105795760026102a29114612505565b60088301546001600160a01b03949042116102bc8561244b565b606081019087825116866040830151602460405180948193633bd18a3b60e01b835260048301525afa92831561053b5789918c94610546575b50516040516382f01c8560e01b8152911660048201526060816024817f00000000000000000000000000000000000000000000000000000000000000008d165afa90811561053b578b91610501575b5061035b9061035561271093612aef565b93612adc565b041081156104f9575b50156104a1576003546040516379b2e89f60e01b81526004810188905260089290921c86166001600160a01b03166024830152839082908716818a816044810103925af1801561049657610462575b50907fa0ca3c92221834fb58956a56e59697d21f6e9e1cffe51ca18bd62d6ad62ba507936104549392600560ff19825416179055600183015416857f0256bdf47e9aff5784070d6cab332d79f81fc6b8c8ed875565982a423a389e3a836002860154604051908152a361043f61043a6104343361042f8661244b565b612b87565b9361244b565b612c3f565b916040519384936040855260408501906126b6565b918301520390a26001805580f35b9180919392813d831161048f575b61047a81836123f9565b8101031261048a579091386103b3565b600080fd5b503d610470565b6040513d89823e3d90fd5b60405162461bcd60e51b815260048101849052602a60248201527f4c6f616e4f726967696e6174696f6e3a204c6f616e2063616e6e6f74206265206044820152691b1a5c5d5a59185d195960b21b6064820152608490fd5b905038610364565b90506060813d606011610533575b8161051c606093836123f9565b8101031261052f57860151612710610344565b8a80fd5b3d915061050f565b6040513d8d823e3d90fd5b88809295508193503d8311610572575b61056081836123f9565b8101031261048a5788905192386102f5565b503d610556565b634e487b7160e01b87526021600452602487fd5b6084906040519062461bcd60e51b82526004820152603660248201527f4c6f616e4f726967696e6174696f6e3a2043616c6c6572206973206e6f742061604482015275103634b8bab4b230ba37b91037b91030b230b83a32b960511b6064820152fd5b506003546001600160a01b03163314610271565b50346101cf5760a03660031901126101cf5761061e612342565b608435906001600160a01b038216820361048a5761063a612a86565b6001600160a01b0381161561122057604435156111be576064351561115d576001600160a01b038216156110fd57600480546040516375151b6360e01b81526001600160a01b0385811693820193909352911690602081602481855afa9081156110f25785916110b8575b501561106157604051631f69565f60e01b81526001600160a01b038416600482015290608090829060249082905afa908115610be7578491610fd8575b50604081015160443510610f82576060015160443511610f2c576040516331a9108f60e11b81526024803560048301526020908290816001600160a01b0386165afa908115610be7578491610ef2575b50336001600160a01b0390911603610e8f5760405163020604bf60e21b81526024803560048301526020908290816001600160a01b0386165afa908115610be7578491610e55575b506001600160a01b031630148015610dd7575b15610d7457604051630cc0380160e41b815260248035600483015284908290816001600160a01b0386165afa8015610be75784918591610d4a575b50421015610cfa5715610c8f57604051633bd18a3b60e01b81526024803560048301526020908290816001600160a01b0386165afa908115610be7578491610c5d575b5015610bf25760405191636e84245560e11b835233600484015260018060a01b0382166024840152602435604484015260443560648401526064356084840152838360a48160018060a01b037f0000000000000000000000000000000000000000000000000000000000000000165afa928315610be7578493610b07575b50825115610aa857600254926001840160025560606108aa60643542612428565b910151604051936108ba856123dc565b858552336020860152602435604086015260018060a01b03166060850152604435608085015260a08401524260c084015260643560e0840152610100830152600161012083015260018060a01b03166101408201528261016082015281835260056020526040832090805182556001820160018060a01b03602083015116906001600160601b0360a01b918282541617905560408201516002840155600383019060018060a01b03606084015116908254161790556080810151600483015560a0810151600583015560c0810151600683015560e081015160078301556101008101516008830155600982016101208201516006811015610a94579181600a93610160935460ff610100600160a81b0361014086015160081b169216906affffffffffffffffffffff60a81b1617179055015191015533825260066020526040822080549068010000000000000000821015610a805760018201808255821015610a6c57906020848493829652200155604051602435815260443583820152817f68595dbe887ae7f496f2c88735019a8918919a1decfdee6bdb460480ab87decb60403393a360018055604051908152f35b634e487b7160e01b84526032600452602484fd5b634e487b7160e01b84526041600452602484fd5b634e487b7160e01b86526021600452602486fd5b60405162461bcd60e51b815260206004820152603160248201527f4c6f616e4f726967696e6174696f6e3a204c6f616e206e6f7420617070726f766044820152706564206279207269736b20656e67696e6560781b6064820152608490fd5b9092503d8085833e610b1981836123f9565b6020828281010312610be35781519167ffffffffffffffff8311610bdf5760a08382018383010312610bdf57604051928360a081011067ffffffffffffffff60a086011117610bc95760a08401604052610b7481830161241b565b8452818101602081810151908601526040808201519086015260608082015190860152608001519067ffffffffffffffff8211610bc557610bb993830192010161262b565b60808201529138610889565b8780fd5b634e487b7160e01b600052604160045260246000fd5b8580fd5b8480fd5b6040513d86823e3d90fd5b60405162461bcd60e51b815260206004820152603b60248201527f4c6f616e4f726967696e6174696f6e3a204f7261636c652076616c756174696f60448201527f6e206d7573742062652067726561746572207468616e207a65726f00000000006064820152608490fd5b90506020813d602011610c87575b81610c78602093836123f9565b8101031261048a57513861080b565b3d9150610c6b565b60405162461bcd60e51b815260206004820152603b60248201527f4c6f616e4f726967696e6174696f6e3a20506f6c6963792076616c756174696f60448201527f6e206d7573742062652067726561746572207468616e207a65726f00000000006064820152608490fd5b60405162461bcd60e51b815260206004820152602260248201527f4c6f616e4f726967696e6174696f6e3a20506f6c696379206973206578706972604482015261195960f21b6064820152608490fd5b9050610d6891503d8086833e610d6081836123f9565b81019061266d565b509250905090386107c8565b60405162461bcd60e51b815260206004820152603560248201527f4c6f616e4f726967696e6174696f6e3a20436f6c6c61746572616c206e6f742060448201527430b8383937bb32b2103337b9103a3930b739b332b960591b6064820152608490fd5b5060405163e985e9c560e01b81523360048201523060248201526020816044816001600160a01b0386165afa908115610be7578491610e17575b5061078d565b90506020813d602011610e4d575b81610e32602093836123f9565b81010312610e4957610e439061241b565b38610e11565b8380fd5b3d9150610e25565b90506020813d602011610e87575b81610e70602093836123f9565b81010312610e4957610e81906125d8565b3861077a565b3d9150610e63565b60405162461bcd60e51b815260206004820152603560248201527f4c6f616e4f726967696e6174696f6e3a20426f72726f77657220646f6573206e6044820152741bdd081bdddb881d1a194818dbdb1b185d195c985b605a1b6064820152608490fd5b90506020813d602011610f24575b81610f0d602093836123f9565b81010312610e4957610f1e906125d8565b38610732565b3d9150610f00565b60405162461bcd60e51b815260206004820152602860248201527f4c6f616e4f726967696e6174696f6e3a205072696e636970616c2061626f7665604482015267206d6178696d756d60c01b6064820152608490fd5b60405162461bcd60e51b815260206004820152602860248201527f4c6f616e4f726967696e6174696f6e3a205072696e636970616c2062656c6f77604482015267206d696e696d756d60c01b6064820152608490fd5b90506080813d608011611059575b81610ff3608093836123f9565b81010312610e49576040519081608081011067ffffffffffffffff608084011117610bc957608082016040526110288161241b565b825260208101519060ff82168203610bdf5760609160208401526040810151604084015201516060820152386106e2565b3d9150610fe6565b60405162461bcd60e51b815260206004820152602960248201527f4c6f616e4f726967696e6174696f6e3a20537461626c65636f696e206e6f74206044820152681cdd5c1c1bdc9d195960ba1b6064820152608490fd5b90506020813d6020116110ea575b816110d3602093836123f9565b81010312610be3576110e49061241b565b386106a5565b3d91506110c6565b6040513d87823e3d90fd5b60405162461bcd60e51b815260206004820152603260248201527f4c6f616e4f726967696e6174696f6e3a20537461626c65636f696e2063616e6e6044820152716f74206265207a65726f206164647265737360701b6064820152608490fd5b60405162461bcd60e51b815260206004820152603360248201527f4c6f616e4f726967696e6174696f6e3a204475726174696f6e206d7573742062604482015272652067726561746572207468616e207a65726f60681b6064820152608490fd5b60405162461bcd60e51b815260206004820152603460248201527f4c6f616e4f726967696e6174696f6e3a205072696e636970616c206d7573742060448201527362652067726561746572207468616e207a65726f60601b6064820152608490fd5b60405162461bcd60e51b815260206004820152603860248201527f4c6f616e4f726967696e6174696f6e3a20436f6c6c61746572616c20746f6b6560448201527f6e2063616e6e6f74206265207a65726f206164647265737300000000000000006064820152608490fd5b50346101cf57806003193601126101cf576003546040516001600160a01b039091168152602090f35b50346101cf57806003193601126101cf57602090604051908152f35b50346101cf57806003193601126101cf576004546040516001600160a01b039091168152602090f35b50346101cf57806003193601126101cf576040517f00000000000000000000000000000000000000000000000000000000000000006001600160a01b03168152602090f35b50346101cf5760403660031901126101cf57604061135a612358565b91600435815280602052209060018060a01b0316600052602052602060ff604060002054166040519015158152f35b50346101cf5760203660031901126101cf5760206113a860043561256a565b604051908152f35b50346101cf5760403660031901126101cf576004356024908135916113d3612a86565b81845260209060058252604085206009810180549260ff841660068110156119495760026114019114612505565b86156118ec576114186114138461244b565b612aef565b600a84019761142889548361255d565b908115611892578181111561188a5750975b604080516323b872dd60e01b898201908152338683019081523060208201528084018d905282900392830182526001600160a01b0398919260089290921c89169161148890606001846123f9565b604051926040840184811067ffffffffffffffff821117611875578e809361150c9695937f5361666545524332303a206c6f772d6c6576656c2063616c6c206661696c65648f8495604052808952880152519082855af1903d1561186c573d6114f0816125ec565b906114fe60405192836123f9565b815280938d3d92013e612d01565b805188811591821561184d575b50509050156117f657835460035460405163095ea7b360e01b81529088166001600160a01b03166004820152602481018b9052908890829060081c8916818e816044810103925af1801561053b576117c2575b506003548454604051633375216b60e01b8152600481018b905260089190911c88166001600160a01b03166024820152604481018b905290889082908916818e816064810103925af190811561053b578b9161178d575b501561173b576115d4898254612428565b8091551015611617575b50506001015460405194855216927f512d3e65b3e58c2187bb1872aa435dba5bd09c1c03823ba56ab70aac411e4a219190a36001805580f35b600354600184015460405163532c6b3760e01b8152600481018990529086166001600160a01b0316602482015290869082908716818c816044810103925af19081156117305789916116f7575b501561169e5750805460ff1916600317905560017f512d3e65b3e58c2187bb1872aa435dba5bd09c1c03823ba56ab70aac411e4a216115de565b84602d6084926040519262461bcd60e51b845260048401528201527f4c6f616e4f726967696e6174696f6e3a204661696c656420746f2072656c656160448201526c1cd94818dbdb1b185d195c985b609a1b6064820152fd5b90508581813d8311611729575b61170e81836123f9565b810103126117255761171f9061241b565b38611664565b8880fd5b503d611704565b6040513d8b823e3d90fd5b60405162461bcd60e51b8152600481018890526025818501527f4c6f616e4f726967696e6174696f6e3a204661696c656420746f207265706179604482015264103637b0b760d91b6064820152608490fd5b90508781813d83116117bb575b6117a481836123f9565b8101031261052f576117b59061241b565b386115c3565b503d61179a565b8781813d83116117ef575b6117d781836123f9565b8101031261052f576117e89061241b565b503861156c565b503d6117cd565b60405162461bcd60e51b815260048101889052602a818501527f5361666545524332303a204552433230206f7065726174696f6e20646964206e6044820152691bdd081cdd58d8d9595960b21b6064820152608490fd5b838092935001031261052f5787611864910161241b565b808838611519565b60609250612d01565b87634e487b7160e01b60005260416004526000fd5b90509761143a565b60405162461bcd60e51b815260048101899052602d818601527f4c6f616e4f726967696e6174696f6e3a204c6f616e20697320616c726561647960448201526c08199d5b1b1e481c995c185a59609a1b6064820152608490fd5b8460316084926040519262461bcd60e51b845260048401528201527f4c6f616e4f726967696e6174696f6e3a20416d6f756e74206d7573742062652060448201527067726561746572207468616e207a65726f60781b6064820152fd5b50634e487b7160e01b8852602160045287fd5b50346101cf57806003193601126101cf5760206040517fa49807205ce4d355092ef5a8a18f56e8913cf4a201fbe287825b095693c217758152f35b50346101cf5760203660031901126101cf576119b1612342565b7fa49807205ce4d355092ef5a8a18f56e8913cf4a201fbe287825b095693c2177582528160205260408220336000526020526119f460ff6040600020541661236e565b6001600160a01b03908116908115611a4357600354826001600160601b0360a01b821617600355167f0c52982d36f66f951b3e3d62c375db268a077483f19ab7bd3e89cf5cb9facdc38380a380f35b60405162461bcd60e51b815260206004820152602f60248201527f4c6f616e4f726967696e6174696f6e3a20416461707465722063616e6e6f742060448201526e6265207a65726f206164647265737360881b6064820152608490fd5b50346101cf5760203660031901126101cf576113a861141360406020936004358152600585522061244b565b50346101cf57806003193601126101cf5760206040517fa03a3445a42c88c4c71fab3b69391367d1386136663ed015f42f4322182d45478152f35b50346101cf5760203660031901126101cf57604051611b25816123dc565b8181528160208201528160408201528160608201528160808201528160a08201528160c08201528160e0820152610100908282820152610120918383830152610140908482840152846101608094015260043585526005602052611b8b6040862061244b565b94604051948651865260208701519260018060a01b038094166020880152604088015160408801528360608901511660608801526080880151608088015260a088015160a088015260c088015160c088015260e088015160e0880152808801519087015280870151916006831015611c1b5750918493916101809793870152818301511690850152015190820152f35b634e487b7160e01b81526021600452602490fd5b50346101cf576020806003193601126101cb57600435611c4d612a86565b8083526005825260408320916009830160ff8154166006811015610a9457600103611fec5760018401546001600160a01b03949085163303611f9d57600381019185835416928760028401948554813b15611f86576040516323b872dd60e01b8152336004820152306024820152604481019190915291908290606490829084905af1801561173057611f8a575b50868154168888600354168654833b15611f865760405163095ea7b360e01b81526001600160a01b0392909216600483015260248201529181908390604490829084905af1918215611f79578792611f62575b505060035491548554604051633afa946d60e21b8152600481018a9052918a166001600160a01b0316602483015260448201529182908916818b816064810103925af1908115611ec7578891611f2d575b5015611ed2578560035416958482546084888b600488019b8c54604051978896879563309ac50160e11b8752600487015260081c16602485015260448401523360648401525af1908115611ec7578891611e92575b5015611e3857600260ff198254161790554260068201556008611dfb600783015442612428565b910155549254906040519384528301527f7f0df743c9210b42ae37b0f5b87964e1565ca405ecd9ef9a51084db08daad77b60403393a36001805580f35b60405162461bcd60e51b815260048101859052602c60248201527f4c6f616e4f726967696e6174696f6e3a204661696c656420746f20626f72726f60448201526b3b9039ba30b13632b1b7b4b760a11b6064820152608490fd5b90508481813d8311611ec0575b611ea981836123f9565b81010312610bc557611eba9061241b565b38611dd4565b503d611e9f565b6040513d8a823e3d90fd5b60405162461bcd60e51b815260048101859052602d60248201527f4c6f616e4f726967696e6174696f6e3a204661696c656420746f206465706f7360448201526c1a5d0818dbdb1b185d195c985b609a1b6064820152608490fd5b90508481813d8311611f5b575b611f4481836123f9565b81010312610bc557611f559061241b565b38611d7f565b503d611f3a565b611f6d9192506123c8565b610bc557848838611d2e565b50604051903d90823e3d90fd5b8280fd5b611f96909891986123c8565b9638611cdb565b60405162461bcd60e51b815260048101849052602160248201527f4c6f616e4f726967696e6174696f6e3a204e6f742074686520626f72726f77656044820152603960f91b6064820152608490fd5b60405162461bcd60e51b8152600481018390526024808201527f4c6f616e4f726967696e6174696f6e3a204c6f616e206973206e6f742070656e60448201526364696e6760e01b6064820152608490fd5b50346101cf5760403660031901126101cf57612057612358565b336001600160a01b038216036120735761020f90600435612a12565b60405162461bcd60e51b815260206004820152602f60248201527f416363657373436f6e74726f6c3a2063616e206f6e6c792072656e6f756e636560448201526e103937b632b9903337b91039b2b63360891b6064820152608490fd5b50346101cf5760403660031901126101cf576004356120ed612358565b8183528260205261210460016040852001546126db565b818352602083815260408085206001600160a01b039093168086529290915283205460ff1615612132578280f35b818352826020526040832081845260205260408320600160ff1982541617905533917f2f8788117e7eff1d82e926ec794901d17c78024a50270940304540a733656f0d8480a438808280f35b50346101cf5760203660031901126101cf57600160406020926004358152808452200154604051908152f35b50346101cf5760203660031901126101cf576121c4612342565b7fa49807205ce4d355092ef5a8a18f56e8913cf4a201fbe287825b095693c217758252816020526040822033835260205261220560ff60408420541661236e565b6001600160a01b0390811690811561225457600454826001600160601b0360a01b821617600455167f0e1e01d3a1bc108c283427a72564fa03f7400b162008588a168ac82e403456e58380a380f35b60405162461bcd60e51b815260206004820152603060248201527f4c6f616e4f726967696e6174696f6e3a2052656769737472792063616e6e6f7460448201526f206265207a65726f206164647265737360801b6064820152608490fd5b50346101cf57806003193601126101cf5760206040517f5e17fc5225d4a099df75359ce1f405503ca79498a8dc46a7d583235a0ee45c168152f35b9050346101cb5760203660031901126101cb5760043563ffffffff60e01b8116809103611f865760209250637965db0b60e01b8114908115612331575b5015158152f35b6301ffc9a760e01b1490503861232a565b600435906001600160a01b038216820361048a57565b602435906001600160a01b038216820361048a57565b1561237557565b60405162461bcd60e51b815260206004820152602560248201527f4c6f616e4f726967696e6174696f6e3a204d75737420686176652061646d696e60448201526420726f6c6560d81b6064820152608490fd5b67ffffffffffffffff8111610bc957604052565b610180810190811067ffffffffffffffff821117610bc957604052565b90601f8019910116810190811067ffffffffffffffff821117610bc957604052565b5190811515820361048a57565b9190820180921161243557565b634e487b7160e01b600052601160045260246000fd5b90604051612458816123dc565b8254815260018301546001600160a01b0390811660208301526002840154604083015260038401548116606083015260048401546080830152600584015460a083015260068085015460c0840152600785015460e084015260088501546101008401526009850154929485939260ff8416928310156124ef5761016093600a9361012087015260081c166101408501520154910152565b634e487b7160e01b600052602160045260246000fd5b1561250c57565b60405162461bcd60e51b815260206004820152602360248201527f4c6f616e4f726967696e6174696f6e3a204c6f616e206973206e6f742061637460448201526269766560e81b6064820152608490fd5b9190820391821161243557565b600090815260056020526125806040822061244b565b61012081015160068110156125c4576002036125c0576101606125a282612aef565b91015190808210156125bb576125b8925061255d565b90565b505090565b5090565b634e487b7160e01b83526021600452602483fd5b51906001600160a01b038216820361048a57565b67ffffffffffffffff8111610bc957601f01601f191660200190565b60005b83811061261b5750506000910152565b818101518382015260200161260b565b81601f8201121561048a578051612641816125ec565b9261264f60405194856123f9565b8184526020828401011161048a576125b89160208085019101612608565b9060a08282031261048a5781519067ffffffffffffffff821161048a5761269591830161262b565b916126a2602083016125d8565b916040810151916080606083015192015190565b906020916126cf81518092818552858086019101612608565b601f01601f1916010190565b600090808252602090828252604092838120338252835260ff8482205416156127045750505050565b83519167ffffffffffffffff903360608501838111868210176129fe578752602a855285850191873684378551156129ea5760308353855191600192600110156129d6576078602188015360295b83811161296c575061292a57908751936080850190858210908211176129165788526042845286840194606036873784511561290257603086538451600110156129025790607860218601536041915b818311612894575050506128525761284e938693612832936128236048946127fa9a519a8b957f416363657373436f6e74726f6c3a206163636f756e74200000000000000000008c8801525180926037880190612608565b8401917001034b99036b4b9b9b4b733903937b6329607d1b603784015251809386840190612608565b010360288101875201856123f9565b5192839262461bcd60e51b8452600484015260248301906126b6565b0390fd5b60648587519062461bcd60e51b825280600483015260248201527f537472696e67733a20686578206c656e67746820696e73756666696369656e746044820152fd5b909192600f811660108110156128ee576f181899199a1a9b1b9c1cb0b131b232b360811b901a6128c48588612cda565b5360041c9280156128da576000190191906127a2565b634e487b7160e01b82526011600452602482fd5b634e487b7160e01b83526032600452602483fd5b634e487b7160e01b81526032600452602490fd5b634e487b7160e01b86526041600452602486fd5b60648789519062461bcd60e51b825280600483015260248201527f537472696e67733a20686578206c656e67746820696e73756666696369656e746044820152fd5b90600f811660108110156129c2576f181899199a1a9b1b9c1cb0b131b232b360811b901a61299a838a612cda565b5360041c9080156129ae5760001901612752565b634e487b7160e01b87526011600452602487fd5b634e487b7160e01b88526032600452602488fd5b634e487b7160e01b86526032600452602486fd5b634e487b7160e01b85526032600452602485fd5b634e487b7160e01b85526041600452602485fd5b9060009180835282602052604083209160018060a01b03169182845260205260ff604084205416612a4257505050565b80835282602052604083208284526020526040832060ff1981541690557ff6391f5c32d9c69d2a47ea670b442974b53935d1edc7fd64eb21e047a839171b339380a4565b600260015414612a97576002600155565b60405162461bcd60e51b815260206004820152601f60248201527f5265656e7472616e637947756172643a207265656e7472616e742063616c6c006044820152606490fd5b8181029291811591840414171561243557565b61012081015160068110156124ef57600203612b815760c08101516125b89190428110612b4357506237b1d0612b3b60005b612b36608060a0860151950194855190612adc565b612adc565b049051612428565b6101008201514210612b6657506237b1d0612b3b6201518060e084015104612b21565b612b3b62015180612b7b6237b1d0934261255d565b04612b21565b50600090565b9060209060a460018060a01b0393600060408660608401511692015191604051968795869463e72bc20760e01b8652600486015216602484015260606044840152601d60648401527f4c6f616e2064656661756c74656420616e64206c69717569646174656400000060848401525af160009181612c0b575b506125b85750600090565b9091506020813d602011612c37575b81612c27602093836123f9565b8101031261048a57519038612c00565b3d9150612c1a565b604060018060a01b03606083015116910151604051918291630cc0380160e41b8352600483015281602460009485935afa829181612cba575b50612cb55750604051906020820182811067ffffffffffffffff821117612ca157604052815290565b634e487b7160e01b82526041600452602482fd5b905090565b612ccf9192503d8085833e610d6081836123f9565b505050509038612c78565b908151811015612ceb570160200190565b634e487b7160e01b600052603260045260246000fd5b91929015612d635750815115612d15575090565b3b15612d1e5790565b60405162461bcd60e51b815260206004820152601d60248201527f416464726573733a2063616c6c20746f206e6f6e2d636f6e74726163740000006044820152606490fd5b825190915015612d765750805190602001fd5b60405162461bcd60e51b81526020600482015290819061284e9060248301906126b656fea264697066735822122068891275adda7c4bdcc380657bbd57cfdb1f5d5be1985a34a62ef3ad0c223dd064736f6c634300081800332f8788117e7eff1d82e926ec794901d17c78024a50270940304540a733656f0d",
  "linkReferences": {},
  "deployedLinkReferences": {}
}