{
  "_format": "hh-sol-artifact-1",
  "contractName": "MockUSDC",
  "sourceName": "contracts/mocks/MockUSDC.sol",
  "abi": [
    {
      "inputs": [
        {
          "internalType": "string",
          "name": "name",
          "type": "string"
        },
        {
          "internalType": "string",
          "name": "symbol",
          "type": "string"
        },
        {
          "internalType": "uint8",
          "name": "tokenDecimals",
          "type": "uint8"
        }
      ],
      "stateMutability": "nonpayable",
      "type": "constructor"
    },
    {
      "anonymous": false,
      "inputs": [
        {
          "indexed": true,
          "internalType": "address",
          "name": "owner",
          "type": "address"
        },
        {
          "indexed": true,
          "internalType": "address",
          "name": "spender",
          "type": "address"
        },
        {
          "indexed": false,
          "internalType": "uint256",
          "name": "value",
          "type": "uint256"
        }
      ],
      "name": "Approval",
      "type": "event"
    },
    {
      "anonymous": false,
      "inputs": [
        {
          "indexed": true,
          "internalType": "bytes32",
          "name": "role",
          "type": "bytes32"
        },
        {
          "indexed": true,
          "internalType": "bytes32",
          "name": "previousAdminRole",
          "type": "bytes32"
        },
        {
          "indexed": true,
          "internalType": "bytes32",
          "name": "newAdminRole",
          "type": "bytes32"
        }
      ],
      "name": "RoleAdminChanged",
      "type": "event"
    },
    {
      "anonymous": false,
      "inputs": [
        {
          "indexed": true,
          "internalType": "bytes32",
          "name": "role",
          "type": "bytes32"
        },
        {
          "indexed": true,
          "internalType": "address",
          "name": "account",
          "type": "address"
        },
        {
          "indexed": true,
          "internalType": "address",
          "name": "sender",
          "type": "address"
        }
      ],
      "name": "RoleGranted",
      "type": "event"
    },
    {
      "anonymous": false,
      "inputs": [
        {
          "indexed": true,
          "internalType": "bytes32",
          "name": "role",
          "type": "bytes32"
        },
        {
          "indexed": true,
          "internalType": "address",
          "name": "account",
          "type": "address"
        },
        {
          "indexed": true,
          "internalType": "address",
          "name": "sender",
          "type": "address"
        }
      ],
      "name": "RoleRevoked",
      "type": "event"
    },
    {
      "anonymous": false,
      "inputs": [
        {
          "indexed": true,
          "internalType": "address",
          "name": "from",
          "type": "address"
        },
        {
          "indexed": true,
          "internalType": "address",
          "name": "to",
          "type": "address"
        },
        {
          "indexed": false,
          "internalType": "uint256",
          "name": "value",
          "type": "uint256"
        }
      ],
      "name": "Transfer",
      "type": "event"
    },
    {
      "inputs": [],
      "name": "DEFAULT_ADMIN_ROLE",
      "outputs": [
        {
          "internalType": "bytes32",
          "name": "",
          "type": "bytes32"
        }
      ],
      "stateMutability": "view",
      "type": "function"
    },
    {
      "inputs": [],
      "name": "MINTER_ROLE",
      "outputs": [
        {
          "internalType": "bytes32",
          "name": "",
          "type": "bytes32"
        }
      ],
      "stateMutability": "view",
      "type": "function"
    },
    {
      "inputs": [
        {
          "internalType": "address",
          "name": "owner",
          "type": "address"
        },
        {
          "internalType": "address",
          "name": "spender",
          "type": "address"
        }
      ],
      "name": "allowance",
      "outputs": [
        {
          "internalType": "uint256",
          "name": "",
          "type": "uint256"
        }
      ],
      "stateMutability": "view",
      "type": "function"
    },
    {
      "inputs": [
        {
          "internalType": "address",
          "name": "spender",
          "type": "address"
        },
        {
          "internalType": "uint256",
          "name": "amount",
          "type": "uint256"
        }
      ],
      "name": "approve",
      "outputs": [
        {
          "internalType": "bool",
          "name": "",
          "type": "bool"
        }
      ],
      "stateMutability": "nonpayable",
      "type": "function"
    },
    {
      "inputs": [
        {
          "internalType": "address",
          "name": "account",
          "type": "address"
        }
      ],
      "name": "balanceOf",
      "outputs": [
        {
          "internalType": "uint256",
          "name": "",
          "type": "uint256"
        }
      ],
      "stateMutability": "view",
      "type": "function"
    },
    {
      "inputs": [
        {
          "internalType": "address",
          "name": "from",
          "type": "address"
        },
        {
          "internalType": "uint256",
          "name": "amount",
          "type": "uint256"
        }
      ],
      "name": "burn",
      "outputs": [],
      "stateMutability": "nonpayable",
      "type": "function"
    },
    {
      "inputs": [],
      "name": "decimals",
      "outputs": [
        {
          "internalType": "uint8",
          "name": "",
          "type": "uint8"
        }
      ],
      "stateMutability": "view",
      "type": "function"
    },
    {
      "inputs": [
        {
          "internalType": "address",
          "name": "spender",
          "type": "address"
        },
        {
          "internalType": "uint256",
          "name": "subtractedValue",
          "type": "uint256"
        }
      ],
      "name": "decreaseAllowance",
      "outputs": [
        {
          "internalType": "bool",
          "name": "",
          "type": "bool"
        }
      ],
      "stateMutability": "nonpayable",
      "type": "function"
    },
    {
      "inputs": [
        {
          "internalType": "bytes32",
          "name": "role",
          "type": "bytes32"
        }
      ],
      "name": "getRoleAdmin",
      "outputs": [
        {
          "internalType": "bytes32",
          "name": "",
          "type": "bytes32"
        }
      ],
      "stateMutability": "view",
      "type": "function"
    },
    {
      "inputs": [
        {
          "internalType": "bytes32",
          "name": "role",
          "type": "bytes32"
        },
        {
          "internalType": "address",
          "name": "account",
          "type": "address"
        }
      ],
      "name": "grantRole",
      "outputs": [],
      "stateMutability": "nonpayable",
      "type": "function"
    },
    {
      "inputs": [
        {
          "internalType": "bytes32",
          "name": "role",
          "type": "bytes32"
        },
        {
          "internalType": "address",
          "name": "account",
          "type": "address"
        }
      ],
      "name": "hasRole",
      "outputs": [
        {
          "internalType": "bool",
          "name": "",
          "type": "bool"
        }
      ],
      "stateMutability": "view",
      "type": "function"
    },
    {
      "inputs": [
        {
          "internalType": "address",
          "name": "spender",
          "type": "address"
        },
        {
          "internalType": "uint256",
          "name": "addedValue",
          "type": "uint256"
        }
      ],
      "name": "increaseAllowance",
      "outputs": [
        {
          "internalType": "bool",
          "name": "",
          "type": "bool"
        }
      ],
      "stateMutability": "nonpayable",
      "type": "function"
    },
    {
      "inputs": [
        {
          "internalType": "address",
          "name": "to",
          "type": "address"
        },
        {
          "internalType": "uint256",
          "name": "amount",
          "type": "uint256"
        }
      ],
      "name": "mint",
      "outputs": [],
      "stateMutability": "nonpayable",
      "type": "function"
    },
    {
      "inputs": [],
      "name": "name",
      "outputs": [
        {
          "internalType": "string",
          "name": "",
          "type": "string"
        }
      ],
      "stateMutability": "view",
      "type": "function"
    },
    {
      "inputs": [
        {
          "internalType": "bytes32",
          "name": "role",
          "type": "bytes32"
        },
        {
          "internalType": "address",
          "name": "account",
          "type": "address"
        }
      ],
      "name": "renounceRole",
      "outputs": [],
      "stateMutability": "nonpayable",
      "type": "function"
    },
    {
      "inputs": [
        {
          "internalType": "bytes32",
          "name": "role",
          "type": "bytes32"
        },
        {
          "internalType": "address",
          "name": "account",
          "type": "address"
        }
      ],
      "name": "revokeRole",
      "outputs": [],
      "stateMutability": "nonpayable",
      "type": "function"
    },
    {
      "inputs": [
        {
          "internalType": "bytes4",
          "name": "interfaceId",
          "type": "bytes4"
        }
      ],
      "name": "supportsInterface",
      "outputs": [
        {
          "internalType": "bool",
          "name": "",
          "type": "bool"
        }
      ],
      "stateMutability": "view",
      "type": "function"
    },
    {
      "inputs": [],
      "name": "symbol",
      "outputs": [
        {
          "internalType": "string",
          "name": "",
          "type": "string"
        }
      ],
      "stateMutability": "view",
      "type": "function"
    },
    {
      "inputs": [],
      "name": "totalSupply",
      "outputs": [
        {
          "internalType": "uint256",
          "name": "",
          "type": "uint256"
        }
      ],
      "stateMutability": "view",
      "type": "function"
    },
    {
      "inputs": [
        {
          "internalType": "address",
          "name": "to",
          "type": "address"
        },
        {
          "internalType": "uint256",
          "name": "amount",
          "type": "uint256"
        }
      ],
      "name": "transfer",
      "outputs": [
        {
          "internalType": "bool",
          "name": "",
          "type": "bool"
        }
      ],
      "stateMutability": "nonpayable",
      "type": "function"
    },
    {
      "inputs": [
        {
          "internalType": "address",
          "name": "from",
          "type": "address"
        },
        {
          "internalType": "address",
          "name": "to",
          "type": "address"
        },
        {
          "internalType": "uint256",
          "name": "amount",
          "type": "uint256"
        }
      ],
      "name": "transferFrom",
      "outputs": [
        {
          "internalType": "bool",
          "name": "",
          "type": "bool"
        }
      ],
      "stateMutability": "nonpayable",
      "type": "function"
    }
  ],
  "bytecode": "0x604060a08152346200041e57620017e090813803806200001f8162000423565b93843982016060838203126200041e5782516001600160401b03908181116200041e57826200005091860162000449565b90602092838601518281116200041e5785916200006f91880162000449565b9501519060ff821682036200041e578251908082116200031e5760038054926001958685811c9516801562000413575b88861014620003fd578190601f95868111620003a7575b508890868311600114620003405760009262000334575b505060001982841b1c191690861b1781555b87519182116200031e5760049283548681811c9116801562000313575b88821014620002fe57818111620002b3575b50869083116001146200024657829394959697986000936200023a575b505082861b92600019911b1c19161790555b60805260008052600582528260002033600052825260ff83600020541615620001fd575b7f9f2df0fed2c77648de5860a4cc508cd0818c85b8b8a1ab4ceeef8d981c8956a69182600052600581528360002033600052815260ff84600020541615620001bc575b83516113049081620004bc82396080518161085c0152f35b826000526005815283600020903360005252826000209060ff1982541617905533903390600080516020620017c0833981519152600080a4388080620001a4565b600080526005825282600020336000528252826000208160ff1982541617905533336000600080516020620017c08339815191528180a462000161565b0151915038806200012b565b90601f1983169184600052876000209260005b8181106200029d5750998488999a9b989697981062000282575b50505050811b0190556200013d565b01519060f884600019921b161c191690553880808062000273565b8b83015185559388019391890191890162000259565b84600052876000208280860160051c8201928a8710620002f4575b0160051c019087905b828110620002e75750506200010e565b60008155018790620002d7565b92508192620002ce565b602285634e487b7160e01b6000525260246000fd5b90607f1690620000fc565b634e487b7160e01b600052604160045260246000fd5b015190503880620000cd565b90889350601f19831691856000528a6000209260005b8c82821062000390575050841162000377575b505050811b018155620000df565b015160001983861b60f8161c1916905538808062000369565b8385015186558c9790950194938401930162000356565b90915083600052886000208680850160051c8201928b8610620003f3575b918a91869594930160051c01915b828110620003e3575050620000b6565b600081558594508a9101620003d3565b92508192620003c5565b634e487b7160e01b600052602260045260246000fd5b94607f16946200009f565b600080fd5b6040519190601f01601f191682016001600160401b038111838210176200031e57604052565b919080601f840112156200041e5782516001600160401b0381116200031e576020906200047f601f8201601f1916830162000423565b928184528282870101116200041e5760005b818110620004a757508260009394955001015290565b85810183015184820184015282016200049156fe608060408181526004918236101561001657600080fd5b600092833560e01c91826301ffc9a714610b625750816306fdde0314610a6b578163095ea7b314610a4157816318160ddd14610a2257816323b872dd14610958578163248a9ca31461092d5781632f2ff15d14610880578163313ce5671461084257816336568abe146107b0578163395093511461076057816340c10f191461062257816370a08231146105eb57816391d14854146105a457816395d89b411461049f5781639dc29fac146102c9578163a217fddf146102ae578163a457c2d714610206578163a9059cbb146101d5578163d53913931461019a578163d547741f14610157575063dd62ed3e1461010c57600080fd5b3461015357806003193601126101535780602092610128610c04565b610130610c1f565b6001600160a01b0391821683526001865283832091168252845220549051908152f35b5080fd5b91905034610196578060031936011261019657610193913561018e600161017c610c1f565b93838752600560205286200154610f00565b611231565b80f35b8280fd5b505034610153578160031936011261015357602090517f9f2df0fed2c77648de5860a4cc508cd0818c85b8b8a1ab4ceeef8d981c8956a68152f35b5050346101535780600319360112610153576020906101ff6101f5610c04565b6024359033610d92565b5160018152f35b905082346102ab57826003193601126102ab57610221610c04565b918360243592338152600160205281812060018060a01b038616825260205220549082821061025a576020856101ff8585038733610c90565b608490602086519162461bcd60e51b8352820152602560248201527f45524332303a2064656372656173656420616c6c6f77616e63652062656c6f77604482015264207a65726f60d81b6064820152fd5b80fd5b50503461015357816003193601126101535751908152602090f35b839150346101535782600319360112610153576102e4610c04565b6024357f9f2df0fed2c77648de5860a4cc508cd0818c85b8b8a1ab4ceeef8d981c8956a6845260209160058352858520338652835260ff8686205416801561048d575b1561042c576001600160a01b03169283156103df5783855284835285852054908282106103915750908495817fddf252ad1be2c89b69c2b068fc378daa952ba7f163c4a11628f55a4df523b3ef94938688528785520381872055816002540360025551908152a380f35b865162461bcd60e51b8152908101849052602260248201527f45524332303a206275726e20616d6f756e7420657863656564732062616c616e604482015261636560f01b6064820152608490fd5b855162461bcd60e51b8152908101839052602160248201527f45524332303a206275726e2066726f6d20746865207a65726f206164647265736044820152607360f81b6064820152608490fd5b855162461bcd60e51b8152808501849052603560248201527f4d6f636b555344433a204d7573742068617665206d696e74657220726f6c652060448201527437b9103132903a3432903a37b5b2b71037bbb732b960591b6064820152608490fd5b506001600160a01b0381163314610327565b83833461015357816003193601126101535780519180938054916001908360011c926001851694851561059a575b602095868610811461058757858952908115610563575060011461050b575b61050787876104fd828c0383610c35565b5191829182610bd8565b0390f35b81529295507f8a35acfbc15ff81a39ae7d344fd709f28e8600b4aa8c65c6b64bfe7fe36bd19b5b8284106105505750505082610507946104fd928201019486806104ec565b8054868501880152928601928101610532565b60ff19168887015250505050151560051b83010192506104fd8261050786806104ec565b634e487b7160e01b845260228352602484fd5b93607f16936104cd565b9050346101965781600319360112610196578160209360ff926105c5610c1f565b90358252600586528282206001600160a01b039091168252855220549151911615158152f35b5050346101535760203660031901126101535760209181906001600160a01b03610613610c04565b16815280845220549051908152f35b9190503461019657806003193601126101965761063d610c04565b90602435907f9f2df0fed2c77648de5860a4cc508cd0818c85b8b8a1ab4ceeef8d981c8956a6855260209260058452818620338752845260ff82872054161561071d576001600160a01b03169384156106dc5750918185936106c27fddf252ad1be2c89b69c2b068fc378daa952ba7f163c4a11628f55a4df523b3ef94600254610c6d565b60025585855284835280852082815401905551908152a380f35b83606492519162461bcd60e51b8352820152601f60248201527f45524332303a206d696e7420746f20746865207a65726f2061646472657373006044820152fd5b815162461bcd60e51b8152808601859052601f60248201527f4d6f636b555344433a204d7573742068617665206d696e74657220726f6c65006044820152606490fd5b5050346101535780600319360112610153576101ff6020926107a9610783610c04565b338352600186528483206001600160a01b03821684528652918490205460243590610c6d565b9033610c90565b839150346101535782600319360112610153576107cb610c1f565b90336001600160a01b038316036107e757906101939135611231565b608490602085519162461bcd60e51b8352820152602f60248201527f416363657373436f6e74726f6c3a2063616e206f6e6c792072656e6f756e636560448201526e103937b632b9903337b91039b2b63360891b6064820152fd5b5050346101535781600319360112610153576020905160ff7f0000000000000000000000000000000000000000000000000000000000000000168152f35b905034610196578160031936011261019657359061089c610c1f565b9082845260056020526108b460018286200154610f00565b828452600560209081528185206001600160a01b039093168086529290528084205460ff16156108e2578380f35b82845260056020528084208285526020528320600160ff1982541617905533917f2f8788117e7eff1d82e926ec794901d17c78024a50270940304540a733656f0d8480a43880808380f35b9050346101965760203660031901126101965781602093600192358152600585522001549051908152f35b8391503461015357606036600319011261015357610974610c04565b61097c610c1f565b91846044359460018060a01b0384168152600160205281812033825260205220549060001982036109b6575b6020866101ff878787610d92565b8482106109df57509183916109d4602096956101ff95033383610c90565b9193948193506109a8565b606490602087519162461bcd60e51b8352820152601d60248201527f45524332303a20696e73756666696369656e7420616c6c6f77616e63650000006044820152fd5b5050346101535781600319360112610153576020906002549051908152f35b5050346101535780600319360112610153576020906101ff610a61610c04565b6024359033610c90565b9190503461019657826003193601126101965780519183600354906001908260011c92600181168015610b58575b6020958686108214610b455750848852908115610b235750600114610aca575b61050786866104fd828b0383610c35565b929550600383527fc2575a0e9e593c00f959f8c92f12db2869c3395a3b0502d05e2516446f71f85b5b828410610b105750505082610507946104fd928201019438610ab9565b8054868501880152928601928101610af3565b60ff191687860152505050151560051b83010192506104fd8261050738610ab9565b634e487b7160e01b845260229052602483fd5b93607f1693610a99565b849134610196576020366003190112610196573563ffffffff60e01b81168091036101965760209250637965db0b60e01b8114908115610ba4575b5015158152f35b6301ffc9a760e01b14905083610b9d565b60005b838110610bc85750506000910152565b8181015183820152602001610bb8565b60409160208252610bf88151809281602086015260208686019101610bb5565b601f01601f1916010190565b600435906001600160a01b0382168203610c1a57565b600080fd5b602435906001600160a01b0382168203610c1a57565b90601f8019910116810190811067ffffffffffffffff821117610c5757604052565b634e487b7160e01b600052604160045260246000fd5b91908201809211610c7a57565b634e487b7160e01b600052601160045260246000fd5b6001600160a01b03908116918215610d415716918215610cf15760207f8c5be1e5ebec7d5bd14f71427d1e84f3dd0314c0f7b2291e5b200ac8c7c3b925918360005260018252604060002085600052825280604060002055604051908152a3565b60405162461bcd60e51b815260206004820152602260248201527f45524332303a20617070726f766520746f20746865207a65726f206164647265604482015261737360f01b6064820152608490fd5b60405162461bcd60e51b8152602060048201526024808201527f45524332303a20617070726f76652066726f6d20746865207a65726f206164646044820152637265737360e01b6064820152608490fd5b6001600160a01b03908116918215610ead5716918215610e5c57600082815280602052604081205491808310610e0857604082827fddf252ad1be2c89b69c2b068fc378daa952ba7f163c4a11628f55a4df523b3ef958760209652828652038282205586815220818154019055604051908152a3565b60405162461bcd60e51b815260206004820152602660248201527f45524332303a207472616e7366657220616d6f756e7420657863656564732062604482015265616c616e636560d01b6064820152608490fd5b60405162461bcd60e51b815260206004820152602360248201527f45524332303a207472616e7366657220746f20746865207a65726f206164647260448201526265737360e81b6064820152608490fd5b60405162461bcd60e51b815260206004820152602560248201527f45524332303a207472616e736665722066726f6d20746865207a65726f206164604482015264647265737360d81b6064820152608490fd5b600081815260209060058252604092838220338352835260ff848320541615610f295750505050565b835167ffffffffffffffff919033606082018481118382101761121d578752602a825285820192873685378251156112095760308453825191600192600110156111f5576078602185015360295b83811161118b575061114957908751946080860190868210908211176111355788526042855286850195606036883785511561112157603087538551600110156111215790607860218701536041915b8183116110b357505050611071579385936110579361104860489461101f7f416363657373436f6e74726f6c3a206163636f756e74200000000000000000009961106d9b519a8b978801525180926037880190610bb5565b8401917001034b99036b4b9b9b4b733903937b6329607d1b603784015251809386840190610bb5565b01036028810185520183610c35565b5162461bcd60e51b815291829160048301610bd8565b0390fd5b60648587519062461bcd60e51b825280600483015260248201527f537472696e67733a20686578206c656e67746820696e73756666696369656e746044820152fd5b909192600f8116601081101561110d576f181899199a1a9b1b9c1cb0b131b232b360811b901a6110e385896112a7565b5360041c9280156110f957600019019190610fc7565b634e487b7160e01b82526011600452602482fd5b634e487b7160e01b83526032600452602483fd5b634e487b7160e01b81526032600452602490fd5b634e487b7160e01b87526041600452602487fd5b60648789519062461bcd60e51b825280600483015260248201527f537472696e67733a20686578206c656e67746820696e73756666696369656e746044820152fd5b90600f811660108110156111e1576f181899199a1a9b1b9c1cb0b131b232b360811b901a6111b983876112a7565b5360041c9080156111cd5760001901610f77565b634e487b7160e01b88526011600452602488fd5b634e487b7160e01b89526032600452602489fd5b634e487b7160e01b87526032600452602487fd5b634e487b7160e01b86526032600452602486fd5b634e487b7160e01b86526041600452602486fd5b906000918083526005602052604083209160018060a01b03169182845260205260ff60408420541661126257505050565b8083526005602052604083208284526020526040832060ff1981541690557ff6391f5c32d9c69d2a47ea670b442974b53935d1edc7fd64eb21e047a839171b339380a4565b9081518110156112b8570160200190565b634e487b7160e01b600052603260045260246000fdfea26469706673582212206a9974b6c0a247c320fbc4c8513ae37d342a53359a3f8187cb627f6f92f8e20f64736f6c634300081800332f8788117e7eff1d82e926ec794901d17c78024a50270940304540a733656f0d",
  "linkReferences": {},
  "deployedLinkReferences": {}
}