{
  "_format": "hh-sol-artifact-1",
  "contractName": "MorphoAdapter",
  "sourceName": "contracts/morpho/MorphoAdapter.sol",
  "abi": [
    {
      "inputs": [],
      "stateMutability": "nonpayable",
      "type": "constructor"
    },
    {
      "anonymous": false,
      "inputs": [
        {
          "indexed": true,
          "internalType": "uint256",
          "name": "loanId",
          "type": "uint256"
        },
        {
          "indexed": true,
          "internalType": "address",
          "name": "token",
          "type": "address"
        },
        {
          "indexed": false,
          "internalType": "uint256",
          "name": "tokenId",
          "type": "uint256"
        },
        {
          "indexed": false,
          "internalType": "uint256",
          "name": "value",
          "type": "uint256"
        }
      ],
      "name": "CollateralDeposited",
      "type": "event"
    },
    {
      "anonymous": false,
      "inputs": [
        {
          "indexed": true,
          "internalType": "uint256",
          "name": "loanId",
          "type": "uint256"
        },
        {
          "indexed": true,
          "internalType": "address",
          "name": "token",
          "type": "address"
        },
        {
          "indexed": false,
          "internalType": "uint256",
          "name": "tokenId",
          "type": "uint256"
        },
        {
          "indexed": false,
          "internalType": "address",
          "name": "recipient",
          "type": "address"
        }
      ],
      "name": "CollateralReleased",
      "type": "event"
    },
    {
      "anonymous": false,
      "inputs": [
        {
          "indexed": false,
          "internalType": "address",
          "name": "account",
          "type": "address"
        }
      ],
      "name": "ContractPaused",
      "type": "event"
    },
    {
      "anonymous": false,
      "inputs": [
        {
          "indexed": false,
          "internalType": "address",
          "name": "account",
          "type": "address"
        }
      ],
      "name": "ContractUnpaused",
      "type": "event"
    },
    {
      "anonymous": false,
      "inputs": [
        {
          "indexed": false,
          "internalType": "uint8",
          "name": "version",
          "type": "uint8"
        }
      ],
      "name": "Initialized",
      "type": "event"
    },
    {
      "anonymous": false,
      "inputs": [
        {
          "indexed": true,
          "internalType": "address",
          "name": "oldOriginator",
          "type": "address"
        },
        {
          "indexed": true,
          "internalType": "address",
          "name": "newOriginator",
          "type": "address"
        }
      ],
      "name": "LoanOriginatorUpdated",
      "type": "event"
    },
    {
      "anonymous": false,
      "inputs": [
        {
          "indexed": true,
          "internalType": "uint256",
          "name": "loanId",
          "type": "uint256"
        },
        {
          "indexed": true,
          "internalType": "address",
          "name": "borrower",
          "type": "address"
        },
        {
          "indexed": true,
          "internalType": "address",
          "name": "token",
          "type": "address"
        },
        {
          "indexed": false,
          "internalType": "uint256",
          "name": "amount",
          "type": "uint256"
        }
      ],
      "name": "LoanRepaid",
      "type": "event"
    },
    {
      "anonymous": false,
      "inputs": [
        {
          "indexed": false,
          "internalType": "address",
          "name": "account",
          "type": "address"
        }
      ],
      "name": "Paused",
      "type": "event"
    },
    {
      "anonymous": false,
      "inputs": [
        {
          "indexed": true,
          "internalType": "bytes32",
          "name": "role",
          "type": "bytes32"
        },
        {
          "indexed": true,
          "internalType": "bytes32",
          "name": "previousAdminRole",
          "type": "bytes32"
        },
        {
          "indexed": true,
          "internalType": "bytes32",
          "name": "newAdminRole",
          "type": "bytes32"
        }
      ],
      "name": "RoleAdminChanged",
      "type": "event"
    },
    {
      "anonymous": false,
      "inputs": [
        {
          "indexed": true,
          "internalType": "bytes32",
          "name": "role",
          "type": "bytes32"
        },
        {
          "indexed": true,
          "internalType": "address",
          "name": "account",
          "type": "address"
        },
        {
          "indexed": true,
          "internalType": "address",
          "name": "sender",
          "type": "address"
        }
      ],
      "name": "RoleGranted",
      "type": "event"
    },
    {
      "anonymous": false,
      "inputs": [
        {
          "indexed": true,
          "internalType": "bytes32",
          "name": "role",
          "type": "bytes32"
        },
        {
          "indexed": true,
          "internalType": "address",
          "name": "account",
          "type": "address"
        },
        {
          "indexed": true,
          "internalType": "address",
          "name": "sender",
          "type": "address"
        }
      ],
      "name": "RoleRevoked",
      "type": "event"
    },
    {
      "anonymous": false,
      "inputs": [
        {
          "indexed": true,
          "internalType": "address",
          "name": "oldRegistry",
          "type": "address"
        },
        {
          "indexed": true,
          "internalType": "address",
          "name": "newRegistry",
          "type": "address"
        }
      ],
      "name": "TokenRegistryUpdated",
      "type": "event"
    },
    {
      "anonymous": false,
      "inputs": [
        {
          "indexed": true,
          "internalType": "uint256",
          "name": "loanId",
          "type": "uint256"
        },
        {
          "indexed": true,
          "internalType": "address",
          "name": "borrower",
          "type": "address"
        },
        {
          "indexed": true,
          "internalType": "address",
          "name": "token",
          "type": "address"
        },
        {
          "indexed": false,
          "internalType": "uint256",
          "name": "amount",
          "type": "uint256"
        }
      ],
      "name": "TokensBorrowed",
      "type": "event"
    },
    {
      "anonymous": false,
      "inputs": [
        {
          "indexed": false,
          "internalType": "address",
          "name": "account",
          "type": "address"
        }
      ],
      "name": "Unpaused",
      "type": "event"
    },
    {
      "inputs": [],
      "name": "ADMIN_ROLE",
      "outputs": [
        {
          "internalType": "bytes32",
          "name": "",
          "type": "bytes32"
        }
      ],
      "stateMutability": "view",
      "type": "function"
    },
    {
      "inputs": [],
      "name": "DEFAULT_ADMIN_ROLE",
      "outputs": [
        {
          "internalType": "bytes32",
          "name": "",
          "type": "bytes32"
        }
      ],
      "stateMutability": "view",
      "type": "function"
    },
    {
      "inputs": [],
      "name": "LOAN_ORIGINATOR_ROLE",
      "outputs": [
        {
          "internalType": "bytes32",
          "name": "",
          "type": "bytes32"
        }
      ],
      "stateMutability": "view",
      "type": "function"
    },
    {
      "inputs": [],
      "name": "PAUSER_ROLE",
      "outputs": [
        {
          "internalType": "bytes32",
          "name": "",
          "type": "bytes32"
        }
      ],
      "stateMutability": "view",
      "type": "function"
    },
    {
      "inputs": [
        {
          "internalType": "uint256",
          "name": "loanId",
          "type": "uint256"
        },
        {
          "internalType": "address",
          "name": "token",
          "type": "address"
        },
        {
          "internalType": "uint256",
          "name": "amount",
          "type": "uint256"
        },
        {
          "internalType": "address",
          "name": "recipient",
          "type": "address"
        }
      ],
      "name": "borrowToken",
      "outputs": [
        {
          "internalType": "bool",
          "name": "",
          "type": "bool"
        }
      ],
      "stateMutability": "nonpayable",
      "type": "function"
    },
    {
      "inputs": [
        {
          "internalType": "uint256",
          "name": "loanId",
          "type": "uint256"
        },
        {
          "internalType": "address",
          "name": "token",
          "type": "address"
        },
        {
          "internalType": "uint256",
          "name": "tokenId",
          "type": "uint256"
        }
      ],
      "name": "depositCollateral",
      "outputs": [
        {
          "internalType": "bool",
          "name": "",
          "type": "bool"
        }
      ],
      "stateMutability": "nonpayable",
      "type": "function"
    },
    {
      "inputs": [
        {
          "internalType": "uint256",
          "name": "loanId",
          "type": "uint256"
        }
      ],
      "name": "getCollateralInfo",
      "outputs": [
        {
          "internalType": "address",
          "name": "token",
          "type": "address"
        },
        {
          "internalType": "uint256",
          "name": "tokenId",
          "type": "uint256"
        },
        {
          "internalType": "uint256",
          "name": "valuationAmount",
          "type": "uint256"
        },
        {
          "internalType": "bool",
          "name": "isDeposited",
          "type": "bool"
        }
      ],
      "stateMutability": "view",
      "type": "function"
    },
    {
      "inputs": [
        {
          "internalType": "uint256",
          "name": "loanId",
          "type": "uint256"
        }
      ],
      "name": "getLoanStatus",
      "outputs": [
        {
          "internalType": "uint256",
          "name": "borrowed",
          "type": "uint256"
        },
        {
          "internalType": "uint256",
          "name": "repaid",
          "type": "uint256"
        },
        {
          "internalType": "uint256",
          "name": "outstanding",
          "type": "uint256"
        }
      ],
      "stateMutability": "view",
      "type": "function"
    },
    {
      "inputs": [
        {
          "internalType": "bytes32",
          "name": "role",
          "type": "bytes32"
        }
      ],
      "name": "getRoleAdmin",
      "outputs": [
        {
          "internalType": "bytes32",
          "name": "",
          "type": "bytes32"
        }
      ],
      "stateMutability": "view",
      "type": "function"
    },
    {
      "inputs": [
        {
          "internalType": "bytes32",
          "name": "role",
          "type": "bytes32"
        },
        {
          "internalType": "address",
          "name": "account",
          "type": "address"
        }
      ],
      "name": "grantRole",
      "outputs": [],
      "stateMutability": "nonpayable",
      "type": "function"
    },
    {
      "inputs": [
        {
          "internalType": "bytes32",
          "name": "role",
          "type": "bytes32"
        },
        {
          "internalType": "address",
          "name": "account",
          "type": "address"
        }
      ],
      "name": "hasRole",
      "outputs": [
        {
          "internalType": "bool",
          "name": "",
          "type": "bool"
        }
      ],
      "stateMutability": "view",
      "type": "function"
    },
    {
      "inputs": [
        {
          "internalType": "address",
          "name": "_loanOrigination",
          "type": "address"
        },
        {
          "internalType": "address",
          "name": "_tokenRegistry",
          "type": "address"
        }
      ],
      "name": "initialize",
      "outputs": [],
      "stateMutability": "nonpayable",
      "type": "function"
    },
    {
      "inputs": [
        {
          "internalType": "uint256",
          "name": "loanId",
          "type": "uint256"
        },
        {
          "internalType": "address",
          "name": "token",
          "type": "address"
        }
      ],
      "name": "liquidateLoan",
      "outputs": [
        {
          "internalType": "uint256",
          "name": "",
          "type": "uint256"
        }
      ],
      "stateMutability": "nonpayable",
      "type": "function"
    },
    {
      "inputs": [],
      "name": "loanOrigination",
      "outputs": [
        {
          "internalType": "address",
          "name": "",
          "type": "address"
        }
      ],
      "stateMutability": "view",
      "type": "function"
    },
    {
      "inputs": [],
      "name": "pause",
      "outputs": [],
      "stateMutability": "nonpayable",
      "type": "function"
    },
    {
      "inputs": [],
      "name": "paused",
      "outputs": [
        {
          "internalType": "bool",
          "name": "",
          "type": "bool"
        }
      ],
      "stateMutability": "view",
      "type": "function"
    },
    {
      "inputs": [
        {
          "internalType": "uint256",
          "name": "loanId",
          "type": "uint256"
        },
        {
          "internalType": "address",
          "name": "recipient",
          "type": "address"
        }
      ],
      "name": "releaseCollateral",
      "outputs": [
        {
          "internalType": "bool",
          "name": "",
          "type": "bool"
        }
      ],
      "stateMutability": "nonpayable",
      "type": "function"
    },
    {
      "inputs": [
        {
          "internalType": "bytes32",
          "name": "role",
          "type": "bytes32"
        },
        {
          "internalType": "address",
          "name": "account",
          "type": "address"
        }
      ],
      "name": "renounceRole",
      "outputs": [],
      "stateMutability": "nonpayable",
      "type": "function"
    },
    {
      "inputs": [
        {
          "internalType": "uint256",
          "name": "loanId",
          "type": "uint256"
        },
        {
          "internalType": "address",
          "name": "token",
          "type": "address"
        },
        {
          "internalType": "uint256",
          "name": "amount",
          "type": "uint256"
        }
      ],
      "name": "repayLoan",
      "outputs": [
        {
          "internalType": "bool",
          "name": "",
          "type": "bool"
        }
      ],
      "stateMutability": "nonpayable",
      "type": "function"
    },
    {
      "inputs": [
        {
          "internalType": "bytes32",
          "name": "role",
          "type": "bytes32"
        },
        {
          "internalType": "address",
          "name": "account",
          "type": "address"
        }
      ],
      "name": "revokeRole",
      "outputs": [],
      "stateMutability": "nonpayable",
      "type": "function"
    },
    {
      "inputs": [
        {
          "internalType": "bytes4",
          "name": "interfaceId",
          "type": "bytes4"
        }
      ],
      "name": "supportsInterface",
      "outputs": [
        {
          "internalType": "bool",
          "name": "",
          "type": "bool"
        }
      ],
      "stateMutability": "view",
      "type": "function"
    },
    {
      "inputs": [],
      "name": "tokenRegistry",
      "outputs": [
        {
          "internalType": "address",
          "name": "",
          "type": "address"
        }
      ],
      "stateMutability": "view",
      "type": "function"
    },
    {
      "inputs": [],
      "name": "unpause",
      "outputs": [],
      "stateMutability": "nonpayable",
      "type": "function"
    },
    {
      "inputs": [
        {
          "internalType": "address",
          "name": "newOriginator",
          "type": "address"
        }
      ],
      "name": "updateLoanOriginator",
      "outputs": [],
      "stateMutability": "nonpayable",
      "type": "function"
    },
    {
      "inputs": [
        {
          "internalType": "address",
          "name": "newRegistry",
          "type": "address"
        }
      ],
      "name": "updateTokenRegistry",
      "outputs": [],
      "stateMutability": "nonpayable",
      "type": "function"
    }
  ],
  "bytecode": "0x608080604052346100c1576000549060ff8260081c1661006f575060ff80821603610034575b6040516122ab90816100c78239f35b60ff90811916176000557f7f26b83ff96e1f2b6a682f133852f6798a09c465da95921460cefb3847402498602060405160ff8152a138610025565b62461bcd60e51b815260206004820152602760248201527f496e697469616c697a61626c653a20636f6e747261637420697320696e697469604482015266616c697a696e6760c81b6064820152608490fd5b600080fdfe6080604081815260048036101561001557600080fd5b600092833560e01c90816301ffc9a71461170f57508063048951ee146116e65780631c4fd41c1461168d5780631fa915a414611599578063248a9ca31461156f5780632f2ff15d146114d55780633375216b1461135657806336568abe146112c45780633f4ba83a14611207578063485cc95514610e7c578063532c6b3714610c8b5780635c975abb14610c6757806361358a02146109a157806375b238fc1461097857806379b2e89f146108365780638456cb591461077b57806391d1485414610736578063934b5d13146106b45780639d23c4c71461068b578063a217fddf14610670578063c4573b1214610647578063cc91ccad146104bf578063d547741f14610481578063e63ab1e9146104465763ebea51b41461013657600080fd5b34610442576101443661178f565b9060018060a01b0380918160fb54163314801561040f575b61016590611834565b61016d611f8f565b169361017a851515611899565b83875260209660fd885260ff60038883200154166103b8578260fb54169187518093632820036560e11b825287838301528160246101809687935afa9384156103ae57839461037f575b50506101d78785606086015116146119b9565b84888401510361033e57863b1561033a5787516323b872dd60e01b81523391810191825230602083015260408201869052908290829081906060010381838b5af180156103305786938995938b938a93610309575b50926003889693837f04790cfcf9b2380d7da5dc6b3f484cf36e54c176ad3f9755ad0b02c00096cf5c9a888b6102f29960fd8360806101409e9b019d8e51970151169883519761027b89611a2f565b8852808801958652838801968752606088019b60018d52608089019a8b52835252209351166001600160601b0360a01b845416178355516001830155516002820155019251151560ff801985541691161783555116815490610100600160a81b039060081b1690610100600160a81b031916179055565b51825191825287820152a360016097555160018152f35b91955093955083925061031c9150611a05565b61032d57918786869389953861022c565b80fd5b88513d84823e3d90fd5b5080fd5b60649089808a519262461bcd60e51b845283015260248201527f4d6f7270686f416461707465723a20546f6b656e204944206d69736d617463686044820152fd5b61039f929450803d106103a7575b6103978183611a67565b810190611a9d565b9138806101c4565b503d61038d565b89513d85823e3d90fd5b865162461bcd60e51b8152808301899052602b60248201527f4d6f7270686f416461707465723a20436f6c6c61746572616c20616c7265616460448201526a1e4819195c1bdcda5d195960aa1b6064820152608490fd5b50600080516020612236833981519152885260656020528688203360005260205261016560ff886000205416905061015c565b8280fd5b50503461033a578160031936011261033a57602090517f65d7a28e3265b37a6474929f336521b332c1681b933f6cb9f3376673440d862a8152f35b5090346104425780600319360112610442576104bc91356104b760016104a5611779565b93838752606560205286200154611df5565b611fe5565b80f35b50903461044257602080600319360112610643576104db611763565b9060008051602061225683398151915285526065815282852033600052815261050a60ff8460002054166117dc565b6001600160a01b038281169490939085156105e957509061057592918560fb54958616956001600160601b0360a01b161760fb556000805160206122368339815191529182600052606581528160002086600052815260ff82600020541661059c575b505050611f02565b7fe412f0d29e955b8dc15d031ebdc6a8b662ee209f6f2b49d8ac5bd55fb1235bc58380a380f35b82600052606581528160002090866000525260002060ff1981541690558333917ff6391f5c32d9c69d2a47ea670b442974b53935d1edc7fd64eb21e047a839171b600080a438808061056d565b82608492519162461bcd60e51b8352820152603060248201527f4d6f7270686f416461707465723a204f726967696e61746f722063616e6e6f7460448201526f206265207a65726f206164647265737360801b6064820152fd5b8380fd5b50503461033a578160031936011261033a5760fb5490516001600160a01b039091168152602090f35b50503461033a578160031936011261033a5751908152602090f35b50503461033a578160031936011261033a5760fc5490516001600160a01b039091168152602090f35b503461044257602036600319011261044257608092829135815260fd60205220908051916106e183611a2f565b60018060a01b03918282541693848152600183015490816020820152866003600286015495868685015201549560ff871615159687606085015260081c16910152815194855260208501528301526060820152f35b503461044257816003193601126104425781602093610753611779565b9235815260658552209060018060a01b0316600052825260ff81600020541690519015158152f35b5034610442578260031936011261044257610794611bc2565b60c9549060ff821661080057507f81990fd9a5c552b8e3677917d8a03c07678f0d2cb68f88b634aca2022e9bd19f91600160209260ff19161760c9557f62e78cea01bee320cd4e420270b5ea74000d11b0c9f74754ebdbfc544b05a258828251338152a151338152a180f35b606490602084519162461bcd60e51b8352820152601060248201526f14185d5cd8589b194e881c185d5cd95960821b6044820152fd5b5082903461033a578260031936011261033a573591610853611779565b60fb5490936001600160a01b0391821633148015610945575b61087590611834565b61087d611f8f565b8084526108c28260209660fd885261089d60ff6003888a2001541661195d565b166108a9811515611899565b82865260fd8752836003868820015460081c16146119b9565b80845260fe85527f6fb935e1ccdc21579031230193158d5fe5fefe10c88db5c35b946bea9ad339d26109376001856109058189205460ff8b52828a2054906117b9565b85895260fd8a52972060038101805460ff19169055805491015486519081523060208201529416939081906040820190565b0390a3600160975551908152f35b50600080516020612236833981519152845260656020528284203360005260205261087560ff846000205416905061086c565b50503461033a578160031936011261033a57602090516000805160206122568339815191528152f35b5034610442576080366003190112610442578035926109be611779565b936001600160a01b0360643581811693604435929091859003610c62578060fb541633148015610c2f575b6109f290611834565b6109fa611f8f565b610a05851515611b5e565b871694610a13861515611899565b610a1e8315156118f9565b838252610a6f60209860fd8a52610a3d60ff60038b872001541661195d565b85845260fd8a528884206003018054610100600160a81b03191660089290921b610100600160a81b0316919091179055565b86516370a0823160e01b8152308282015288816024818a5afa908115610b9f579084918491610bfe575b5010610ba957865163a9059cbb60e01b815285828201528360248201528881604481868b5af1908115610b9f578391610b69575b5015610b155750817f8f2dacb85b5dd26632e23d68e08740fb7802f735bb79b3392f9404e1e7f43d22928783868b955260fe855220558651908152a460016097555160018152f35b865162461bcd60e51b8152908101889052602860248201527f4d6f7270686f416461707465723a204661696c656420746f207472616e7366656044820152677220746f6b656e7360c01b6064820152608490fd5b90508881813d8311610b98575b610b808183611a67565b81010312610442575180151581036104425738610acd565b503d610b76565b88513d85823e3d90fd5b865162461bcd60e51b8152908101889052602960248201527f4d6f7270686f416461707465723a20496e73756666696369656e7420746f6b656044820152686e2062616c616e636560b81b6064820152608490fd5b8092508a8092503d8311610c28575b610c178183611a67565b810103126104425783905138610a99565b503d610c0d565b5060008051602061223683398151915282526065602052868220336000526020526109f260ff88600020541690506109e9565b600080fd5b50503461033a578160031936011261033a5760209060ff60c9541690519015158152f35b50913461032d578160031936011261032d578235610ca7611779565b60fb546001600160a01b039390841633148015610e4f575b610cc890611834565b610cd0611f8f565b610cdd8483161515611b5e565b82815260209560fd8752610cf960ff600388852001541661195d565b83825260fe8752610d158683205460ff895287842054906117b9565b610e005783825260fd875285822060018682541691015491813b156106435787516323b872dd60e01b8152309181019182526001600160a01b038616602083015260408201939093528391839182908490829060600103925af18015610df6577f6fb935e1ccdc21579031230193158d5fe5fefe10c88db5c35b946bea9ad339d293926001928892610de7575b5085815260fd89522060038101805460ff19169055805491015486519081526001600160a01b039290921660208301529390931692604090a360016097555160018152f35b610df090611a05565b38610da2565b86513d84823e3d90fd5b855162461bcd60e51b81529081018790526024808201527f4d6f7270686f416461707465723a204c6f616e206e6f742066756c6c792072656044820152631c185a5960e21b6064820152608490fd5b5060008051602061223683398151915281526065602090815285822033835290528481205460ff16610cbf565b5034610442578160031936011261044257610e95611763565b90610e9e611779565b90845460ff90818160081c1615928380946111fb575b80156111e5575b1561118b5760019460ff19928587858316178b5561117a575b506001600160a01b0387811691821561111857169182156110b85750610f27848a5460081c16610f038161205b565b610f0c8161205b565b610f158161205b565b87609755610f228161205b565b61205b565b8260c9541660c9556001600160601b0360a01b908160fb54161760fb5560fc54161760fc558680526065610f9d602096828852888a20338b52885284898b20541615611085575b600080516020612256833981519152808b52838952898b20338c528952858a8c20541615611050575b50611f02565b7f65d7a28e3265b37a6474929f336521b332c1681b933f6cb9f3376673440d862a92838952818752878920338a52875287892054161561101a575b505050610fe3578380f35b7f7f26b83ff96e1f2b6a682f133852f6798a09c465da95921460cefb38474024989261ff0019855416855551908152a13880808380f35b828852855285872033885285528386882091825416179055339033906000805160206122168339815191528880a4388080610fd8565b808b52838952898b20338c528952898b208886825416179055339033906000805160206122168339815191528d80a438610f97565b898052828852888a20338b528852888a20878582541617905533338b6000805160206122168339815191528180a4610f6e565b60849060208a519162461bcd60e51b8352820152603460248201527f4d6f7270686f416461707465723a20546f6b656e2072656769737472792063616044820152736e6e6f74206265207a65726f206164647265737360601b6064820152fd5b895162461bcd60e51b8152602081860152603660248201527f4d6f7270686f416461707465723a204c6f616e206f726967696e6174696f6e2060448201527563616e6e6f74206265207a65726f206164647265737360501b6064820152608490fd5b61ffff191661010117895538610ed4565b608490602088519162461bcd60e51b8352820152602e60248201527f496e697469616c697a61626c653a20636f6e747261637420697320616c72656160448201526d191e481a5b9a5d1a585b1a5e995960921b6064820152fd5b50303b158015610ebb5750600183831614610ebb565b50600183831610610eb4565b5034610442578260031936011261044257611220611bc2565b60c9549060ff82161561128a57507f5b65b0c1363b3003db9bcc5e1fd8805a6d6bf5bf6dc9d3431ee4494cd7d117669160209160ff191660c9557f5db9ee0a495bf2e6ff9c91a7834c1ba4fdd244a5e8aa4e537bd38aeae4b073aa828251338152a151338152a180f35b606490602084519162461bcd60e51b8352820152601460248201527314185d5cd8589b194e881b9bdd081c185d5cd95960621b6044820152fd5b5082903461033a578260031936011261033a576112df611779565b90336001600160a01b038316036112fb57906104bc9135611fe5565b608490602085519162461bcd60e51b8352820152602f60248201527f416363657373436f6e74726f6c3a2063616e206f6e6c792072656e6f756e636560448201526e103937b632b9903337b91039b2b63360891b6064820152fd5b50913461032d576113663661178f565b919060018060a01b0380918160fb5416331480156114a8575b61138890611834565b611390611f8f565b169361139d851515611899565b6113a88415156118f9565b82815260209660fd88526113c460ff600389852001541661195d565b83825260fd88526113e1868460038a8620015460081c16146119b9565b83825260ff8852868220805490868201809211611495575560fb548751632820036560e11b81529182018590526101809081908390602490829088165afa92831561148a57927f710e531990ea39fba48230679094c845e457119cedc84798e6f0e1eb2422ac5994928a949285939261146d575b5050015116938651908152a460016097555160018152f35b6114839250803d106103a7576103978183611a67565b3880611455565b8851903d90823e3d90fd5b634e487b7160e01b845260118352602484fd5b5060008051602061223683398151915286526065602090815287872033885290528686205460ff1661137f565b503461044257816003193601126104425735906114f0611779565b90828452606560205261150860018286200154611df5565b828452606560209081528185206001600160a01b039093168086529290528084205460ff1615611536578380f35b82845260656020528084208285526020528320600160ff1982541617905533916000805160206122168339815191528480a43880808380f35b50346104425760203660031901126104425781602093600192358152606585522001549051908152f35b5034610442576020366003190112610442576115b3611763565b90600080516020612256833981519152845260656020528284203385526020526115e260ff84862054166117dc565b6001600160a01b0391821692831561163357505060fc54826001600160601b0360a01b82161760fc55167f0e1e01d3a1bc108c283427a72564fa03f7400b162008588a168ac82e403456e58380a380f35b906020608492519162461bcd60e51b8352820152602e60248201527f4d6f7270686f416461707465723a2052656769737472792063616e6e6f74206260448201526d65207a65726f206164647265737360901b6064820152fd5b5034610442576020366003190112610442579160609235815260fe602052818120549160ff60205280822054918284116000146116e057506116cf82846117b9565b915b81519384526020840152820152f35b916116d1565b50503461033a578160031936011261033a57602090516000805160206122368339815191528152f35b92505034610442576020366003190112610442573563ffffffff60e01b81168091036104425760209250637965db0b60e01b8114908115611752575b5015158152f35b6301ffc9a760e01b1490503861174b565b600435906001600160a01b0382168203610c6257565b602435906001600160a01b0382168203610c6257565b6060906003190112610c6257600435906024356001600160a01b0381168103610c62579060443590565b919082039182116117c657565b634e487b7160e01b600052601160045260246000fd5b156117e357565b60405162461bcd60e51b815260206004820152602360248201527f4d6f7270686f416461707465723a204d75737420686176652061646d696e20726044820152626f6c6560e81b6064820152608490fd5b1561183b57565b60405162461bcd60e51b815260206004820152603060248201527f4d6f7270686f416461707465723a2043616c6c6572206973206e6f742074686560448201526f103637b0b71037b934b3b4b730ba37b960811b6064820152608490fd5b156118a057565b60405162461bcd60e51b815260206004820152602b60248201527f4d6f7270686f416461707465723a20546f6b656e2063616e6e6f74206265207a60448201526a65726f206164647265737360a81b6064820152608490fd5b1561190057565b60405162461bcd60e51b815260206004820152602f60248201527f4d6f7270686f416461707465723a20416d6f756e74206d75737420626520677260448201526e6561746572207468616e207a65726f60881b6064820152608490fd5b1561196457565b60405162461bcd60e51b815260206004820152602760248201527f4d6f7270686f416461707465723a20436f6c6c61746572616c206e6f742064656044820152661c1bdcda5d195960ca1b6064820152608490fd5b156119c057565b60405162461bcd60e51b815260206004820152601d60248201527f4d6f7270686f416461707465723a20546f6b656e206d69736d617463680000006044820152606490fd5b67ffffffffffffffff8111611a1957604052565b634e487b7160e01b600052604160045260246000fd5b60a0810190811067ffffffffffffffff821117611a1957604052565b6080810190811067ffffffffffffffff821117611a1957604052565b90601f8019910116810190811067ffffffffffffffff821117611a1957604052565b51906001600160a01b0382168203610c6257565b80916101809283910312610c625760405191820182811067ffffffffffffffff821117611a195760405280518252611ad760208201611a89565b602083015260408101516040830152611af260608201611a89565b60608301526080810151608083015260a081015160a083015260c081015160c083015260e081015160e0830152610100808201519083015261012080820151906006821015610c6257830152610140611b4c818301611a89565b90830152610160809101519082015290565b15611b6557565b60405162461bcd60e51b815260206004820152602f60248201527f4d6f7270686f416461707465723a20526563697069656e742063616e6e6f742060448201526e6265207a65726f206164647265737360881b6064820152608490fd5b3360009081527fbfe93621c6aa2dbf737e9056c9b79e4d30ee4f6b28b18be2cb71aac8a7bf258e6020908152604080832054909291907f65d7a28e3265b37a6474929f336521b332c1681b933f6cb9f3376673440d862a9060ff1615611c285750505050565b611c3133612105565b90845190611c3e82611a4b565b60428252838201946060368737825115611de1576030865382519060019160011015611de15790607860218501536041915b818311611d7357505050611d315784611cff6048611d23936044979851988991611cf08984019876020b1b1b2b9b9a1b7b73a3937b61d1030b1b1b7bab73a1604d1b8a52611cc7815180928d6037890191016120bb565b8401917001034b99036b4b9b9b4b733903937b6329607d1b6037840152518093868401906120bb565b01036028810189520187611a67565b5194859362461bcd60e51b85526004850152518092816024860152858501906120bb565b601f01601f19168101030190fd5b60648386519062461bcd60e51b825280600483015260248201527f537472696e67733a20686578206c656e67746820696e73756666696369656e746044820152fd5b909192600f81166010811015611dcd576f181899199a1a9b1b9c1cb0b131b232b360811b901a611da385876120de565b5360041c928015611db957600019019190611c70565b634e487b7160e01b82526011600452602482fd5b634e487b7160e01b83526032600452602483fd5b634e487b7160e01b81526032600452602490fd5b6000818152602060658152604092838320338452825260ff848420541615611e1d5750505050565b611e2633612105565b90845190611e3382611a4b565b60428252838201946060368737825115611de1576030865382519060019160011015611de15790607860218501536041915b818311611ebc57505050611d315784611cff6048611d23936044979851988991611cf08984019876020b1b1b2b9b9a1b7b73a3937b61d1030b1b1b7bab73a1604d1b8a52611cc7815180928d6037890191016120bb565b909192600f81166010811015611dcd576f181899199a1a9b1b9c1cb0b131b232b360811b901a611eec85876120de565b5360041c928015611db957600019019190611e65565b6001600160a01b031660008181527f2a1e8ad68dfceca909cc2a5b19bf562e7d3c933c0187f9a12f779d39d9bb039960205260408120549091906000805160206122368339815191529060ff1615611f5957505050565b80835260656020526040832082845260205260408320600160ff19825416179055600080516020612216833981519152339380a4565b600260975414611fa0576002609755565b60405162461bcd60e51b815260206004820152601f60248201527f5265656e7472616e637947756172643a207265656e7472616e742063616c6c006044820152606490fd5b906000918083526065602052604083209160018060a01b03169182845260205260ff60408420541661201657505050565b8083526065602052604083208284526020526040832060ff1981541690557ff6391f5c32d9c69d2a47ea670b442974b53935d1edc7fd64eb21e047a839171b339380a4565b1561206257565b60405162461bcd60e51b815260206004820152602b60248201527f496e697469616c697a61626c653a20636f6e7472616374206973206e6f74206960448201526a6e697469616c697a696e6760a81b6064820152608490fd5b60005b8381106120ce5750506000910152565b81810151838201526020016120be565b9081518110156120ef570160200190565b634e487b7160e01b600052603260045260246000fd5b604051906060820182811067ffffffffffffffff821117611a1957604052602a82526020820160403682378251156120ef57603090538151600190600110156120ef57607860218401536029905b8082116121a75750506121635790565b606460405162461bcd60e51b815260206004820152602060248201527f537472696e67733a20686578206c656e67746820696e73756666696369656e746044820152fd5b9091600f81166010811015612200576f181899199a1a9b1b9c1cb0b131b232b360811b901a6121d684866120de565b5360041c9180156121eb576000190190612153565b60246000634e487b7160e01b81526011600452fd5b60246000634e487b7160e01b81526032600452fdfe2f8788117e7eff1d82e926ec794901d17c78024a50270940304540a733656f0d0dd17e9b1ccc36446c70e76aa560bec15f824562ff7ffaae92be6ceb2ffdac51a49807205ce4d355092ef5a8a18f56e8913cf4a201fbe287825b095693c21775a2646970667358221220855eda332ab074ed94c4d97bfbeaba0ef38ee7de4bd423696a47041f5ffea12d64736f6c63430008180033",
  "linkReferences": {},
  "deployedLinkReferences": {}
}