{
  "_format": "hh-sol-artifact-1",
  "contractName": "RiskEngine",
  "sourceName": "contracts/loan/RiskEngine.sol",
  "abi": [
    {
      "inputs": [],
      "stateMutability": "nonpayable",
      "type": "constructor"
    },
    {
      "anonymous": false,
      "inputs": [
        {
          "indexed": false,
          "internalType": "uint256",
          "name": "maxLtv",
          "type": "uint256"
        },
        {
          "indexed": false,
          "internalType": "uint256",
          "name": "minDuration",
          "type": "uint256"
        },
        {
          "indexed": false,
          "internalType": "uint256",
          "name": "maxDuration",
          "type": "uint256"
        }
      ],
      "name": "RiskParametersUpdated",
      "type": "event"
    },
    {
      "anonymous": false,
      "inputs": [
        {
          "indexed": true,
          "internalType": "bytes32",
          "name": "role",
          "type": "bytes32"
        },
        {
          "indexed": true,
          "internalType": "bytes32",
          "name": "previousAdminRole",
          "type": "bytes32"
        },
        {
          "indexed": true,
          "internalType": "bytes32",
          "name": "newAdminRole",
          "type": "bytes32"
        }
      ],
      "name": "RoleAdminChanged",
      "type": "event"
    },
    {
      "anonymous": false,
      "inputs": [
        {
          "indexed": true,
          "internalType": "bytes32",
          "name": "role",
          "type": "bytes32"
        },
        {
          "indexed": true,
          "internalType": "address",
          "name": "account",
          "type": "address"
        },
        {
          "indexed": true,
          "internalType": "address",
          "name": "sender",
          "type": "address"
        }
      ],
      "name": "RoleGranted",
      "type": "event"
    },
    {
      "anonymous": false,
      "inputs": [
        {
          "indexed": true,
          "internalType": "bytes32",
          "name": "role",
          "type": "bytes32"
        },
        {
          "indexed": true,
          "internalType": "address",
          "name": "account",
          "type": "address"
        },
        {
          "indexed": true,
          "internalType": "address",
          "name": "sender",
          "type": "address"
        }
      ],
      "name": "RoleRevoked",
      "type": "event"
    },
    {
      "inputs": [],
      "name": "DEFAULT_ADMIN_ROLE",
      "outputs": [
        {
          "internalType": "bytes32",
          "name": "",
          "type": "bytes32"
        }
      ],
      "stateMutability": "view",
      "type": "function"
    },
    {
      "inputs": [],
      "name": "DEFAULT_BASE_INTEREST_RATE",
      "outputs": [
        {
          "internalType": "uint256",
          "name": "",
          "type": "uint256"
        }
      ],
      "stateMutability": "view",
      "type": "function"
    },
    {
      "inputs": [],
      "name": "DEFAULT_LIQUIDATION_THRESHOLD",
      "outputs": [
        {
          "internalType": "uint256",
          "name": "",
          "type": "uint256"
        }
      ],
      "stateMutability": "view",
      "type": "function"
    },
    {
      "inputs": [],
      "name": "MAX_DURATION",
      "outputs": [
        {
          "internalType": "uint256",
          "name": "",
          "type": "uint256"
        }
      ],
      "stateMutability": "view",
      "type": "function"
    },
    {
      "inputs": [],
      "name": "MAX_LTV",
      "outputs": [
        {
          "internalType": "uint256",
          "name": "",
          "type": "uint256"
        }
      ],
      "stateMutability": "view",
      "type": "function"
    },
    {
      "inputs": [],
      "name": "MIN_DURATION",
      "outputs": [
        {
          "internalType": "uint256",
          "name": "",
          "type": "uint256"
        }
      ],
      "stateMutability": "view",
      "type": "function"
    },
    {
      "inputs": [],
      "name": "RISK_MANAGER_ROLE",
      "outputs": [
        {
          "internalType": "bytes32",
          "name": "",
          "type": "bytes32"
        }
      ],
      "stateMutability": "view",
      "type": "function"
    },
    {
      "inputs": [
        {
          "internalType": "address",
          "name": "",
          "type": "address"
        },
        {
          "internalType": "address",
          "name": "collateralToken",
          "type": "address"
        },
        {
          "internalType": "uint256",
          "name": "collateralTokenId",
          "type": "uint256"
        },
        {
          "internalType": "uint256",
          "name": "requestedAmount",
          "type": "uint256"
        },
        {
          "internalType": "uint256",
          "name": "duration",
          "type": "uint256"
        }
      ],
      "name": "assessRisk",
      "outputs": [
        {
          "components": [
            {
              "internalType": "bool",
              "name": "approved",
              "type": "bool"
            },
            {
              "internalType": "uint256",
              "name": "recommendedLTV",
              "type": "uint256"
            },
            {
              "internalType": "uint256",
              "name": "maxLoanAmount",
              "type": "uint256"
            },
            {
              "internalType": "uint256",
              "name": "interestRate",
              "type": "uint256"
            },
            {
              "internalType": "string",
              "name": "reason",
              "type": "string"
            }
          ],
          "internalType": "struct IRiskEngine.RiskAssessment",
          "name": "assessment",
          "type": "tuple"
        }
      ],
      "stateMutability": "view",
      "type": "function"
    },
    {
      "inputs": [
        {
          "internalType": "address",
          "name": "collateralToken",
          "type": "address"
        },
        {
          "internalType": "uint256",
          "name": "collateralTokenId",
          "type": "uint256"
        },
        {
          "internalType": "uint256",
          "name": "loanAmount",
          "type": "uint256"
        },
        {
          "internalType": "uint256",
          "name": "loanDuration",
          "type": "uint256"
        }
      ],
      "name": "evaluateRisk",
      "outputs": [
        {
          "internalType": "bool",
          "name": "",
          "type": "bool"
        }
      ],
      "stateMutability": "view",
      "type": "function"
    },
    {
      "inputs": [],
      "name": "getMaxDuration",
      "outputs": [
        {
          "internalType": "uint256",
          "name": "",
          "type": "uint256"
        }
      ],
      "stateMutability": "pure",
      "type": "function"
    },
    {
      "inputs": [],
      "name": "getMaxLTV",
      "outputs": [
        {
          "internalType": "uint256",
          "name": "",
          "type": "uint256"
        }
      ],
      "stateMutability": "pure",
      "type": "function"
    },
    {
      "inputs": [],
      "name": "getMinDuration",
      "outputs": [
        {
          "internalType": "uint256",
          "name": "",
          "type": "uint256"
        }
      ],
      "stateMutability": "pure",
      "type": "function"
    },
    {
      "inputs": [
        {
          "internalType": "address",
          "name": "collateralToken",
          "type": "address"
        }
      ],
      "name": "getRiskParameters",
      "outputs": [
        {
          "internalType": "uint256",
          "name": "maxLTV",
          "type": "uint256"
        },
        {
          "internalType": "uint256",
          "name": "liquidationThreshold",
          "type": "uint256"
        },
        {
          "internalType": "uint256",
          "name": "baseInterestRate",
          "type": "uint256"
        }
      ],
      "stateMutability": "view",
      "type": "function"
    },
    {
      "inputs": [
        {
          "internalType": "bytes32",
          "name": "role",
          "type": "bytes32"
        }
      ],
      "name": "getRoleAdmin",
      "outputs": [
        {
          "internalType": "bytes32",
          "name": "",
          "type": "bytes32"
        }
      ],
      "stateMutability": "view",
      "type": "function"
    },
    {
      "inputs": [
        {
          "internalType": "bytes32",
          "name": "role",
          "type": "bytes32"
        },
        {
          "internalType": "address",
          "name": "account",
          "type": "address"
        }
      ],
      "name": "grantRole",
      "outputs": [],
      "stateMutability": "nonpayable",
      "type": "function"
    },
    {
      "inputs": [
        {
          "internalType": "bytes32",
          "name": "role",
          "type": "bytes32"
        },
        {
          "internalType": "address",
          "name": "account",
          "type": "address"
        }
      ],
      "name": "hasRole",
      "outputs": [
        {
          "internalType": "bool",
          "name": "",
          "type": "bool"
        }
      ],
      "stateMutability": "view",
      "type": "function"
    },
    {
      "inputs": [],
      "name": "initialize",
      "outputs": [],
      "stateMutability": "nonpayable",
      "type": "function"
    },
    {
      "inputs": [
        {
          "internalType": "bytes32",
          "name": "role",
          "type": "bytes32"
        },
        {
          "internalType": "address",
          "name": "account",
          "type": "address"
        }
      ],
      "name": "renounceRole",
      "outputs": [],
      "stateMutability": "nonpayable",
      "type": "function"
    },
    {
      "inputs": [
        {
          "internalType": "bytes32",
          "name": "role",
          "type": "bytes32"
        },
        {
          "internalType": "address",
          "name": "account",
          "type": "address"
        }
      ],
      "name": "revokeRole",
      "outputs": [],
      "stateMutability": "nonpayable",
      "type": "function"
    },
    {
      "inputs": [
        {
          "internalType": "bytes4",
          "name": "interfaceId",
          "type": "bytes4"
        }
      ],
      "name": "supportsInterface",
      "outputs": [
        {
          "internalType": "bool",
          "name": "",
          "type": "bool"
        }
      ],
      "stateMutability": "view",
      "type": "function"
    },
    {
      "inputs": [
        {
          "internalType": "address",
          "name": "collateralToken",
          "type": "address"
        },
        {
          "internalType": "uint256",
          "name": "maxLTV",
          "type": "uint256"
        },
        {
          "internalType": "uint256",
          "name": "liquidationThreshold",
          "type": "uint256"
        },
        {
          "internalType": "uint256",
          "name": "baseInterestRate",
          "type": "uint256"
        }
      ],
      "name": "updateRiskParameters",
      "outputs": [],
      "stateMutability": "nonpayable",
      "type": "function"
    }
  ],
  "bytecode": "0x60806040818152346100e3576000808052602091818352808220338352835260ff8183205416156100ad575b7fb2e3ee861706f0756afea8a5257301f83561f9ac10b8f43b771dc928566f8c6192838352828152818320338452815260ff828420541615610074575b61150b85816100e98239f35b83835282815281832090338452528120600160ff1982541617905533916000805160206115f4833981519152339280a438808080610068565b8180528183528082203383528352808220600160ff198254161790553333836000805160206115f48339815191528180a461002b565b600080fdfe60806040908082526004908136101561001757600080fd5b600091823560e01c91826301ffc9a714610a0e5750816303023a1014610869578163034d501b146101f257816315a2bf9e1461030e5781631849a803146104c25781631e0bd216146104a5578163248a9ca31461047a5781632f2ff15d146103d057816336568abe1461033f5781638129fc1c1461032b57816381bf8d3d1461030e57816382f01c85146102cc57816391d1485414610285578163a217fddf1461026a578163a760280c1461022f578163b1724b4614610210578163b49a2db914610210578163b6a6d177146101f2578163c129d504146101d1578163d547741f1461018f575063dd0848aa1461010d57600080fd5b3461018c5760a036600319011261018c5750610127610a7c565b50610144610133610a61565b608435906064359060443590610db1565b9061018860808251938493602085528151151560208601526020820151818601528101516060850152606081015182850152015160a08084015260c0830190610ae3565b0390f35b80fd5b905082346101cd57806003193601126101cd576101ca91356101c560016101b4610a61565b9383875286602052862001546110da565b61128e565b80f35b8280fd5b8284346101ee57816003193601126101ee57602090516121348152f35b5080fd5b8284346101ee57816003193601126101ee5760209051620151808152f35b8284346101ee57816003193601126101ee57602090516301e133808152f35b8284346101ee57816003193601126101ee57602090517fb2e3ee861706f0756afea8a5257301f83561f9ac10b8f43b771dc928566f8c618152f35b8284346101ee57816003193601126101ee5751908152602090f35b839150346101cd57816003193601126101cd578160209360ff926102a7610a61565b903582528186528282206001600160a01b039091168252855220549151911615158152f35b8284346101ee5760203660031901126101ee576060906102f26102ed610a7c565b611302565b8051918060208301519201519181519384526020840152820152f35b8284346101ee57816003193601126101ee5760209051611b588152f35b823461018c578060031936011261018c5780f35b9050346101ee57826003193601126101ee57610359610a61565b90336001600160a01b0383160361037557906101ca913561128e565b608490602085519162461bcd60e51b8352820152602f60248201527f416363657373436f6e74726f6c3a2063616e206f6e6c792072656e6f756e636560448201526e103937b632b9903337b91039b2b63360891b6064820152fd5b839150346101cd57816003193601126101cd5735906103ed610a61565b9082845283602052610404600182862001546110da565b82845260208481528185206001600160a01b039093168086529290528084205460ff1615610430578380f35b828452836020528084208285526020528320600160ff1982541617905533917f2f8788117e7eff1d82e926ec794901d17c78024a50270940304540a733656f0d8480a48180808380f35b839150346101cd5760203660031901126101cd57816020936001923581528085522001549051908152f35b8284346101ee57816003193601126101ee57602090516101f48152f35b9050346101ee576104d236610a92565b91927fb2e3ee861706f0756afea8a5257301f83561f9ac10b8f43b771dc928566f8c6190818752602091878352888820338952835260ff89892054161561069f57506001600160a01b031694610529861515610b08565b84151580610693575b156106525784831180610646575b156105f35761138884116105a25750956001600395969782519561056387610c38565b86528086019384528286019485526060860197828952895252862092518355516001830155516002820155019051151560ff8019835416911617905580f35b60849188519162461bcd60e51b8352820152602760248201527f5269736b456e67696e653a204261736520696e746572657374207261746520746044820152660dede40d0d2ced60cb1b6064820152fd5b60849188519162461bcd60e51b8352820152602960248201527f5269736b456e67696e653a20496e76616c6964206c69717569646174696f6e206044820152681d1a1c995cda1bdb1960ba1b6064820152fd5b50612710831115610540565b60649188519162461bcd60e51b8352820152601a60248201527f5269736b456e67696e653a20496e76616c6964206d61784c54560000000000006044820152fd5b50611b58851115610532565b868984928a6106ad336113c5565b918351906106ba82610c38565b604282528682019260603685378251156108565760308453825190600191600110156108435790607860218501536041915b8183116107d85750505061079757604861076a93859361077993610793975196879376020b1b1b2b9b9a1b7b73a3937b61d1030b1b1b7bab73a1604d1b8c8601526107418c8251928391603789019101610ac0565b8401917001034b99036b4b9b9b4b733903937b6329607d1b603784015251809386840190610ac0565b01036028810185520183610ca2565b5193849362461bcd60e51b85528401526024830190610ae3565b0390fd5b606485878087519262461bcd60e51b845283015260248201527f537472696e67733a20686578206c656e67746820696e73756666696369656e746044820152fd5b909192600f81166010811015610830576f181899199a1a9b1b9c1cb0b131b232b360811b901a610808858761139e565b53881c92801561081d576000190191906106ec565b634e487b7160e01b825260118952602482fd5b634e487b7160e01b835260328a52602483fd5b634e487b7160e01b815260328852602490fd5b634e487b7160e01b815260328752602490fd5b9190503461018c5761087a36610a92565b6001600160a01b03909316939092909190610896851515610b08565b828415926108a48415610b54565b6108b362015180841015610ba0565b6108c36301e13380841115610bec565b6024895180988193630cc0380160e41b83528b8301525afa908115610a0457839584926109d4575b506108f69042610d5b565b101561097e5761271080840293840414171561096b5750611b589161091a91610d91565b11610929576020825160018152f35b6020606492519162461bcd60e51b8352820152601860248201527f5269736b456e67696e653a204c545620746f6f206869676800000000000000006044820152fd5b634e487b7160e01b815260118452602490fd5b855162461bcd60e51b8152602081870152602a60248201527f5269736b456e67696e653a20506f6c6963792065787069726573206265666f7260448201526919481b1bd85b88195b9960b21b6064820152608490fd5b6108f696506109f69192503d8086833e6109ee8183610ca2565b810190610cc4565b5097925090509591906108eb565b87513d85823e3d90fd5b9150346101cd5760203660031901126101cd573563ffffffff60e01b81168091036101cd5760209250637965db0b60e01b8114908115610a50575b5015158152f35b6301ffc9a760e01b14905083610a49565b602435906001600160a01b0382168203610a7757565b600080fd5b600435906001600160a01b0382168203610a7757565b6080906003190112610a77576004356001600160a01b0381168103610a775790602435906044359060643590565b60005b838110610ad35750506000910152565b8181015183820152602001610ac3565b90602091610afc81518092818552858086019101610ac0565b601f01601f1916010190565b15610b0f57565b60405162461bcd60e51b815260206004820152601860248201527f5269736b456e67696e653a205a65726f206164647265737300000000000000006044820152606490fd5b15610b5b57565b60405162461bcd60e51b815260206004820152601f60248201527f5269736b456e67696e653a20496e76616c6964206c6f616e20616d6f756e74006044820152606490fd5b15610ba757565b60405162461bcd60e51b815260206004820152601e60248201527f5269736b456e67696e653a204475726174696f6e20746f6f2073686f727400006044820152606490fd5b15610bf357565b60405162461bcd60e51b815260206004820152601d60248201527f5269736b456e67696e653a204475726174696f6e20746f6f206c6f6e670000006044820152606490fd5b6080810190811067ffffffffffffffff821117610c5457604052565b634e487b7160e01b600052604160045260246000fd5b60a0810190811067ffffffffffffffff821117610c5457604052565b6040810190811067ffffffffffffffff821117610c5457604052565b90601f8019910116810190811067ffffffffffffffff821117610c5457604052565b9060a082820312610a7757815167ffffffffffffffff90818111610a775783019082601f83011215610a77578151908111610c545760405192610d11601f8301601f191660200185610ca2565b81845260208284010111610a7757610d2f9160208085019101610ac0565b60208201519092906001600160a01b0381168103610a7757916040810151916080606083015192015190565b91908201809211610d6857565b634e487b7160e01b600052601160045260246000fd5b81810292918115918404141715610d6857565b8115610d9b570490565b634e487b7160e01b600052601260045260246000fd5b9392906040906080825193610dc585610c6a565b60009788865260209589878201528986820152606093818b8680940152015260018060a01b03811690610df9821515610b08565b89881595610e078715610b54565b610e1662015180861015610ba0565b610e266301e13380861115610bec565b6024885180958193630cc0380160e41b835260048301525afa80156110d0578a928b916110ac575b50610e598442610d5b565b101561104b57610e6890611302565b966127109485610e798a5185610d7e565b0495868311610fb357808302928304141715610f9f578591610e9a91610d91565b960151906064870287810460641488151715610f9f5791610eff610f04926064610edd611b586c131bd85b88185c1c1c9bdd9959609a1b9b9c9d9e970485610d7e565b049062093a808111610f5157506064610ef8600a5b85610d7e565b0492610d5b565b610d5b565b610bb8915081811115610f495750915b835196610f2088610c6a565b6001885286880152838701528501525191610f3a83610c86565b600d8352820152608082015290565b905091610f14565b62278d008111610f6857506064610ef86019610ef2565b6276a7008111610f7f57506064610ef86032610ef2565b62ed4e0010610f94576064610ef8604b610ef2565b6064610ef881610ef2565b634e487b7160e01b8a52601160045260248afd5b505050505093959094959291925194835195610fce87610c6a565b8287528387015283860152808486015282519384019084821067ffffffffffffffff83111761103757508252602483527f52657175657374656420616d6f756e742065786365656473206d6178696d756d908301526310262a2b60e11b90820152608082015290565b634e487b7160e01b81526041600452602490fd5b505050949590507f506f6c6963792065787069726573206265666f7265206c6f616e20656e64000092935081519461108286610c6a565b81865281858701528183870152850152519161109d83610c86565b601e8352820152608082015290565b90506110c39192503d808c833e6109ee8183610ca2565b5093925090509138610e4e565b86513d8c823e3d90fd5b600090808252602090828252604092838120338252835260ff8482205416156111035750505050565b61110c336113c5565b9184519061111982610c38565b6042825284820192606036853782511561127a57603084538251906001916001101561127a5790607860218501536041915b81831161120c575050506111ca5760486107939386936111ae9361119f985198899376020b1b1b2b9b9a1b7b73a3937b61d1030b1b1b7bab73a1604d1b8a860152610741815180928c603789019101610ac0565b01036028810187520185610ca2565b5192839262461bcd60e51b845260048401526024830190610ae3565b60648486519062461bcd60e51b825280600483015260248201527f537472696e67733a20686578206c656e67746820696e73756666696369656e746044820152fd5b909192600f81166010811015611266576f181899199a1a9b1b9c1cb0b131b232b360811b901a61123c858761139e565b5360041c9280156112525760001901919061114b565b634e487b7160e01b82526011600452602482fd5b634e487b7160e01b83526032600452602483fd5b634e487b7160e01b81526032600452602490fd5b9060009180835282602052604083209160018060a01b03169182845260205260ff6040842054166112be57505050565b80835282602052604083208284526020526040832060ff1981541690557ff6391f5c32d9c69d2a47ea670b442974b53935d1edc7fd64eb21e047a839171b339380a4565b6060604091825161131281610c38565b60009281848093528260208201528286820152015260018060a01b03168152600160205281812060ff6003820154168061136f5750506101f482519261135784610c38565b611b5884526121346020850152830152606082015290565b915091600281519361138085610c38565b80548552600181015460208601520154908301521515606082015290565b9081518110156113af570160200190565b634e487b7160e01b600052603260045260246000fd5b604051906060820182811067ffffffffffffffff821117610c5457604052602a82526020820160403682378251156113af57603090538151600190600110156113af57607860218401536029905b8082116114675750506114235790565b606460405162461bcd60e51b815260206004820152602060248201527f537472696e67733a20686578206c656e67746820696e73756666696369656e746044820152fd5b9091600f811660108110156114c0576f181899199a1a9b1b9c1cb0b131b232b360811b901a611496848661139e565b5360041c9180156114ab576000190190611413565b60246000634e487b7160e01b81526011600452fd5b60246000634e487b7160e01b81526032600452fdfea2646970667358221220ebb40fa0f993909fb0f3f59dd27951a22c8e913b4d94721b2ff2addfa0ea31b164736f6c634300081800332f8788117e7eff1d82e926ec794901d17c78024a50270940304540a733656f0d",
  "linkReferences": {},
  "deployedLinkReferences": {}
}