{
  "_format": "hh-sol-artifact-1",
  "contractName": "TokenizedPolicy",
  "sourceName": "contracts/tokenization/TokenizedPolicy.sol",
  "abi": [
    {
      "inputs": [
        {
          "internalType": "string",
          "name": "name",
          "type": "string"
        },
        {
          "internalType": "string",
          "name": "symbol",
          "type": "string"
        }
      ],
      "stateMutability": "nonpayable",
      "type": "constructor"
    },
    {
      "anonymous": false,
      "inputs": [
        {
          "indexed": true,
          "internalType": "address",
          "name": "owner",
          "type": "address"
        },
        {
          "indexed": true,
          "internalType": "address",
          "name": "approved",
          "type": "address"
        },
        {
          "indexed": true,
          "internalType": "uint256",
          "name": "tokenId",
          "type": "uint256"
        }
      ],
      "name": "Approval",
      "type": "event"
    },
    {
      "anonymous": false,
      "inputs": [
        {
          "indexed": true,
          "internalType": "address",
          "name": "owner",
          "type": "address"
        },
        {
          "indexed": true,
          "internalType": "address",
          "name": "operator",
          "type": "address"
        },
        {
          "indexed": false,
          "internalType": "bool",
          "name": "approved",
          "type": "bool"
        }
      ],
      "name": "ApprovalForAll",
      "type": "event"
    },
    {
      "anonymous": false,
      "inputs": [
        {
          "indexed": true,
          "internalType": "uint256",
          "name": "tokenId",
          "type": "uint256"
        },
        {
          "indexed": true,
          "internalType": "address",
          "name": "recipient",
          "type": "address"
        },
        {
          "indexed": false,
          "internalType": "string",
          "name": "policyNumber",
          "type": "string"
        },
        {
          "indexed": false,
          "internalType": "address",
          "name": "issuer",
          "type": "address"
        },
        {
          "indexed": false,
          "internalType": "uint256",
          "name": "valuationAmount",
          "type": "uint256"
        },
        {
          "indexed": false,
          "internalType": "uint256",
          "name": "expiryDate",
          "type": "uint256"
        }
      ],
      "name": "PolicyMinted",
      "type": "event"
    },
    {
      "anonymous": false,
      "inputs": [
        {
          "indexed": true,
          "internalType": "address",
          "name": "oracle",
          "type": "address"
        },
        {
          "indexed": false,
          "internalType": "bool",
          "name": "useOracle",
          "type": "bool"
        }
      ],
      "name": "PolicyOracleSet",
      "type": "event"
    },
    {
      "anonymous": false,
      "inputs": [
        {
          "indexed": true,
          "internalType": "uint256",
          "name": "tokenId",
          "type": "uint256"
        },
        {
          "indexed": false,
          "internalType": "uint256",
          "name": "newValuation",
          "type": "uint256"
        }
      ],
      "name": "PolicyValuationUpdated",
      "type": "event"
    },
    {
      "anonymous": false,
      "inputs": [
        {
          "indexed": true,
          "internalType": "bytes32",
          "name": "role",
          "type": "bytes32"
        },
        {
          "indexed": true,
          "internalType": "bytes32",
          "name": "previousAdminRole",
          "type": "bytes32"
        },
        {
          "indexed": true,
          "internalType": "bytes32",
          "name": "newAdminRole",
          "type": "bytes32"
        }
      ],
      "name": "RoleAdminChanged",
      "type": "event"
    },
    {
      "anonymous": false,
      "inputs": [
        {
          "indexed": true,
          "internalType": "bytes32",
          "name": "role",
          "type": "bytes32"
        },
        {
          "indexed": true,
          "internalType": "address",
          "name": "account",
          "type": "address"
        },
        {
          "indexed": true,
          "internalType": "address",
          "name": "sender",
          "type": "address"
        }
      ],
      "name": "RoleGranted",
      "type": "event"
    },
    {
      "anonymous": false,
      "inputs": [
        {
          "indexed": true,
          "internalType": "bytes32",
          "name": "role",
          "type": "bytes32"
        },
        {
          "indexed": true,
          "internalType": "address",
          "name": "account",
          "type": "address"
        },
        {
          "indexed": true,
          "internalType": "address",
          "name": "sender",
          "type": "address"
        }
      ],
      "name": "RoleRevoked",
      "type": "event"
    },
    {
      "anonymous": false,
      "inputs": [
        {
          "indexed": true,
          "internalType": "address",
          "name": "from",
          "type": "address"
        },
        {
          "indexed": true,
          "internalType": "address",
          "name": "to",
          "type": "address"
        },
        {
          "indexed": true,
          "internalType": "uint256",
          "name": "tokenId",
          "type": "uint256"
        }
      ],
      "name": "Transfer",
      "type": "event"
    },
    {
      "inputs": [],
      "name": "DEFAULT_ADMIN_ROLE",
      "outputs": [
        {
          "internalType": "bytes32",
          "name": "",
          "type": "bytes32"
        }
      ],
      "stateMutability": "view",
      "type": "function"
    },
    {
      "inputs": [],
      "name": "MINTER_ROLE",
      "outputs": [
        {
          "internalType": "bytes32",
          "name": "",
          "type": "bytes32"
        }
      ],
      "stateMutability": "view",
      "type": "function"
    },
    {
      "inputs": [],
      "name": "ORACLE_ROLE",
      "outputs": [
        {
          "internalType": "bytes32",
          "name": "",
          "type": "bytes32"
        }
      ],
      "stateMutability": "view",
      "type": "function"
    },
    {
      "inputs": [
        {
          "internalType": "address",
          "name": "to",
          "type": "address"
        },
        {
          "internalType": "uint256",
          "name": "tokenId",
          "type": "uint256"
        }
      ],
      "name": "approve",
      "outputs": [],
      "stateMutability": "nonpayable",
      "type": "function"
    },
    {
      "inputs": [
        {
          "internalType": "address",
          "name": "owner",
          "type": "address"
        }
      ],
      "name": "balanceOf",
      "outputs": [
        {
          "internalType": "uint256",
          "name": "",
          "type": "uint256"
        }
      ],
      "stateMutability": "view",
      "type": "function"
    },
    {
      "inputs": [
        {
          "internalType": "uint256",
          "name": "tokenId",
          "type": "uint256"
        }
      ],
      "name": "getApproved",
      "outputs": [
        {
          "internalType": "address",
          "name": "",
          "type": "address"
        }
      ],
      "stateMutability": "view",
      "type": "function"
    },
    {
      "inputs": [
        {
          "internalType": "uint256",
          "name": "tokenId",
          "type": "uint256"
        }
      ],
      "name": "getPolicyDetails",
      "outputs": [
        {
          "internalType": "string",
          "name": "policyNumber",
          "type": "string"
        },
        {
          "internalType": "address",
          "name": "issuer",
          "type": "address"
        },
        {
          "internalType": "uint256",
          "name": "valuationAmount",
          "type": "uint256"
        },
        {
          "internalType": "uint256",
          "name": "expiryDate",
          "type": "uint256"
        },
        {
          "internalType": "bytes32",
          "name": "documentHash",
          "type": "bytes32"
        }
      ],
      "stateMutability": "view",
      "type": "function"
    },
    {
      "inputs": [
        {
          "internalType": "bytes32",
          "name": "role",
          "type": "bytes32"
        }
      ],
      "name": "getRoleAdmin",
      "outputs": [
        {
          "internalType": "bytes32",
          "name": "",
          "type": "bytes32"
        }
      ],
      "stateMutability": "view",
      "type": "function"
    },
    {
      "inputs": [
        {
          "internalType": "uint256",
          "name": "tokenId",
          "type": "uint256"
        }
      ],
      "name": "getValuation",
      "outputs": [
        {
          "internalType": "uint256",
          "name": "",
          "type": "uint256"
        }
      ],
      "stateMutability": "view",
      "type": "function"
    },
    {
      "inputs": [
        {
          "internalType": "bytes32",
          "name": "role",
          "type": "bytes32"
        },
        {
          "internalType": "address",
          "name": "account",
          "type": "address"
        }
      ],
      "name": "grantRole",
      "outputs": [],
      "stateMutability": "nonpayable",
      "type": "function"
    },
    {
      "inputs": [
        {
          "internalType": "bytes32",
          "name": "role",
          "type": "bytes32"
        },
        {
          "internalType": "address",
          "name": "account",
          "type": "address"
        }
      ],
      "name": "hasRole",
      "outputs": [
        {
          "internalType": "bool",
          "name": "",
          "type": "bool"
        }
      ],
      "stateMutability": "view",
      "type": "function"
    },
    {
      "inputs": [
        {
          "internalType": "string",
          "name": "",
          "type": "string"
        },
        {
          "internalType": "string",
          "name": "",
          "type": "string"
        }
      ],
      "name": "initialize",
      "outputs": [],
      "stateMutability": "pure",
      "type": "function"
    },
    {
      "inputs": [
        {
          "internalType": "address",
          "name": "owner",
          "type": "address"
        },
        {
          "internalType": "address",
          "name": "operator",
          "type": "address"
        }
      ],
      "name": "isApprovedForAll",
      "outputs": [
        {
          "internalType": "bool",
          "name": "",
          "type": "bool"
        }
      ],
      "stateMutability": "view",
      "type": "function"
    },
    {
      "inputs": [],
      "name": "isOracleAvailable",
      "outputs": [
        {
          "internalType": "bool",
          "name": "",
          "type": "bool"
        }
      ],
      "stateMutability": "view",
      "type": "function"
    },
    {
      "inputs": [
        {
          "internalType": "address",
          "name": "to",
          "type": "address"
        },
        {
          "internalType": "string",
          "name": "policyNumber",
          "type": "string"
        },
        {
          "internalType": "address",
          "name": "issuer",
          "type": "address"
        },
        {
          "internalType": "uint256",
          "name": "valuationAmount",
          "type": "uint256"
        },
        {
          "internalType": "uint256",
          "name": "expiryDate",
          "type": "uint256"
        },
        {
          "internalType": "bytes32",
          "name": "documentHash",
          "type": "bytes32"
        }
      ],
      "name": "mintPolicy",
      "outputs": [
        {
          "internalType": "uint256",
          "name": "",
          "type": "uint256"
        }
      ],
      "stateMutability": "nonpayable",
      "type": "function"
    },
    {
      "inputs": [],
      "name": "name",
      "outputs": [
        {
          "internalType": "string",
          "name": "",
          "type": "string"
        }
      ],
      "stateMutability": "view",
      "type": "function"
    },
    {
      "inputs": [
        {
          "internalType": "uint256",
          "name": "tokenId",
          "type": "uint256"
        }
      ],
      "name": "ownerOf",
      "outputs": [
        {
          "internalType": "address",
          "name": "",
          "type": "address"
        }
      ],
      "stateMutability": "view",
      "type": "function"
    },
    {
      "inputs": [],
      "name": "policyOracle",
      "outputs": [
        {
          "internalType": "contract IPolicyOracle",
          "name": "",
          "type": "address"
        }
      ],
      "stateMutability": "view",
      "type": "function"
    },
    {
      "inputs": [
        {
          "internalType": "bytes32",
          "name": "role",
          "type": "bytes32"
        },
        {
          "internalType": "address",
          "name": "account",
          "type": "address"
        }
      ],
      "name": "renounceRole",
      "outputs": [],
      "stateMutability": "nonpayable",
      "type": "function"
    },
    {
      "inputs": [
        {
          "internalType": "bytes32",
          "name": "role",
          "type": "bytes32"
        },
        {
          "internalType": "address",
          "name": "account",
          "type": "address"
        }
      ],
      "name": "revokeRole",
      "outputs": [],
      "stateMutability": "nonpayable",
      "type": "function"
    },
    {
      "inputs": [
        {
          "internalType": "address",
          "name": "from",
          "type": "address"
        },
        {
          "internalType": "address",
          "name": "to",
          "type": "address"
        },
        {
          "internalType": "uint256",
          "name": "tokenId",
          "type": "uint256"
        }
      ],
      "name": "safeTransferFrom",
      "outputs": [],
      "stateMutability": "nonpayable",
      "type": "function"
    },
    {
      "inputs": [
        {
          "internalType": "address",
          "name": "from",
          "type": "address"
        },
        {
          "internalType": "address",
          "name": "to",
          "type": "address"
        },
        {
          "internalType": "uint256",
          "name": "tokenId",
          "type": "uint256"
        },
        {
          "internalType": "bytes",
          "name": "data",
          "type": "bytes"
        }
      ],
      "name": "safeTransferFrom",
      "outputs": [],
      "stateMutability": "nonpayable",
      "type": "function"
    },
    {
      "inputs": [
        {
          "internalType": "address",
          "name": "operator",
          "type": "address"
        },
        {
          "internalType": "bool",
          "name": "approved",
          "type": "bool"
        }
      ],
      "name": "setApprovalForAll",
      "outputs": [],
      "stateMutability": "nonpayable",
      "type": "function"
    },
    {
      "inputs": [
        {
          "internalType": "address",
          "name": "oracle",
          "type": "address"
        }
      ],
      "name": "setPolicyOracle",
      "outputs": [],
      "stateMutability": "nonpayable",
      "type": "function"
    },
    {
      "inputs": [
        {
          "internalType": "bytes4",
          "name": "interfaceId",
          "type": "bytes4"
        }
      ],
      "name": "supportsInterface",
      "outputs": [
        {
          "internalType": "bool",
          "name": "",
          "type": "bool"
        }
      ],
      "stateMutability": "view",
      "type": "function"
    },
    {
      "inputs": [],
      "name": "symbol",
      "outputs": [
        {
          "internalType": "string",
          "name": "",
          "type": "string"
        }
      ],
      "stateMutability": "view",
      "type": "function"
    },
    {
      "inputs": [
        {
          "internalType": "uint256",
          "name": "tokenId",
          "type": "uint256"
        }
      ],
      "name": "tokenURI",
      "outputs": [
        {
          "internalType": "string",
          "name": "",
          "type": "string"
        }
      ],
      "stateMutability": "view",
      "type": "function"
    },
    {
      "inputs": [
        {
          "internalType": "address",
          "name": "from",
          "type": "address"
        },
        {
          "internalType": "address",
          "name": "to",
          "type": "address"
        },
        {
          "internalType": "uint256",
          "name": "tokenId",
          "type": "uint256"
        }
      ],
      "name": "transferFrom",
      "outputs": [],
      "stateMutability": "nonpayable",
      "type": "function"
    },
    {
      "inputs": [
        {
          "internalType": "uint256",
          "name": "tokenId",
          "type": "uint256"
        },
        {
          "internalType": "uint256",
          "name": "newValuation",
          "type": "uint256"
        }
      ],
      "name": "updateValuation",
      "outputs": [],
      "stateMutability": "nonpayable",
      "type": "function"
    },
    {
      "inputs": [],
      "name": "useOracle",
      "outputs": [
        {
          "internalType": "bool",
          "name": "",
          "type": "bool"
        }
      ],
      "stateMutability": "view",
      "type": "function"
    }
  ],
  "bytecode": "0x604060808152346200046e57620027ee90813803806200001f8162000473565b938439820181838203126200046e5782516001600160401b03908181116200046e57826200004f91860162000499565b93602092838201518381116200046e576200006b920162000499565b9380519180831162000458576000928354906001938483811c931680156200044d575b8784101462000439578190601f93848111620003e6575b5087908483116001146200038257879262000376575b5050600019600383901b1c191690841b1784555b8651918211620003625782548381811c9116801562000357575b868210146200034357818111620002fb575b5084908211600114620002985783949596829394926200028c575b5050600019600383901b1c191690821b1781555b818052600692838152848320338452815260ff85842054161562000255575b7f9f2df0fed2c77648de5860a4cc508cd0818c85b8b8a1ab4ceeef8d981c8956a6808452848252858420338552825260ff8685205416156200021c575b507f68e79a7bf1e0bc45d0a330c573bc367f9cf464fd326078812f301165fbda4ef193848452808252858420338552825260ff868520541615620001e1575b6007805460ff60a01b1916905585516122c290816200050c8239f35b848452815284832090338452528382209060ff198254161790553391600080516020620027ce833981519152339280a43880808080620001c5565b80845284825285842033855282528584208360ff1982541617905533903390600080516020620027ce8339815191528680a43862000186565b82805283815284832033845281528483208260ff19825416179055333384600080516020620027ce8339815191528180a462000149565b01519050388062000116565b82845284842090601f198316855b818110620002e557509783859697989910620002cb575b505050811b0181556200012a565b015160001960f88460031b161c19169055388080620002bd565b89830151845592850192918701918701620002a6565b8385528585208280850160051c82019288861062000339575b0160051c019084905b8281106200032d575050620000fb565b8681550184906200031d565b9250819262000314565b634e487b7160e01b85526022600452602485fd5b90607f1690620000e9565b634e487b7160e01b84526041600452602484fd5b015190503880620000bb565b8780528888208794509190601f198416895b8b828210620003cf5750508411620003b5575b505050811b018455620000cf565b015160001960f88460031b161c19169055388080620003a7565b8385015186558a9790950194938401930162000394565b9091508680528787208480850160051c8201928a86106200042f575b918891869594930160051c01915b82811062000420575050620000a5565b89815585945088910162000410565b9250819262000402565b634e487b7160e01b86526022600452602486fd5b92607f16926200008e565b634e487b7160e01b600052604160045260246000fd5b600080fd5b6040519190601f01601f191682016001600160401b038111838210176200045857604052565b919080601f840112156200046e5782516001600160401b0381116200045857602090620004cf601f8201601f1916830162000473565b928184528282870101116200046e5760005b818110620004f757508260009394955001015290565b8581018301518482018401528201620004e156fe608080604052600436101561001357600080fd5b60003560e01c90816301ffc9a7146115715750806306fdde03146114c657806307e2cea51461148b578063081812fc1461146d578063095ea7b3146112f357806321754a96146112b157806323b872dd14611288578063248a9ca3146112595780632e8e553e14610c425780632f2ff15d14610b8f57806336568abe14610afd5780633bd18a3b14610aab57806342842e0e14610a835780634487872414610a5d5780634cd88b76146109c05780636352211e146109905780636dc0fc6b1461091057806370a082311461087957806391d148541461082c57806395d89b4114610749578063a217fddf1461072d578063a22cb4651461065b578063b88d4fde146105fb578063c87b56dd1461058a578063cc038010146104a6578063d53913931461046b578063d547741f1461042a578063d69776ca146101ed578063e985e9c5146101975763f40a70921461016957600080fd5b34610192576000366003190112610192576007546040516001600160a01b039091168152602090f35b600080fd5b34610192576040366003190112610192576101b061163e565b6101b8611654565b9060018060a01b03809116600052600560205260406000209116600052602052602060ff604060002054166040519015158152f35b34610192576020806003193601126101925761020761163e565b6000805260068252604060002033600052825260ff6040600020541615610281576001600160a01b0316907ffb3eb88462dfbcd774694fdebc819613f0f42879e67e21d5d2d1d23bde4a70729061025f831515611905565b600780546001600160a81b0319168417600160a01b17905560405160018152a2005b5061028b3361217c565b90600060405161029a816116d7565b60428152828101916060368437815115610414576030835381516001906001101561041457607860218401536041905b8082116103ba57505061037757610343936103529260489260405196879376020b1b1b2b9b9a1b7b73a3937b61d1030b1b1b7bab73a1604d1b8886015261031a815180928a6037890191016115f6565b8401917001034b99036b4b9b9b4b733903937b6329607d1b6037840152518093868401906115f6565b010360288101855201836116f3565b61037360405192839262461bcd60e51b845260048401526024830190611619565b0390fd5b6064836040519062461bcd60e51b825280600483015260248201527f537472696e67733a20686578206c656e67746820696e73756666696369656e746044820152fd5b9091600f81166010811015610414576f181899199a1a9b1b9c1cb0b131b232b360811b901a6103e9848661216b565b5360041c9180156103fe5760001901906102ca565b634e487b7160e01b600052601160045260246000fd5b634e487b7160e01b600052603260045260246000fd5b3461019257604036600319011261019257610469600435610449611654565b90806000526006602052610464600160406000200154611e27565b611f7f565b005b346101925760003660031901126101925760206040517f9f2df0fed2c77648de5860a4cc508cd0818c85b8b8a1ab4ceeef8d981c8956a68152f35b34610192576020366003190112610192576004356000818152600260205260409020546104dd906001600160a01b03161515611951565b600052600860205261057160406000206040516104f98161169f565b610502826117c0565b815260018060a01b0390816001840154169260208201938452600281015492604083019384526003820154926060810193845261054d600560048501549460808401958652016117c0565b60a0820152519451169251915190519160405195869560a0875260a0870190611619565b9360208601526040850152606084015260808301520390f35b34610192576020366003190112610192576004356000908152600260205260409020546105c1906001600160a01b031615156119a7565b60006040516105cf816116bb565b526105f76040516105df816116bb565b60008152604051918291602083526020830190611619565b0390f35b346101925760803660031901126101925761061461163e565b61061c611654565b6064359167ffffffffffffffff8311610192573660238401121561019257610651610469933690602481600401359101611731565b9160443591611a16565b346101925760403660031901126101925761067461163e565b60243590811515809203610192576001600160a01b0316903382146106e857336000526005602052604060002082600052602052604060002060ff1981541660ff83161790556040519081527f17307eab39ab6107e8899845ad3d59bd9653f200f220920489ca2b5937696c3160203392a3005b60405162461bcd60e51b815260206004820152601960248201527f4552433732313a20617070726f766520746f2063616c6c6572000000000000006044820152606490fd5b3461019257600036600319011261019257602060405160008152f35b346101925760003660031901126101925760405160006001826001549261076f84611786565b928383526020948560018216918260001461080c5750506001146107af575b5061079b925003836116f3565b6105f7604051928284938452830190611619565b84915060016000527fb10e2d527612073b26eecdfd717e6a320cf44b4afac2b0732d9fcbe2b7fa0cf6906000915b8583106107f457505061079b93508201018561078e565b805483890185015287945086939092019181016107dd565b60ff19168582015261079b95151560051b850101925087915061078e9050565b3461019257604036600319011261019257610845611654565b600435600052600660205260406000209060018060a01b0316600052602052602060ff604060002054166040519015158152f35b34610192576020366003190112610192576001600160a01b0361089a61163e565b1680156108b95760005260036020526020604060002054604051908152f35b60405162461bcd60e51b815260206004820152602960248201527f4552433732313a2061646472657373207a65726f206973206e6f7420612076616044820152683634b21037bbb732b960b91b6064820152608490fd5b34610192576040366003190112610192576004357ff924952e54be63d0c09ba1c8161e54b1679e6524f572c94a21fe5efcdfd308556020602435610952611c38565b600084815260026020526040902054610975906001600160a01b03161515611951565b836000526008825280600260406000200155604051908152a2005b346101925760203660031901126101925760206109ae6004356119f3565b6040516001600160a01b039091168152f35b346101925760403660031901126101925767ffffffffffffffff600435818111610192576109f2903690600401611768565b5060243590811161019257610a0b903690600401611768565b5060405162461bcd60e51b8152602060048201526024808201527f546f6b656e697a6564506f6c6963793a20616c726561647920696e697469616c6044820152631a5e995960e21b6064820152608490fd5b3461019257600036600319011261019257602060ff60075460a01c166040519015158152f35b3461019257610469610a943661166a565b9060405192610aa2846116bb565b60008452611a16565b3461019257602036600319011261019257600435600081815260026020526040902054610ae2906001600160a01b03161515611951565b60005260086020526020600260406000200154604051908152f35b3461019257604036600319011261019257610b16611654565b336001600160a01b03821603610b325761046990600435611f7f565b60405162461bcd60e51b815260206004820152602f60248201527f416363657373436f6e74726f6c3a2063616e206f6e6c792072656e6f756e636560448201526e103937b632b9903337b91039b2b63360891b6064820152608490fd5b3461019257604036600319011261019257600435610bab611654565b816000526006602052610bc5600160406000200154611e27565b81600052600660205260406000209060018060a01b0316908160005260205260ff6040600020541615610bf457005b8160005260066020526040600020816000526020526040600020600160ff1982541617905533917f2f8788117e7eff1d82e926ec794901d17c78024a50270940304540a733656f0d600080a4005b346101925760c036600319011261019257610c5b61163e565b60243567ffffffffffffffff811161019257610c7b903690600401611768565b906044356001600160a01b038116810361019257610c97611c38565b6001600160a01b0382161591610cad8315611905565b610cc16001600160a01b0383161515611905565b83511561120857606435156111b157426084351115611160576009549260001984146103fe576001840160095561111c57600083815260026020526040902054610d17906001600160a01b031615155b15611f33565b600083815260026020526040902054610d3a906001600160a01b03161515610d11565b6001600160a01b038116600081815260036020908152604080832080546001019055868352600290915280822080546001600160a01b03191684179055519185917fddf252ad1be2c89b69c2b068fc378daa952ba7f163c4a11628f55a4df523b3ef8180a4610da88161169f565b8481526001600160a01b0383166020820152606435604080830191909152608435606083015260a435608083015251610de0816116bb565b6000815260a0820152836000526008602052604060002090805180519067ffffffffffffffff821161104a57610e168454611786565b601f81116110d8575b50602090601f831160011461106b5760a093929160009183611060575b50508160011b916000199060031b1c19161783555b60018301600180841b036020830151166bffffffffffffffffffffffff841b825416179055604081015160028401556060810151600384015560808101516004840155015180519067ffffffffffffffff821161104a57610eb56005840154611786565b601f8111611003575b5091859391602097938890601f8311600114610f6b5782610f3395937fc57b2430c63aaf86ae1865b1b458464011beb3bf14a66914f2911d07161c1c2a979593600593600092610f60575b50508160011b916000199060031b1c1916179101555b604051928392608084526080840190611619565b6001600160a01b03968716838a0152606435604084015260843560608401529516940390a3604051908152f35b015190508c80610f09565b9060058401600052896000209160005b601f1985168110610fe95750837fc57b2430c63aaf86ae1865b1b458464011beb3bf14a66914f2911d07161c1c2a979593600593600193610f339997601f19811610610fd0575b505050811b01910155610f1f565b015160001960f88460031b161c191690558c8080610fc2565b8183015184558a9850600190930192918b01918b01610f7b565b600584016000526020600020601f840160051c810160208510611043575b601f830160051c82018110611037575050610ebe565b60008155600101611021565b5080611021565b634e487b7160e01b600052604160045260246000fd5b015190508980610e3c565b908460005260206000209160005b601f19851681106110c0575091839160019360a09695601f198116106110a7575b505050811b018355610e51565b015160001960f88460031b161c1916905589808061109a565b91926020600181928685015181550194019201611079565b846000526020600020601f840160051c810160208510611115575b601f830160051c82018110611109575050610e1f565b600081556001016110f3565b50806110f3565b606460405162461bcd60e51b815260206004820152602060248201527f4552433732313a206d696e7420746f20746865207a65726f20616464726573736044820152fd5b60405162461bcd60e51b8152602060048201526024808201527f546f6b656e697a6564506f6c6963793a20496e76616c696420657870697279206044820152636461746560e01b6064820152608490fd5b60405162461bcd60e51b815260206004820152602960248201527f546f6b656e697a6564506f6c6963793a20496e76616c69642076616c756174696044820152681bdb88185b5bdd5b9d60ba1b6064820152608490fd5b60405162461bcd60e51b8152602060048201526024808201527f546f6b656e697a6564506f6c6963793a20456d70747920706f6c696379206e7560448201526336b132b960e11b6064820152608490fd5b346101925760203660031901126101925760043560005260066020526020600160406000200154604051908152f35b34610192576104696112993661166a565b916112ac6112a78433611a5a565b6118a3565b611b22565b3461019257600036600319011261019257602060075460ff8160a01c1690816112e0575b506040519015158152f35b6001600160a01b031615159050826112d5565b346101925760403660031901126101925761130c61163e565b602435906001600160a01b038080611323856119f3565b1692169180831461141e578033149081156113f9575b501561138e57600083815260046020526040902080546001600160a01b03191683179055611366836119f3565b167f8c5be1e5ebec7d5bd14f71427d1e84f3dd0314c0f7b2291e5b200ac8c7c3b925600080a4005b60405162461bcd60e51b815260206004820152603d60248201527f4552433732313a20617070726f76652063616c6c6572206973206e6f7420746f60448201527f6b656e206f776e6572206f7220617070726f76656420666f7220616c6c0000006064820152608490fd5b9050600052600560205260406000203360005260205260ff6040600020541684611339565b60405162461bcd60e51b815260206004820152602160248201527f4552433732313a20617070726f76616c20746f2063757272656e74206f776e656044820152603960f91b6064820152608490fd5b346101925760203660031901126101925760206109ae600435611865565b346101925760003660031901126101925760206040517f68e79a7bf1e0bc45d0a330c573bc367f9cf464fd326078812f301165fbda4ef18152f35b34610192576000366003190112610192576040516000805490826114e983611786565b918282526020936001908560018216918260001461080c575050600114611517575061079b925003836116f3565b6000808052859250907f290decd9548b62a8d60345a988386fc84ba6bc95484008f6362f93160ef3e5635b85831061155957505061079b93508201018561078e565b80548389018501528794508693909201918101611542565b34610192576020366003190112610192576004359063ffffffff60e01b821680920361019257602091637965db0b60e01b81149081156115b3575b5015158152f35b6380ac58cd60e01b8114915081156115e5575b81156115d4575b50836115ac565b6301ffc9a760e01b149050836115cd565b635b5e139f60e01b811491506115c6565b60005b8381106116095750506000910152565b81810151838201526020016115f9565b90602091611632815180928185528580860191016115f6565b601f01601f1916010190565b600435906001600160a01b038216820361019257565b602435906001600160a01b038216820361019257565b6060906003190112610192576001600160a01b0390600435828116810361019257916024359081168103610192579060443590565b60c0810190811067ffffffffffffffff82111761104a57604052565b6020810190811067ffffffffffffffff82111761104a57604052565b6080810190811067ffffffffffffffff82111761104a57604052565b90601f8019910116810190811067ffffffffffffffff82111761104a57604052565b67ffffffffffffffff811161104a57601f01601f191660200190565b92919261173d82611715565b9161174b60405193846116f3565b829481845281830111610192578281602093846000960137010152565b9080601f830112156101925781602061178393359101611731565b90565b90600182811c921680156117b6575b60208310146117a057565b634e487b7160e01b600052602260045260246000fd5b91607f1691611795565b906040519182600082546117d381611786565b908184526020946001916001811690816000146118435750600114611804575b505050611802925003836116f3565b565b600090815285812095935091905b81831061182b57505061180293508201013880806117f3565b85548884018501529485019487945091830191611812565b9250505061180294925060ff191682840152151560051b8201013880806117f3565b600081815260026020526040902054611888906001600160a01b031615156119a7565b6000908152600460205260409020546001600160a01b031690565b156118aa57565b60405162461bcd60e51b815260206004820152602d60248201527f4552433732313a2063616c6c6572206973206e6f7420746f6b656e206f776e6560448201526c1c881bdc88185c1c1c9bdd9959609a1b6064820152608490fd5b1561190c57565b60405162461bcd60e51b815260206004820152601d60248201527f546f6b656e697a6564506f6c6963793a205a65726f20616464726573730000006044820152606490fd5b1561195857565b60405162461bcd60e51b815260206004820152602160248201527f546f6b656e697a6564506f6c6963793a20496e76616c696420746f6b656e20496044820152601160fa1b6064820152608490fd5b156119ae57565b60405162461bcd60e51b815260206004820152601860248201527f4552433732313a20696e76616c696420746f6b656e20494400000000000000006044820152606490fd5b6000908152600260205260409020546001600160a01b03166117838115156119a7565b90611a3a939291611a2a6112a78433611a5a565b611a35838383611b22565b612048565b15611a4157565b60405162461bcd60e51b81528061037360048201611ff5565b906001600160a01b038080611a6e846119f3565b16931691838314938415611aa1575b508315611a8b575b50505090565b611a9791929350611865565b1614388080611a85565b909350600052600560205260406000208260005260205260ff604060002054169238611a7d565b15611acf57565b60405162461bcd60e51b815260206004820152602560248201527f4552433732313a207472616e736665722066726f6d20696e636f72726563742060448201526437bbb732b960d91b6064820152608490fd5b90611b4a91611b30846119f3565b6001600160a01b0393918416928492909183168414611ac8565b16918215611be75781611b6791611b60866119f3565b1614611ac8565b7fddf252ad1be2c89b69c2b068fc378daa952ba7f163c4a11628f55a4df523b3ef60008481526004602052604081206bffffffffffffffffffffffff60a01b9081815416905583825260036020526040822060001981540190558482526040822060018154019055858252600260205284604083209182541617905580a4565b60405162461bcd60e51b8152602060048201526024808201527f4552433732313a207472616e7366657220746f20746865207a65726f206164646044820152637265737360e01b6064820152608490fd5b3360009081527f3195c024b2ddd6d9b8f6c836aa52f67fe69376c8903d009b80229b3ce4425f51602090815260408083205490927f9f2df0fed2c77648de5860a4cc508cd0818c85b8b8a1ab4ceeef8d981c8956a69160ff1615611c9c5750505050565b611ca53361217c565b91845190611cb2826116d7565b60428252848201926060368537825115611e13576030845382519060019160011015611e135790607860218501536041915b818311611da557505050611d63576048610373938693611d4793611d38985198899376020b1b1b2b9b9a1b7b73a3937b61d1030b1b1b7bab73a1604d1b8a86015261031a815180928c6037890191016115f6565b010360288101875201856116f3565b5192839262461bcd60e51b845260048401526024830190611619565b60648486519062461bcd60e51b825280600483015260248201527f537472696e67733a20686578206c656e67746820696e73756666696369656e746044820152fd5b909192600f81166010811015611dff576f181899199a1a9b1b9c1cb0b131b232b360811b901a611dd5858761216b565b5360041c928015611deb57600019019190611ce4565b634e487b7160e01b82526011600452602482fd5b634e487b7160e01b83526032600452602483fd5b634e487b7160e01b81526032600452602490fd5b60009080825260209060068252604092838120338252835260ff848220541615611e515750505050565b611e5a3361217c565b91845190611e67826116d7565b60428252848201926060368537825115611e13576030845382519060019160011015611e135790607860218501536041915b818311611eed57505050611d63576048610373938693611d4793611d38985198899376020b1b1b2b9b9a1b7b73a3937b61d1030b1b1b7bab73a1604d1b8a86015261031a815180928c6037890191016115f6565b909192600f81166010811015611dff576f181899199a1a9b1b9c1cb0b131b232b360811b901a611f1d858761216b565b5360041c928015611deb57600019019190611e99565b15611f3a57565b60405162461bcd60e51b815260206004820152601c60248201527f4552433732313a20746f6b656e20616c7265616479206d696e746564000000006044820152606490fd5b906000918083526006602052604083209160018060a01b03169182845260205260ff604084205416611fb057505050565b8083526006602052604083208284526020526040832060ff1981541690557ff6391f5c32d9c69d2a47ea670b442974b53935d1edc7fd64eb21e047a839171b339380a4565b60809060208152603260208201527f4552433732313a207472616e7366657220746f206e6f6e20455243373231526560408201527131b2b4bb32b91034b6b83632b6b2b73a32b960711b60608201520190565b9293919290803b156121615761209c9460018060a01b039460405192839187630a85bd0160e11b9687855233600486015216602484015260448301526080606483015281806020998a956084830190611619565b03916000988991165af184918161211d575b5061210c575050503d600014612104573d6120c881611715565b906120d660405192836116f3565b81528091833d92013e5b805191826121015760405162461bcd60e51b81528061037360048201611ff5565b01fd5b5060606120e0565b6001600160e01b0319161492509050565b9091508581813d831161215a575b61213581836116f3565b8101031261215657516001600160e01b0319811681036121565790386120ae565b8480fd5b503d61212b565b5050915050600190565b908151811015610414570160200190565b604051906060820182811067ffffffffffffffff82111761104a57604052602a8252602082016040368237825115610414576030905381516001906001101561041457607860218401536029905b80821161221e5750506121da5790565b606460405162461bcd60e51b815260206004820152602060248201527f537472696e67733a20686578206c656e67746820696e73756666696369656e746044820152fd5b9091600f81166010811015612277576f181899199a1a9b1b9c1cb0b131b232b360811b901a61224d848661216b565b5360041c9180156122625760001901906121ca565b60246000634e487b7160e01b81526011600452fd5b60246000634e487b7160e01b81526032600452fdfea2646970667358221220cc2b224da4f1411c45ac3ebc2768dc1891ec27aa5c70e68f2e8ff61f231e51b064736f6c634300081800332f8788117e7eff1d82e926ec794901d17c78024a50270940304540a733656f0d",
  "linkReferences": {},
  "deployedLinkReferences": {}
}