{
  "_format": "hh-sol-artifact-1",
  "contractName": "TokenizedPolicy",
  "sourceName": "contracts/tokenization/TokenizedPolicy.sol",
  "abi": [
    {
      "inputs": [
        {
          "internalType": "string",
          "name": "name",
          "type": "string"
        },
        {
          "internalType": "string",
          "name": "symbol",
          "type": "string"
        }
      ],
      "stateMutability": "nonpayable",
      "type": "constructor"
    },
    {
      "anonymous": false,
      "inputs": [
        {
          "indexed": true,
          "internalType": "address",
          "name": "owner",
          "type": "address"
        },
        {
          "indexed": true,
          "internalType": "address",
          "name": "approved",
          "type": "address"
        },
        {
          "indexed": true,
          "internalType": "uint256",
          "name": "tokenId",
          "type": "uint256"
        }
      ],
      "name": "Approval",
      "type": "event"
    },
    {
      "anonymous": false,
      "inputs": [
        {
          "indexed": true,
          "internalType": "address",
          "name": "owner",
          "type": "address"
        },
        {
          "indexed": true,
          "internalType": "address",
          "name": "operator",
          "type": "address"
        },
        {
          "indexed": false,
          "internalType": "bool",
          "name": "approved",
          "type": "bool"
        }
      ],
      "name": "ApprovalForAll",
      "type": "event"
    },
    {
      "anonymous": false,
      "inputs": [
        {
          "indexed": true,
          "internalType": "uint256",
          "name": "tokenId",
          "type": "uint256"
        },
        {
          "indexed": false,
          "internalType": "uint256",
          "name": "newExpiryDate",
          "type": "uint256"
        }
      ],
      "name": "PolicyExpiryDateUpdated",
      "type": "event"
    },
    {
      "anonymous": false,
      "inputs": [
        {
          "indexed": true,
          "internalType": "uint256",
          "name": "tokenId",
          "type": "uint256"
        },
        {
          "indexed": true,
          "internalType": "address",
          "name": "recipient",
          "type": "address"
        },
        {
          "indexed": false,
          "internalType": "string",
          "name": "policyNumber",
          "type": "string"
        },
        {
          "indexed": false,
          "internalType": "address",
          "name": "issuer",
          "type": "address"
        },
        {
          "indexed": false,
          "internalType": "uint256",
          "name": "valuationAmount",
          "type": "uint256"
        },
        {
          "indexed": false,
          "internalType": "uint256",
          "name": "expiryDate",
          "type": "uint256"
        }
      ],
      "name": "PolicyMinted",
      "type": "event"
    },
    {
      "anonymous": false,
      "inputs": [
        {
          "indexed": true,
          "internalType": "address",
          "name": "oracle",
          "type": "address"
        },
        {
          "indexed": false,
          "internalType": "bool",
          "name": "useOracle",
          "type": "bool"
        }
      ],
      "name": "PolicyOracleSet",
      "type": "event"
    },
    {
      "anonymous": false,
      "inputs": [
        {
          "indexed": true,
          "internalType": "uint256",
          "name": "tokenId",
          "type": "uint256"
        },
        {
          "indexed": false,
          "internalType": "uint256",
          "name": "newValuation",
          "type": "uint256"
        }
      ],
      "name": "PolicyValuationUpdated",
      "type": "event"
    },
    {
      "anonymous": false,
      "inputs": [
        {
          "indexed": true,
          "internalType": "bytes32",
          "name": "role",
          "type": "bytes32"
        },
        {
          "indexed": true,
          "internalType": "bytes32",
          "name": "previousAdminRole",
          "type": "bytes32"
        },
        {
          "indexed": true,
          "internalType": "bytes32",
          "name": "newAdminRole",
          "type": "bytes32"
        }
      ],
      "name": "RoleAdminChanged",
      "type": "event"
    },
    {
      "anonymous": false,
      "inputs": [
        {
          "indexed": true,
          "internalType": "bytes32",
          "name": "role",
          "type": "bytes32"
        },
        {
          "indexed": true,
          "internalType": "address",
          "name": "account",
          "type": "address"
        },
        {
          "indexed": true,
          "internalType": "address",
          "name": "sender",
          "type": "address"
        }
      ],
      "name": "RoleGranted",
      "type": "event"
    },
    {
      "anonymous": false,
      "inputs": [
        {
          "indexed": true,
          "internalType": "bytes32",
          "name": "role",
          "type": "bytes32"
        },
        {
          "indexed": true,
          "internalType": "address",
          "name": "account",
          "type": "address"
        },
        {
          "indexed": true,
          "internalType": "address",
          "name": "sender",
          "type": "address"
        }
      ],
      "name": "RoleRevoked",
      "type": "event"
    },
    {
      "anonymous": false,
      "inputs": [
        {
          "indexed": true,
          "internalType": "address",
          "name": "from",
          "type": "address"
        },
        {
          "indexed": true,
          "internalType": "address",
          "name": "to",
          "type": "address"
        },
        {
          "indexed": true,
          "internalType": "uint256",
          "name": "tokenId",
          "type": "uint256"
        }
      ],
      "name": "Transfer",
      "type": "event"
    },
    {
      "inputs": [],
      "name": "DEFAULT_ADMIN_ROLE",
      "outputs": [
        {
          "internalType": "bytes32",
          "name": "",
          "type": "bytes32"
        }
      ],
      "stateMutability": "view",
      "type": "function"
    },
    {
      "inputs": [],
      "name": "MINTER_ROLE",
      "outputs": [
        {
          "internalType": "bytes32",
          "name": "",
          "type": "bytes32"
        }
      ],
      "stateMutability": "view",
      "type": "function"
    },
    {
      "inputs": [],
      "name": "ORACLE_ROLE",
      "outputs": [
        {
          "internalType": "bytes32",
          "name": "",
          "type": "bytes32"
        }
      ],
      "stateMutability": "view",
      "type": "function"
    },
    {
      "inputs": [
        {
          "internalType": "address",
          "name": "to",
          "type": "address"
        },
        {
          "internalType": "uint256",
          "name": "tokenId",
          "type": "uint256"
        }
      ],
      "name": "approve",
      "outputs": [],
      "stateMutability": "nonpayable",
      "type": "function"
    },
    {
      "inputs": [
        {
          "internalType": "address",
          "name": "owner",
          "type": "address"
        }
      ],
      "name": "balanceOf",
      "outputs": [
        {
          "internalType": "uint256",
          "name": "",
          "type": "uint256"
        }
      ],
      "stateMutability": "view",
      "type": "function"
    },
    {
      "inputs": [
        {
          "internalType": "uint256",
          "name": "tokenId",
          "type": "uint256"
        }
      ],
      "name": "getApproved",
      "outputs": [
        {
          "internalType": "address",
          "name": "",
          "type": "address"
        }
      ],
      "stateMutability": "view",
      "type": "function"
    },
    {
      "inputs": [
        {
          "internalType": "uint256",
          "name": "tokenId",
          "type": "uint256"
        }
      ],
      "name": "getExpiryDate",
      "outputs": [
        {
          "internalType": "uint256",
          "name": "",
          "type": "uint256"
        }
      ],
      "stateMutability": "view",
      "type": "function"
    },
    {
      "inputs": [
        {
          "internalType": "uint256",
          "name": "tokenId",
          "type": "uint256"
        }
      ],
      "name": "getPolicyDetails",
      "outputs": [
        {
          "internalType": "string",
          "name": "policyNumber",
          "type": "string"
        },
        {
          "internalType": "address",
          "name": "issuer",
          "type": "address"
        },
        {
          "internalType": "uint256",
          "name": "valuationAmount",
          "type": "uint256"
        },
        {
          "internalType": "uint256",
          "name": "expiryDate",
          "type": "uint256"
        },
        {
          "internalType": "bytes32",
          "name": "documentHash",
          "type": "bytes32"
        }
      ],
      "stateMutability": "view",
      "type": "function"
    },
    {
      "inputs": [
        {
          "internalType": "bytes32",
          "name": "role",
          "type": "bytes32"
        }
      ],
      "name": "getRoleAdmin",
      "outputs": [
        {
          "internalType": "bytes32",
          "name": "",
          "type": "bytes32"
        }
      ],
      "stateMutability": "view",
      "type": "function"
    },
    {
      "inputs": [
        {
          "internalType": "uint256",
          "name": "tokenId",
          "type": "uint256"
        }
      ],
      "name": "getValuation",
      "outputs": [
        {
          "internalType": "uint256",
          "name": "",
          "type": "uint256"
        }
      ],
      "stateMutability": "view",
      "type": "function"
    },
    {
      "inputs": [
        {
          "internalType": "bytes32",
          "name": "role",
          "type": "bytes32"
        },
        {
          "internalType": "address",
          "name": "account",
          "type": "address"
        }
      ],
      "name": "grantRole",
      "outputs": [],
      "stateMutability": "nonpayable",
      "type": "function"
    },
    {
      "inputs": [
        {
          "internalType": "bytes32",
          "name": "role",
          "type": "bytes32"
        },
        {
          "internalType": "address",
          "name": "account",
          "type": "address"
        }
      ],
      "name": "hasRole",
      "outputs": [
        {
          "internalType": "bool",
          "name": "",
          "type": "bool"
        }
      ],
      "stateMutability": "view",
      "type": "function"
    },
    {
      "inputs": [
        {
          "internalType": "string",
          "name": "",
          "type": "string"
        },
        {
          "internalType": "string",
          "name": "",
          "type": "string"
        }
      ],
      "name": "initialize",
      "outputs": [],
      "stateMutability": "pure",
      "type": "function"
    },
    {
      "inputs": [
        {
          "internalType": "address",
          "name": "owner",
          "type": "address"
        },
        {
          "internalType": "address",
          "name": "operator",
          "type": "address"
        }
      ],
      "name": "isApprovedForAll",
      "outputs": [
        {
          "internalType": "bool",
          "name": "",
          "type": "bool"
        }
      ],
      "stateMutability": "view",
      "type": "function"
    },
    {
      "inputs": [],
      "name": "isOracleAvailable",
      "outputs": [
        {
          "internalType": "bool",
          "name": "",
          "type": "bool"
        }
      ],
      "stateMutability": "view",
      "type": "function"
    },
    {
      "inputs": [
        {
          "internalType": "address",
          "name": "to",
          "type": "address"
        },
        {
          "internalType": "string",
          "name": "policyNumber",
          "type": "string"
        },
        {
          "internalType": "address",
          "name": "issuer",
          "type": "address"
        },
        {
          "internalType": "uint256",
          "name": "valuationAmount",
          "type": "uint256"
        },
        {
          "internalType": "uint256",
          "name": "expiryDate",
          "type": "uint256"
        },
        {
          "internalType": "bytes32",
          "name": "documentHash",
          "type": "bytes32"
        }
      ],
      "name": "mintPolicy",
      "outputs": [
        {
          "internalType": "uint256",
          "name": "",
          "type": "uint256"
        }
      ],
      "stateMutability": "nonpayable",
      "type": "function"
    },
    {
      "inputs": [],
      "name": "name",
      "outputs": [
        {
          "internalType": "string",
          "name": "",
          "type": "string"
        }
      ],
      "stateMutability": "view",
      "type": "function"
    },
    {
      "inputs": [
        {
          "internalType": "uint256",
          "name": "tokenId",
          "type": "uint256"
        }
      ],
      "name": "ownerOf",
      "outputs": [
        {
          "internalType": "address",
          "name": "",
          "type": "address"
        }
      ],
      "stateMutability": "view",
      "type": "function"
    },
    {
      "inputs": [],
      "name": "policyOracle",
      "outputs": [
        {
          "internalType": "contract IPolicyOracle",
          "name": "",
          "type": "address"
        }
      ],
      "stateMutability": "view",
      "type": "function"
    },
    {
      "inputs": [
        {
          "internalType": "bytes32",
          "name": "role",
          "type": "bytes32"
        },
        {
          "internalType": "address",
          "name": "account",
          "type": "address"
        }
      ],
      "name": "renounceRole",
      "outputs": [],
      "stateMutability": "nonpayable",
      "type": "function"
    },
    {
      "inputs": [
        {
          "internalType": "bytes32",
          "name": "role",
          "type": "bytes32"
        },
        {
          "internalType": "address",
          "name": "account",
          "type": "address"
        }
      ],
      "name": "revokeRole",
      "outputs": [],
      "stateMutability": "nonpayable",
      "type": "function"
    },
    {
      "inputs": [
        {
          "internalType": "address",
          "name": "from",
          "type": "address"
        },
        {
          "internalType": "address",
          "name": "to",
          "type": "address"
        },
        {
          "internalType": "uint256",
          "name": "tokenId",
          "type": "uint256"
        }
      ],
      "name": "safeTransferFrom",
      "outputs": [],
      "stateMutability": "nonpayable",
      "type": "function"
    },
    {
      "inputs": [
        {
          "internalType": "address",
          "name": "from",
          "type": "address"
        },
        {
          "internalType": "address",
          "name": "to",
          "type": "address"
        },
        {
          "internalType": "uint256",
          "name": "tokenId",
          "type": "uint256"
        },
        {
          "internalType": "bytes",
          "name": "data",
          "type": "bytes"
        }
      ],
      "name": "safeTransferFrom",
      "outputs": [],
      "stateMutability": "nonpayable",
      "type": "function"
    },
    {
      "inputs": [
        {
          "internalType": "address",
          "name": "operator",
          "type": "address"
        },
        {
          "internalType": "bool",
          "name": "approved",
          "type": "bool"
        }
      ],
      "name": "setApprovalForAll",
      "outputs": [],
      "stateMutability": "nonpayable",
      "type": "function"
    },
    {
      "inputs": [
        {
          "internalType": "address",
          "name": "oracle",
          "type": "address"
        }
      ],
      "name": "setPolicyOracle",
      "outputs": [],
      "stateMutability": "nonpayable",
      "type": "function"
    },
    {
      "inputs": [
        {
          "internalType": "bytes4",
          "name": "interfaceId",
          "type": "bytes4"
        }
      ],
      "name": "supportsInterface",
      "outputs": [
        {
          "internalType": "bool",
          "name": "",
          "type": "bool"
        }
      ],
      "stateMutability": "view",
      "type": "function"
    },
    {
      "inputs": [],
      "name": "symbol",
      "outputs": [
        {
          "internalType": "string",
          "name": "",
          "type": "string"
        }
      ],
      "stateMutability": "view",
      "type": "function"
    },
    {
      "inputs": [
        {
          "internalType": "uint256",
          "name": "tokenId",
          "type": "uint256"
        }
      ],
      "name": "tokenURI",
      "outputs": [
        {
          "internalType": "string",
          "name": "",
          "type": "string"
        }
      ],
      "stateMutability": "view",
      "type": "function"
    },
    {
      "inputs": [
        {
          "internalType": "address",
          "name": "from",
          "type": "address"
        },
        {
          "internalType": "address",
          "name": "to",
          "type": "address"
        },
        {
          "internalType": "uint256",
          "name": "tokenId",
          "type": "uint256"
        }
      ],
      "name": "transferFrom",
      "outputs": [],
      "stateMutability": "nonpayable",
      "type": "function"
    },
    {
      "inputs": [
        {
          "internalType": "uint256",
          "name": "tokenId",
          "type": "uint256"
        },
        {
          "internalType": "uint256",
          "name": "newExpiryDate",
          "type": "uint256"
        }
      ],
      "name": "updatePolicyExpiryDate",
      "outputs": [],
      "stateMutability": "nonpayable",
      "type": "function"
    },
    {
      "inputs": [
        {
          "internalType": "uint256",
          "name": "tokenId",
          "type": "uint256"
        },
        {
          "internalType": "uint256",
          "name": "newValuation",
          "type": "uint256"
        }
      ],
      "name": "updateValuation",
      "outputs": [],
      "stateMutability": "nonpayable",
      "type": "function"
    },
    {
      "inputs": [],
      "name": "useOracle",
      "outputs": [
        {
          "internalType": "bool",
          "name": "",
          "type": "bool"
        }
      ],
      "stateMutability": "view",
      "type": "function"
    }
  ],
  "bytecode": "0x604060808152346200046e576200290390813803806200001f8162000473565b938439820181838203126200046e5782516001600160401b03908181116200046e57826200004f91860162000499565b93602092838201518381116200046e576200006b920162000499565b9380519180831162000458576000928354906001938483811c931680156200044d575b8784101462000439578190601f93848111620003e6575b5087908483116001146200038257879262000376575b5050600019600383901b1c191690841b1784555b8651918211620003625782548381811c9116801562000357575b868210146200034357818111620002fb575b5084908211600114620002985783949596829394926200028c575b5050600019600383901b1c191690821b1781555b818052600692838152848320338452815260ff85842054161562000255575b7f9f2df0fed2c77648de5860a4cc508cd0818c85b8b8a1ab4ceeef8d981c8956a6808452848252858420338552825260ff8685205416156200021c575b507f68e79a7bf1e0bc45d0a330c573bc367f9cf464fd326078812f301165fbda4ef193848452808252858420338552825260ff868520541615620001e1575b6007805460ff60a01b1916905585516123d790816200050c8239f35b848452815284832090338452528382209060ff198254161790553391600080516020620028e3833981519152339280a43880808080620001c5565b80845284825285842033855282528584208360ff1982541617905533903390600080516020620028e38339815191528680a43862000186565b82805283815284832033845281528483208260ff19825416179055333384600080516020620028e38339815191528180a462000149565b01519050388062000116565b82845284842090601f198316855b818110620002e557509783859697989910620002cb575b505050811b0181556200012a565b015160001960f88460031b161c19169055388080620002bd565b89830151845592850192918701918701620002a6565b8385528585208280850160051c82019288861062000339575b0160051c019084905b8281106200032d575050620000fb565b8681550184906200031d565b9250819262000314565b634e487b7160e01b85526022600452602485fd5b90607f1690620000e9565b634e487b7160e01b84526041600452602484fd5b015190503880620000bb565b8780528888208794509190601f198416895b8b828210620003cf5750508411620003b5575b505050811b018455620000cf565b015160001960f88460031b161c19169055388080620003a7565b8385015186558a9790950194938401930162000394565b9091508680528787208480850160051c8201928a86106200042f575b918891869594930160051c01915b82811062000420575050620000a5565b89815585945088910162000410565b9250819262000402565b634e487b7160e01b86526022600452602486fd5b92607f16926200008e565b634e487b7160e01b600052604160045260246000fd5b600080fd5b6040519190601f01601f191682016001600160401b038111838210176200045857604052565b919080601f840112156200046e5782516001600160401b0381116200045857602090620004cf601f8201601f1916830162000473565b928184528282870101116200046e5760005b818110620004f757508260009394955001015290565b8581018301518482018401528201620004e156fe608080604052600436101561001357600080fd5b60003560e01c90816301ffc9a7146115085750806306fdde031461145d57806307e2cea514611422578063081812fc14611404578063095ea7b31461128a57806321754a961461124857806323b872dd1461121f578063248a9ca3146111f05780632e8e553e14610bc35780632f2ff15d14610b1057806336568abe14610a7e5780633bd18a3b14610a2c57806342842e0e14610a0457806344878724146109de5780634cd88b76146109415780636352211e14610911578063639f5062146108315780636833f200146107df5780636dc0fc6b1461076557806370a08231146106ce57806391d148541461068157806395d89b411461059e578063a217fddf14610582578063a22cb465146104b0578063b88d4fde14610450578063c87b56dd146103df578063cc038010146102fb578063d5391393146102c0578063d547741f1461027f578063d69776ca14610203578063e985e9c5146101ad5763f40a70921461017f57600080fd5b346101a85760003660031901126101a8576007546040516001600160a01b039091168152602090f35b600080fd5b346101a85760403660031901126101a8576101c66115d5565b6101ce6115eb565b9060018060a01b03809116600052600560205260406000209116600052602052602060ff604060002054166040519015158152f35b346101a85760203660031901126101a85761021c6115d5565b610224611e01565b6001600160a01b03166102388115156118b2565b600780546001600160a81b0319168217600160a01b179055604051600181527ffb3eb88462dfbcd774694fdebc819613f0f42879e67e21d5d2d1d23bde4a707290602090a2005b346101a85760403660031901126101a8576102be60043561029e6115eb565b908060005260066020526102b9600160406000200154611f26565b61207e565b005b346101a85760003660031901126101a85760206040517f9f2df0fed2c77648de5860a4cc508cd0818c85b8b8a1ab4ceeef8d981c8956a68152f35b346101a85760203660031901126101a857600435600081815260026020526040902054610332906001600160a01b031615156118fe565b60005260086020526103c6604060002060405161034e81611636565b6103578261176d565b815260018060a01b039081600184015416926020820193845260028101549260408301938452600382015492606081019384526103a26005600485015494608084019586520161176d565b60a0820152519451169251915190519160405195869560a0875260a08701906115b0565b9360208601526040850152606084015260808301520390f35b346101a85760203660031901126101a857600435600090815260026020526040902054610416906001600160a01b03161515611954565b600060405161042481611652565b5261044c60405161043481611652565b600081526040519182916020835260208301906115b0565b0390f35b346101a85760803660031901126101a8576104696115d5565b6104716115eb565b6064359167ffffffffffffffff83116101a857366023840112156101a8576104a66102be9336906024816004013591016116c8565b91604435916119c3565b346101a85760403660031901126101a8576104c96115d5565b602435908115158092036101a8576001600160a01b03169033821461053d57336000526005602052604060002082600052602052604060002060ff1981541660ff83161790556040519081527f17307eab39ab6107e8899845ad3d59bd9653f200f220920489ca2b5937696c3160203392a3005b60405162461bcd60e51b815260206004820152601960248201527f4552433732313a20617070726f766520746f2063616c6c6572000000000000006044820152606490fd5b346101a85760003660031901126101a857602060405160008152f35b346101a85760003660031901126101a8576040516000600182600154926105c484611733565b9283835260209485600182169182600014610661575050600114610604575b506105f09250038361168a565b61044c6040519282849384528301906115b0565b84915060016000527fb10e2d527612073b26eecdfd717e6a320cf44b4afac2b0732d9fcbe2b7fa0cf6906000915b8583106106495750506105f09350820101856105e3565b80548389018501528794508693909201918101610632565b60ff1916858201526105f095151560051b85010192508791506105e39050565b346101a85760403660031901126101a85761069a6115eb565b600435600052600660205260406000209060018060a01b0316600052602052602060ff604060002054166040519015158152f35b346101a85760203660031901126101a8576001600160a01b036106ef6115d5565b16801561070e5760005260036020526020604060002054604051908152f35b60405162461bcd60e51b815260206004820152602960248201527f4552433732313a2061646472657373207a65726f206973206e6f7420612076616044820152683634b21037bbb732b960b91b6064820152608490fd5b346101a85760207ff924952e54be63d0c09ba1c8161e54b1679e6524f572c94a21fe5efcdfd308556107963661171d565b6107a1939193611be9565b6000848152600260205260409020546107c4906001600160a01b031615156118fe565b836000526008825280600260406000200155604051908152a2005b346101a85760203660031901126101a857600435600081815260026020526040902054610816906001600160a01b031615156118fe565b60005260086020526020600360406000200154604051908152f35b346101a85761083f3661171d565b610847611e01565b60008281526002602052604090205461086a906001600160a01b031615156118fe565b428111156108b15760207f1d0beb668c8a1de156f88cee1a1ac6f7857f2ca8f52dd69c070fa3f97015f4b391836000526008825280600360406000200155604051908152a2005b60405162461bcd60e51b815260206004820152603260248201527f546f6b656e697a6564506f6c6963793a204578706972792064617465206d75736044820152717420626520696e207468652066757475726560701b6064820152608490fd5b346101a85760203660031901126101a857602061092f6004356119a0565b6040516001600160a01b039091168152f35b346101a85760403660031901126101a85767ffffffffffffffff6004358181116101a8576109739036906004016116ff565b506024359081116101a85761098c9036906004016116ff565b5060405162461bcd60e51b8152602060048201526024808201527f546f6b656e697a6564506f6c6963793a20616c726561647920696e697469616c6044820152631a5e995960e21b6064820152608490fd5b346101a85760003660031901126101a857602060ff60075460a01c166040519015158152f35b346101a8576102be610a1536611601565b9060405192610a2384611652565b600084526119c3565b346101a85760203660031901126101a857600435600081815260026020526040902054610a63906001600160a01b031615156118fe565b60005260086020526020600260406000200154604051908152f35b346101a85760403660031901126101a857610a976115eb565b336001600160a01b03821603610ab3576102be9060043561207e565b60405162461bcd60e51b815260206004820152602f60248201527f416363657373436f6e74726f6c3a2063616e206f6e6c792072656e6f756e636560448201526e103937b632b9903337b91039b2b63360891b6064820152608490fd5b346101a85760403660031901126101a857600435610b2c6115eb565b816000526006602052610b46600160406000200154611f26565b81600052600660205260406000209060018060a01b0316908160005260205260ff6040600020541615610b7557005b8160005260066020526040600020816000526020526040600020600160ff1982541617905533917f2f8788117e7eff1d82e926ec794901d17c78024a50270940304540a733656f0d600080a4005b346101a85760c03660031901126101a857610bdc6115d5565b60243567ffffffffffffffff81116101a857610bfc9036906004016116ff565b906044356001600160a01b03811681036101a857610c18611be9565b6001600160a01b0382161591610c2e83156118b2565b610c426001600160a01b03831615156118b2565b83511561119f5760643515611148574260843511156110f7576009549260001984146110e1576001840160095561109d57600083815260026020526040902054610c98906001600160a01b031615155b15612032565b600083815260026020526040902054610cbb906001600160a01b03161515610c92565b6001600160a01b038116600081815260036020908152604080832080546001019055868352600290915280822080546001600160a01b03191684179055519185917fddf252ad1be2c89b69c2b068fc378daa952ba7f163c4a11628f55a4df523b3ef8180a4610d2981611636565b8481526001600160a01b0383166020820152606435604080830191909152608435606083015260a435608083015251610d6181611652565b6000815260a0820152836000526008602052604060002090805180519067ffffffffffffffff8211610fcb57610d978454611733565b601f8111611059575b50602090601f8311600114610fec5760a093929160009183610fe1575b50508160011b916000199060031b1c19161783555b60018301600180841b036020830151166bffffffffffffffffffffffff841b825416179055604081015160028401556060810151600384015560808101516004840155015180519067ffffffffffffffff8211610fcb57610e366005840154611733565b601f8111610f84575b5091859391602097938890601f8311600114610eec5782610eb495937fc57b2430c63aaf86ae1865b1b458464011beb3bf14a66914f2911d07161c1c2a979593600593600092610ee1575b50508160011b916000199060031b1c1916179101555b6040519283926080845260808401906115b0565b6001600160a01b03968716838a0152606435604084015260843560608401529516940390a3604051908152f35b015190508c80610e8a565b9060058401600052896000209160005b601f1985168110610f6a5750837fc57b2430c63aaf86ae1865b1b458464011beb3bf14a66914f2911d07161c1c2a979593600593600193610eb49997601f19811610610f51575b505050811b01910155610ea0565b015160001960f88460031b161c191690558c8080610f43565b8183015184558a9850600190930192918b01918b01610efc565b600584016000526020600020601f840160051c810160208510610fc4575b601f830160051c82018110610fb8575050610e3f565b60008155600101610fa2565b5080610fa2565b634e487b7160e01b600052604160045260246000fd5b015190508980610dbd565b908460005260206000209160005b601f1985168110611041575091839160019360a09695601f19811610611028575b505050811b018355610dd2565b015160001960f88460031b161c1916905589808061101b565b91926020600181928685015181550194019201610ffa565b846000526020600020601f840160051c810160208510611096575b601f830160051c8201811061108a575050610da0565b60008155600101611074565b5080611074565b606460405162461bcd60e51b815260206004820152602060248201527f4552433732313a206d696e7420746f20746865207a65726f20616464726573736044820152fd5b634e487b7160e01b600052601160045260246000fd5b60405162461bcd60e51b8152602060048201526024808201527f546f6b656e697a6564506f6c6963793a20496e76616c696420657870697279206044820152636461746560e01b6064820152608490fd5b60405162461bcd60e51b815260206004820152602960248201527f546f6b656e697a6564506f6c6963793a20496e76616c69642076616c756174696044820152681bdb88185b5bdd5b9d60ba1b6064820152608490fd5b60405162461bcd60e51b8152602060048201526024808201527f546f6b656e697a6564506f6c6963793a20456d70747920706f6c696379206e7560448201526336b132b960e11b6064820152608490fd5b346101a85760203660031901126101a85760043560005260066020526020600160406000200154604051908152f35b346101a8576102be61123036611601565b9161124361123e8433611a0b565b611850565b611ad3565b346101a85760003660031901126101a857602060075460ff8160a01c169081611277575b506040519015158152f35b6001600160a01b0316151590508261126c565b346101a85760403660031901126101a8576112a36115d5565b602435906001600160a01b0380806112ba856119a0565b169216918083146113b557803314908115611390575b501561132557600083815260046020526040902080546001600160a01b031916831790556112fd836119a0565b167f8c5be1e5ebec7d5bd14f71427d1e84f3dd0314c0f7b2291e5b200ac8c7c3b925600080a4005b60405162461bcd60e51b815260206004820152603d60248201527f4552433732313a20617070726f76652063616c6c6572206973206e6f7420746f60448201527f6b656e206f776e6572206f7220617070726f76656420666f7220616c6c0000006064820152608490fd5b9050600052600560205260406000203360005260205260ff60406000205416846112d0565b60405162461bcd60e51b815260206004820152602160248201527f4552433732313a20617070726f76616c20746f2063757272656e74206f776e656044820152603960f91b6064820152608490fd5b346101a85760203660031901126101a857602061092f600435611812565b346101a85760003660031901126101a85760206040517f68e79a7bf1e0bc45d0a330c573bc367f9cf464fd326078812f301165fbda4ef18152f35b346101a85760003660031901126101a85760405160008054908261148083611733565b91828252602093600190856001821691826000146106615750506001146114ae57506105f09250038361168a565b6000808052859250907f290decd9548b62a8d60345a988386fc84ba6bc95484008f6362f93160ef3e5635b8583106114f05750506105f09350820101856105e3565b805483890185015287945086939092019181016114d9565b346101a85760203660031901126101a8576004359063ffffffff60e01b82168092036101a857602091637965db0b60e01b811490811561154a575b5015158152f35b6380ac58cd60e01b81149150811561157c575b811561156b575b5083611543565b6301ffc9a760e01b14905083611564565b635b5e139f60e01b8114915061155d565b60005b8381106115a05750506000910152565b8181015183820152602001611590565b906020916115c98151809281855285808601910161158d565b601f01601f1916010190565b600435906001600160a01b03821682036101a857565b602435906001600160a01b03821682036101a857565b60609060031901126101a8576001600160a01b039060043582811681036101a8579160243590811681036101a8579060443590565b60c0810190811067ffffffffffffffff821117610fcb57604052565b6020810190811067ffffffffffffffff821117610fcb57604052565b6080810190811067ffffffffffffffff821117610fcb57604052565b90601f8019910116810190811067ffffffffffffffff821117610fcb57604052565b67ffffffffffffffff8111610fcb57601f01601f191660200190565b9291926116d4826116ac565b916116e2604051938461168a565b8294818452818301116101a8578281602093846000960137010152565b9080601f830112156101a85781602061171a933591016116c8565b90565b60409060031901126101a8576004359060243590565b90600182811c92168015611763575b602083101461174d57565b634e487b7160e01b600052602260045260246000fd5b91607f1691611742565b9060405191826000825461178081611733565b908184526020946001916001811690816000146117f057506001146117b1575b5050506117af9250038361168a565b565b600090815285812095935091905b8183106117d85750506117af93508201013880806117a0565b855488840185015294850194879450918301916117bf565b925050506117af94925060ff191682840152151560051b8201013880806117a0565b600081815260026020526040902054611835906001600160a01b03161515611954565b6000908152600460205260409020546001600160a01b031690565b1561185757565b60405162461bcd60e51b815260206004820152602d60248201527f4552433732313a2063616c6c6572206973206e6f7420746f6b656e206f776e6560448201526c1c881bdc88185c1c1c9bdd9959609a1b6064820152608490fd5b156118b957565b60405162461bcd60e51b815260206004820152601d60248201527f546f6b656e697a6564506f6c6963793a205a65726f20616464726573730000006044820152606490fd5b1561190557565b60405162461bcd60e51b815260206004820152602160248201527f546f6b656e697a6564506f6c6963793a20496e76616c696420746f6b656e20496044820152601160fa1b6064820152608490fd5b1561195b57565b60405162461bcd60e51b815260206004820152601860248201527f4552433732313a20696e76616c696420746f6b656e20494400000000000000006044820152606490fd5b6000908152600260205260409020546001600160a01b031661171a811515611954565b906119e79392916119d761123e8433611a0b565b6119e2838383611ad3565b612147565b156119ee57565b60405162461bcd60e51b815280611a07600482016120f4565b0390fd5b906001600160a01b038080611a1f846119a0565b16931691838314938415611a52575b508315611a3c575b50505090565b611a4891929350611812565b1614388080611a36565b909350600052600560205260406000208260005260205260ff604060002054169238611a2e565b15611a8057565b60405162461bcd60e51b815260206004820152602560248201527f4552433732313a207472616e736665722066726f6d20696e636f72726563742060448201526437bbb732b960d91b6064820152608490fd5b90611afb91611ae1846119a0565b6001600160a01b0393918416928492909183168414611a79565b16918215611b985781611b1891611b11866119a0565b1614611a79565b7fddf252ad1be2c89b69c2b068fc378daa952ba7f163c4a11628f55a4df523b3ef60008481526004602052604081206bffffffffffffffffffffffff60a01b9081815416905583825260036020526040822060001981540190558482526040822060018154019055858252600260205284604083209182541617905580a4565b60405162461bcd60e51b8152602060048201526024808201527f4552433732313a207472616e7366657220746f20746865207a65726f206164646044820152637265737360e01b6064820152608490fd5b3360009081527f3195c024b2ddd6d9b8f6c836aa52f67fe69376c8903d009b80229b3ce4425f51602090815260408083205490927f9f2df0fed2c77648de5860a4cc508cd0818c85b8b8a1ab4ceeef8d981c8956a69160ff1615611c4d5750505050565b611c5633612291565b91845190611c638261166e565b60428252848201926060368537825115611ded576030845382519060019160011015611ded5790607860218501536041915b818311611d7f57505050611d3d576048611a07938693611d2193611d12985198899376020b1b1b2b9b9a1b7b73a3937b61d1030b1b1b7bab73a1604d1b8a860152611ce9815180928c60378901910161158d565b8401917001034b99036b4b9b9b4b733903937b6329607d1b60378401525180938684019061158d565b0103602881018752018561168a565b5192839262461bcd60e51b8452600484015260248301906115b0565b60648486519062461bcd60e51b825280600483015260248201527f537472696e67733a20686578206c656e67746820696e73756666696369656e746044820152fd5b909192600f81166010811015611dd9576f181899199a1a9b1b9c1cb0b131b232b360811b901a611daf858761226a565b5360041c928015611dc557600019019190611c95565b634e487b7160e01b82526011600452602482fd5b634e487b7160e01b83526032600452602483fd5b634e487b7160e01b81526032600452602490fd5b3360009081527f54cdd369e4e8a8515e52ca72ec816c2101831ad1f18bf44102ed171459c9b4f8602090815260408083205490929060ff1615611e4357505050565b611e4c33612291565b9080845190611e5a8261166e565b60428252848201926060368537825115611ded576030845382519060019160011015611ded5790607860218501536041915b818311611ee057505050611d3d576048611a07938693611d2193611d12985198899376020b1b1b2b9b9a1b7b73a3937b61d1030b1b1b7bab73a1604d1b8a860152611ce9815180928c60378901910161158d565b909192600f81166010811015611dd9576f181899199a1a9b1b9c1cb0b131b232b360811b901a611f10858761226a565b5360041c928015611dc557600019019190611e8c565b60009080825260209060068252604092838120338252835260ff848220541615611f505750505050565b611f5933612291565b91845190611f668261166e565b60428252848201926060368537825115611ded576030845382519060019160011015611ded5790607860218501536041915b818311611fec57505050611d3d576048611a07938693611d2193611d12985198899376020b1b1b2b9b9a1b7b73a3937b61d1030b1b1b7bab73a1604d1b8a860152611ce9815180928c60378901910161158d565b909192600f81166010811015611dd9576f181899199a1a9b1b9c1cb0b131b232b360811b901a61201c858761226a565b5360041c928015611dc557600019019190611f98565b1561203957565b60405162461bcd60e51b815260206004820152601c60248201527f4552433732313a20746f6b656e20616c7265616479206d696e746564000000006044820152606490fd5b906000918083526006602052604083209160018060a01b03169182845260205260ff6040842054166120af57505050565b8083526006602052604083208284526020526040832060ff1981541690557ff6391f5c32d9c69d2a47ea670b442974b53935d1edc7fd64eb21e047a839171b339380a4565b60809060208152603260208201527f4552433732313a207472616e7366657220746f206e6f6e20455243373231526560408201527131b2b4bb32b91034b6b83632b6b2b73a32b960711b60608201520190565b9293919290803b156122605761219b9460018060a01b039460405192839187630a85bd0160e11b9687855233600486015216602484015260448301526080606483015281806020998a9560848301906115b0565b03916000988991165af184918161221c575b5061220b575050503d600014612203573d6121c7816116ac565b906121d5604051928361168a565b81528091833d92013e5b805191826122005760405162461bcd60e51b815280611a07600482016120f4565b01fd5b5060606121df565b6001600160e01b0319161492509050565b9091508581813d8311612259575b612234818361168a565b8101031261225557516001600160e01b0319811681036122555790386121ad565b8480fd5b503d61222a565b5050915050600190565b90815181101561227b570160200190565b634e487b7160e01b600052603260045260246000fd5b604051906060820182811067ffffffffffffffff821117610fcb57604052602a825260208201604036823782511561227b576030905381516001906001101561227b57607860218401536029905b8082116123335750506122ef5790565b606460405162461bcd60e51b815260206004820152602060248201527f537472696e67733a20686578206c656e67746820696e73756666696369656e746044820152fd5b9091600f8116601081101561238c576f181899199a1a9b1b9c1cb0b131b232b360811b901a612362848661226a565b5360041c9180156123775760001901906122df565b60246000634e487b7160e01b81526011600452fd5b60246000634e487b7160e01b81526032600452fdfea26469706673582212204e3661c2c6a1f2a4bc7503a213b7e0020a5d1190dd98adef053c8af125d4017064736f6c634300081800332f8788117e7eff1d82e926ec794901d17c78024a50270940304540a733656f0d",
  "linkReferences": {},
  "deployedLinkReferences": {}
}