{
  "_format": "hh-sol-artifact-1",
  "contractName": "TokenRegistry",
  "sourceName": "contracts/utils/TokenRegistry.sol",
  "abi": [
    {
      "inputs": [],
      "stateMutability": "nonpayable",
      "type": "constructor"
    },
    {
      "anonymous": false,
      "inputs": [
        {
          "indexed": true,
          "internalType": "bytes32",
          "name": "role",
          "type": "bytes32"
        },
        {
          "indexed": true,
          "internalType": "bytes32",
          "name": "previousAdminRole",
          "type": "bytes32"
        },
        {
          "indexed": true,
          "internalType": "bytes32",
          "name": "newAdminRole",
          "type": "bytes32"
        }
      ],
      "name": "RoleAdminChanged",
      "type": "event"
    },
    {
      "anonymous": false,
      "inputs": [
        {
          "indexed": true,
          "internalType": "bytes32",
          "name": "role",
          "type": "bytes32"
        },
        {
          "indexed": true,
          "internalType": "address",
          "name": "account",
          "type": "address"
        },
        {
          "indexed": true,
          "internalType": "address",
          "name": "sender",
          "type": "address"
        }
      ],
      "name": "RoleGranted",
      "type": "event"
    },
    {
      "anonymous": false,
      "inputs": [
        {
          "indexed": true,
          "internalType": "bytes32",
          "name": "role",
          "type": "bytes32"
        },
        {
          "indexed": true,
          "internalType": "address",
          "name": "account",
          "type": "address"
        },
        {
          "indexed": true,
          "internalType": "address",
          "name": "sender",
          "type": "address"
        }
      ],
      "name": "RoleRevoked",
      "type": "event"
    },
    {
      "anonymous": false,
      "inputs": [
        {
          "indexed": true,
          "internalType": "address",
          "name": "token",
          "type": "address"
        },
        {
          "indexed": false,
          "internalType": "uint8",
          "name": "decimals",
          "type": "uint8"
        },
        {
          "indexed": false,
          "internalType": "uint256",
          "name": "minLoanAmount",
          "type": "uint256"
        },
        {
          "indexed": false,
          "internalType": "uint256",
          "name": "maxLoanAmount",
          "type": "uint256"
        }
      ],
      "name": "TokenAdded",
      "type": "event"
    },
    {
      "anonymous": false,
      "inputs": [
        {
          "indexed": true,
          "internalType": "address",
          "name": "token",
          "type": "address"
        }
      ],
      "name": "TokenRemoved",
      "type": "event"
    },
    {
      "anonymous": false,
      "inputs": [
        {
          "indexed": true,
          "internalType": "address",
          "name": "token",
          "type": "address"
        },
        {
          "indexed": false,
          "internalType": "uint8",
          "name": "decimals",
          "type": "uint8"
        },
        {
          "indexed": false,
          "internalType": "uint256",
          "name": "minLoanAmount",
          "type": "uint256"
        },
        {
          "indexed": false,
          "internalType": "uint256",
          "name": "maxLoanAmount",
          "type": "uint256"
        }
      ],
      "name": "TokenUpdated",
      "type": "event"
    },
    {
      "inputs": [],
      "name": "ADMIN_ROLE",
      "outputs": [
        {
          "internalType": "bytes32",
          "name": "",
          "type": "bytes32"
        }
      ],
      "stateMutability": "view",
      "type": "function"
    },
    {
      "inputs": [],
      "name": "DEFAULT_ADMIN_ROLE",
      "outputs": [
        {
          "internalType": "bytes32",
          "name": "",
          "type": "bytes32"
        }
      ],
      "stateMutability": "view",
      "type": "function"
    },
    {
      "inputs": [
        {
          "internalType": "address",
          "name": "token",
          "type": "address"
        },
        {
          "internalType": "uint8",
          "name": "decimals",
          "type": "uint8"
        },
        {
          "internalType": "uint256",
          "name": "minLoanAmount",
          "type": "uint256"
        },
        {
          "internalType": "uint256",
          "name": "maxLoanAmount",
          "type": "uint256"
        }
      ],
      "name": "addToken",
      "outputs": [],
      "stateMutability": "nonpayable",
      "type": "function"
    },
    {
      "inputs": [
        {
          "internalType": "bytes32",
          "name": "role",
          "type": "bytes32"
        }
      ],
      "name": "getRoleAdmin",
      "outputs": [
        {
          "internalType": "bytes32",
          "name": "",
          "type": "bytes32"
        }
      ],
      "stateMutability": "view",
      "type": "function"
    },
    {
      "inputs": [],
      "name": "getSupportedTokens",
      "outputs": [
        {
          "internalType": "address[]",
          "name": "",
          "type": "address[]"
        }
      ],
      "stateMutability": "view",
      "type": "function"
    },
    {
      "inputs": [
        {
          "internalType": "address",
          "name": "token",
          "type": "address"
        }
      ],
      "name": "getTokenInfo",
      "outputs": [
        {
          "components": [
            {
              "internalType": "bool",
              "name": "isSupported",
              "type": "bool"
            },
            {
              "internalType": "uint8",
              "name": "decimals",
              "type": "uint8"
            },
            {
              "internalType": "uint256",
              "name": "minLoanAmount",
              "type": "uint256"
            },
            {
              "internalType": "uint256",
              "name": "maxLoanAmount",
              "type": "uint256"
            }
          ],
          "internalType": "struct TokenRegistry.TokenInfo",
          "name": "",
          "type": "tuple"
        }
      ],
      "stateMutability": "view",
      "type": "function"
    },
    {
      "inputs": [
        {
          "internalType": "bytes32",
          "name": "role",
          "type": "bytes32"
        },
        {
          "internalType": "address",
          "name": "account",
          "type": "address"
        }
      ],
      "name": "grantRole",
      "outputs": [],
      "stateMutability": "nonpayable",
      "type": "function"
    },
    {
      "inputs": [
        {
          "internalType": "bytes32",
          "name": "role",
          "type": "bytes32"
        },
        {
          "internalType": "address",
          "name": "account",
          "type": "address"
        }
      ],
      "name": "hasRole",
      "outputs": [
        {
          "internalType": "bool",
          "name": "",
          "type": "bool"
        }
      ],
      "stateMutability": "view",
      "type": "function"
    },
    {
      "inputs": [
        {
          "internalType": "address",
          "name": "token",
          "type": "address"
        }
      ],
      "name": "isTokenSupported",
      "outputs": [
        {
          "internalType": "bool",
          "name": "",
          "type": "bool"
        }
      ],
      "stateMutability": "view",
      "type": "function"
    },
    {
      "inputs": [
        {
          "internalType": "address",
          "name": "token",
          "type": "address"
        }
      ],
      "name": "removeToken",
      "outputs": [],
      "stateMutability": "nonpayable",
      "type": "function"
    },
    {
      "inputs": [
        {
          "internalType": "bytes32",
          "name": "role",
          "type": "bytes32"
        },
        {
          "internalType": "address",
          "name": "account",
          "type": "address"
        }
      ],
      "name": "renounceRole",
      "outputs": [],
      "stateMutability": "nonpayable",
      "type": "function"
    },
    {
      "inputs": [
        {
          "internalType": "bytes32",
          "name": "role",
          "type": "bytes32"
        },
        {
          "internalType": "address",
          "name": "account",
          "type": "address"
        }
      ],
      "name": "revokeRole",
      "outputs": [],
      "stateMutability": "nonpayable",
      "type": "function"
    },
    {
      "inputs": [
        {
          "internalType": "bytes4",
          "name": "interfaceId",
          "type": "bytes4"
        }
      ],
      "name": "supportsInterface",
      "outputs": [
        {
          "internalType": "bool",
          "name": "",
          "type": "bool"
        }
      ],
      "stateMutability": "view",
      "type": "function"
    },
    {
      "inputs": [
        {
          "internalType": "address",
          "name": "token",
          "type": "address"
        },
        {
          "internalType": "uint8",
          "name": "decimals",
          "type": "uint8"
        },
        {
          "internalType": "uint256",
          "name": "minLoanAmount",
          "type": "uint256"
        },
        {
          "internalType": "uint256",
          "name": "maxLoanAmount",
          "type": "uint256"
        }
      ],
      "name": "updateToken",
      "outputs": [],
      "stateMutability": "nonpayable",
      "type": "function"
    }
  ],
  "bytecode": "0x60806040818152346100e3576000808052602091818352808220338352835260ff8183205416156100ad575b7fa49807205ce4d355092ef5a8a18f56e8913cf4a201fbe287825b095693c2177592838352828152818320338452815260ff828420541615610074575b610f9885816100e98239f35b83835282815281832090338452528120600160ff198254161790553391600080516020611081833981519152339280a438808080610068565b8180528183528082203383528352808220600160ff198254161790553333836000805160206110818339815191528180a461002b565b600080fdfe608060408181526004908136101561001657600080fd5b600092833560e01c90816301ffc9a7146108b6575080631e0ab537146108095780631f69565f1461074d578063248a9ca3146107235780632f2ff15d1461067a57806336568abe146105e85780634bb63c131461040d5780635fa7b584146102a357806375151b631461026557806375b238fc1461022a57806391d14854146101e4578063a217fddf146101c5578063d3c7c2c7146100fd5763d547741f146100be57600080fd5b346100f957806003193601126100f9576100f691356100f160016100e0610925565b938387528660205286200154610c9e565b610daa565b80f35b8280fd5b5082346101c257806003193601126101c2579080519182906002549182855260208095018093600284527f405787fa12a823e0f2b7631cc41b3ba8828b3321ca811111fa75cd3aa3bb5ace90845b8181106101a557505050816101619103826109fc565b83519485948186019282875251809352850193925b82811061018557505050500390f35b83516001600160a01b031685528695509381019392810192600101610176565b82546001600160a01b03168452928801926001928301920161014b565b80fd5b8382346101e057816003193601126101e05751908152602090f35b5080fd5b5090346100f957816003193601126100f9578160209360ff92610205610925565b903582528186528282206001600160a01b039091168252855220549151911615158152f35b8382346101e057816003193601126101e057602090517fa49807205ce4d355092ef5a8a18f56e8913cf4a201fbe287825b095693c217758152f35b8382346101e05760203660031901126101e05760209160ff9082906001600160a01b0361029061090a565b1681526001855220541690519015158152f35b5090346100f95760203660031901126100f9576102be61090a565b916102c7610a6b565b60018060a01b0380931692838552600192839260016020526102ee60ff8289205416610973565b85875260016020528620805460ff1916905585935b610331575b85857f4c910b69fe65a61f7531b9c5042b2329ca7179c77290aa7e2eb3afa3c8511fd38280a280f35b6002805490818610156104065783918761034a88610a1e565b949054600395861b1c1614610366575050508280940193610303565b919590945060001992918381019081116103f357906103988561038b6103b694610a1e565b9054908a1b1c1691610a1e565b90919060018060a01b038084549260031b9316831b921b1916179055565b83549081156103e0575001926103cb84610a1e565b81939154921b1b191690555538808080610308565b634e487b7160e01b885260319052602487fd5b634e487b7160e01b895260118352602489fd5b5050610308565b508290346101e05761041e3661093b565b909293610429610a6b565b6001600160a01b03851694851561059157858752600160205260ff828820541661053f578151610458816109ca565b60018152600287896104ae60ff60208601818b16815288808801948d865260608901968c885281526001602052209651151582801989541691161787555116859061ff0082549160081b169061ff001916179055565b516001840155519101556002546801000000000000000081101561052c57916105087fa6d37896c72162ac51844d8fd9687456fdefa2577cac9e52730efbd8634c08dd969594926103988560016105269701600255610a1e565b519384938460409194939260ff606083019616825260208201520152565b0390a280f35b634e487b7160e01b885260418952602488fd5b815162461bcd60e51b81526020818a0152602660248201527f546f6b656e52656769737472793a20546f6b656e20616c7265616479207375706044820152651c1bdc9d195960d21b6064820152608490fd5b815162461bcd60e51b81526020818a0152602b60248201527f546f6b656e52656769737472793a20546f6b656e2063616e6e6f74206265207a60448201526a65726f206164647265737360a81b6064820152608490fd5b509190346101e057826003193601126101e057610603610925565b90336001600160a01b0383160361061f57906100f69135610daa565b608490602085519162461bcd60e51b8352820152602f60248201527f416363657373436f6e74726f6c3a2063616e206f6e6c792072656e6f756e636560448201526e103937b632b9903337b91039b2b63360891b6064820152fd5b5090346100f957816003193601126100f9573590610696610925565b90828452836020526106ad60018286200154610c9e565b82845260208481528185206001600160a01b039093168086529290528084205460ff16156106d9578380f35b828452836020528084208285526020528320600160ff1982541617905533917f2f8788117e7eff1d82e926ec794901d17c78024a50270940304540a733656f0d8480a43880808380f35b5090346100f95760203660031901126100f957816020936001923581528085522001549051908152f35b8382346101e057602090816003193601126100f9578060809361076e61090a565b816060845161077c816109ca565b82815287810183905285810183905201526001600160a01b031680825260018552828220546107ad9060ff16610973565b81526001845220908051916107c1836109ca565b80549360ff808616151595868652818387019160081c168152606060026001860154958789019687520154960195865284519687525116908501525190830152516060820152f35b8382346101e0577f7e0f2bd8a4ad436da4b09b3b8af9673176561f87dff251442c1c623787520c5a61052661083d3661093b565b90939192610849610a6b565b6001600160a01b031680885260016020528688205490969061086d9060ff16610973565b8688526001602052808820805461ff001916600886901b61ff001617815582906002908760018201550155519384938460409194939260ff606083019616825260208201520152565b849084346100f95760203660031901126100f9573563ffffffff60e01b81168091036100f95760209250637965db0b60e01b81149081156108f9575b5015158152f35b6301ffc9a760e01b149050836108f2565b600435906001600160a01b038216820361092057565b600080fd5b602435906001600160a01b038216820361092057565b6080906003190112610920576004356001600160a01b0381168103610920579060243560ff8116810361092057906044359060643590565b1561097a57565b60405162461bcd60e51b815260206004820152602260248201527f546f6b656e52656769737472793a20546f6b656e206e6f7420737570706f7274604482015261195960f21b6064820152608490fd5b6080810190811067ffffffffffffffff8211176109e657604052565b634e487b7160e01b600052604160045260246000fd5b90601f8019910116810190811067ffffffffffffffff8211176109e657604052565b600254811015610a555760026000527f405787fa12a823e0f2b7631cc41b3ba8828b3321ca811111fa75cd3aa3bb5ace0190600090565b634e487b7160e01b600052603260045260246000fd5b3360009081527f7d7ffb7a348e1c6a02869081a26547b49160dd3df72d1d75a570eb9b698292ec6020908152604080832054909291907fa49807205ce4d355092ef5a8a18f56e8913cf4a201fbe287825b095693c217759060ff1615610ad15750505050565b610ada33610e52565b90845190610ae7826109ca565b60428252838201946060368737825115610c8a576030865382519060019160011015610c8a5790607860218501536041915b818311610c1c57505050610bda5784610ba86048610bcc936044979851988991610b998984019876020b1b1b2b9b9a1b7b73a3937b61d1030b1b1b7bab73a1604d1b8a52610b70815180928d603789019101610e1e565b8401917001034b99036b4b9b9b4b733903937b6329607d1b603784015251809386840190610e1e565b010360288101895201876109fc565b5194859362461bcd60e51b8552600485015251809281602486015285850190610e1e565b601f01601f19168101030190fd5b60648386519062461bcd60e51b825280600483015260248201527f537472696e67733a20686578206c656e67746820696e73756666696369656e746044820152fd5b909192600f81166010811015610c76576f181899199a1a9b1b9c1cb0b131b232b360811b901a610c4c8587610e41565b5360041c928015610c6257600019019190610b19565b634e487b7160e01b82526011600452602482fd5b634e487b7160e01b83526032600452602483fd5b634e487b7160e01b81526032600452602490fd5b60008181526020818152604092838320338452825260ff848420541615610cc55750505050565b610cce33610e52565b90845190610cdb826109ca565b60428252838201946060368737825115610c8a576030865382519060019160011015610c8a5790607860218501536041915b818311610d6457505050610bda5784610ba86048610bcc936044979851988991610b998984019876020b1b1b2b9b9a1b7b73a3937b61d1030b1b1b7bab73a1604d1b8a52610b70815180928d603789019101610e1e565b909192600f81166010811015610c76576f181899199a1a9b1b9c1cb0b131b232b360811b901a610d948587610e41565b5360041c928015610c6257600019019190610d0d565b9060009180835282602052604083209160018060a01b03169182845260205260ff604084205416610dda57505050565b80835282602052604083208284526020526040832060ff1981541690557ff6391f5c32d9c69d2a47ea670b442974b53935d1edc7fd64eb21e047a839171b339380a4565b60005b838110610e315750506000910152565b8181015183820152602001610e21565b908151811015610a55570160200190565b604051906060820182811067ffffffffffffffff8211176109e657604052602a8252602082016040368237825115610a555760309053815160019060011015610a5557607860218401536029905b808211610ef4575050610eb05790565b606460405162461bcd60e51b815260206004820152602060248201527f537472696e67733a20686578206c656e67746820696e73756666696369656e746044820152fd5b9091600f81166010811015610f4d576f181899199a1a9b1b9c1cb0b131b232b360811b901a610f238486610e41565b5360041c918015610f38576000190190610ea0565b60246000634e487b7160e01b81526011600452fd5b60246000634e487b7160e01b81526032600452fdfea26469706673582212205bdd03806d1563c4e664ec6f6dbebc4391ed634bbc15ee7eafbb91ab238763b164736f6c634300081800332f8788117e7eff1d82e926ec794901d17c78024a50270940304540a733656f0d",
  "linkReferences": {},
  "deployedLinkReferences": {}
}